:020000040800F2
:1000000000000220494C00089519000897190008C3
:10001000991900089B1900089D19000800000000AC
:100020000000000000000000000000009F19000810
:10003000A119000800000000A3190008A519000874
:10004000994C0008994C0008994C0008994C0008FC
:10005000994C0008994C0008994C0008994C0008EC
:10006000994C0008994C0008994C0008994C0008DC
:10007000994C0008994C0008994C0008994C0008CC
:10008000AD190008BD190008994C0008994C0008EA
:10009000994C0008994C0008994C0008994C0008AC
:1000A000994C0008CD190008994C0008994C00089B
:1000B000994C0008994C0008E5190008994C000873
:1000C000994C0008994C0008994C0008994C00087C
:1000D000994C0008994C0008994C0008994C00086C
:1000E000994C0008994C0008994C0008994C00085C
:1000F000994C0008994C0008994C0008994C00084C
:10010000994C0008994C0008994C0008994C00083B
:10011000994C0008994C0008994C0008994C00082B
:10012000F5190008994C0008994C0008994C0008F2
:10013000994C0008994C0008994C0008994C00080B
:10014000994C0008994C0008994C0008994C0008FB
:10015000994C0008994C0008994C0008994C0008EB
:10016000994C0008994C0008994C0008994C0008DB
:10017000994C0008994C0008994C000800000000B8
:08018000994C0008994C00089D
:1001C00010B5054C237833B9044B13B10448AFF391
:1001D00000800123237010BDF809002000000000FA
:1001E00078D8000808B5034B1BB103490348AFF3A7
:1001F000008008BD00000000FC09002078D800083D
:1002000081F0004102E000BF83F0004330B54FEAC7
:1002100041044FEA430594EA050F08BF90EA020F34
:100220001FBF54EA000C55EA020C7FEA645C7FEAC7
:10023000655C00F0E2804FEA5454D4EB5555B8BFEA
:100240006D420CDD2C4480EA020281EA030382EA5B
:10025000000083EA010180EA020281EA0303362DED
:1002600088BF30BD11F0004F4FEA01314FF4801CC0
:100270004CEA113102D0404261EB410113F0004FD2
:100280004FEA03334CEA133302D0524263EB430389
:1002900094EA050F00F0A780A4F10104D5F1200E27
:1002A0000DDB02FA0EFC22FA05F2801841F1000182
:1002B00003FA0EF2801843FA05F359410EE0A5F156
:1002C00020050EF1200E012A03FA0EFC28BF4CF087
:1002D000020C43FA05F3C01851EBE37101F000453D
:1002E00007D54FF0000EDCF1000C7EEB00006EEB4A
:1002F0000101B1F5801F1BD3B1F5001F0CD34908D4
:100300005FEA30004FEA3C0C04F101044FEA44522A
:1003100012F5800F80F09A80BCF1004F08BF5FEAB1
:10032000500C50F1000041EB045141EA050130BD91
:100330005FEA4C0C404141EB0101013C28BFB1F5A3
:10034000801FE9D291F0000F04BF01460020B1FAEE
:1003500081F308BF2033A3F10B03B3F120020CDAC1
:100360000C3208DD02F1140CC2F10C0201FA0CF09F
:1003700021FA02F10CE002F11402D8BFC2F1200C04
:1003800001FA02F120FA0CFCDCBF41EA0C019040BA
:10039000E41AA2BF01EB0451294330BD6FEA040403
:1003A0001F3C1CDA0C340EDC04F11404C4F12002EE
:1003B00020FA04F001FA02F340EA030021FA04F300
:1003C00045EA030130BDC4F10C04C4F1200220FA57
:1003D00002F001FA04F340EA0300294630BD21FA95
:1003E00004F0294630BD94F0000F83F4801306BF5B
:1003F00081F480110134013D4EE77FEA645C18BF4F
:100400007FEA655C29D094EA050F08BF90EA020FE5
:1004100005D054EA000C04BF1946104630BD91EADD
:10042000030F1EBF0021002030BD5FEA545C05D1E0
:100430004000494128BF41F0004130BD14F580041F
:100440003CBF01F5801130BD01F0004545F0FE4193
:1004500041F470014FF0000030BD7FEA645C1ABFC8
:10046000194610467FEA655C1CBF0B46024650EAFF
:10047000013406BF52EA033591EA030F41F400212B
:1004800030BD00BF90F0000F04BF0021704730B5B1
:100490004FF4806404F132044FF000054FF0000186
:1004A00050E700BF90F0000F04BF0021704730B547
:1004B0004FF4806404F1320410F0004548BF40421C
:1004C0004FF000013EE700BF42004FEAE2014FEA71
:1004D00031014FEA02701FBF12F07F4393F07F4F4C
:1004E00081F06051704732F07F4208BF704793F04F
:1004F0007F4F04BF41F40021704730B54FF4607462
:1005000001F0004521F000411CE700BF50EA010264
:1005100008BF704730B54FF000050AE050EA01020D
:1005200008BF704730B511F0004502D5404261EB7D
:1005300041014FF4806404F132045FEA915C3FF4BE
:10054000D8AE4FF003025FEADC0C18BF03325FEA5B
:10055000DC0C18BF033202EBDC02C2F1200300FA0C
:1005600003FC20FA02F001FA03FE40EA0E0021FA31
:1005700002F11444BDE600BF70B54FF0FF0C4CF41F
:10058000E06C1CEA11541DBF1CEA135594EA0C0FD1
:1005900095EA0C0F00F0DEF82C4481EA030621EA0C
:1005A0004C5123EA4C5350EA013518BF52EA033547
:1005B00041F4801143F4801338D0A0FB02CE4FF0F9
:1005C0000005E1FB02E506F00042E0FB03E54FF029
:1005D0000006E1FB03569CF0000F18BF4EF0010E21
:1005E000A4F1FF04B6F5007F64F5407404D25FEA1D
:1005F0004E0E6D4146EB060642EAC62141EA5551D0
:100600004FEAC52040EA5E504FEACE2EB4F1FD0C11
:1006100088BFBCF5E06F1ED8BEF1004F08BF5FEA8F
:10062000500E50F1000041EB045170BD06F0004641
:1006300046EA010140EA020081EA0301B4EB5C04EE
:10064000C2BFD4EB0C0541EA045170BD41F48011E6
:100650004FF0000E013C00F3AB8014F1360FDEBF0B
:10066000002001F0004170BDC4F10004203C35DAE7
:100670000C341BDC04F11404C4F1200500FA05F36A
:1006800020FA04F001FA05F240EA020001F000420B
:1006900021F0004110EBD37021FA04F642EB060181
:1006A0005EEA430E08BF20EAD37070BDC4F10C04AB
:1006B000C4F1200500FA04F320FA05F001FA04F26F
:1006C00040EA020001F0004110EBD37041F100015B
:1006D0005EEA430E08BF20EAD37070BDC4F1200566
:1006E00000FA05F24EEA020E20FA04F301FA05F2CE
:1006F00043EA020321FA04F001F0004121FA04F276
:1007000020EA020000EBD3705EEA430E08BF20EA45
:10071000D37070BD94F0000F0FD101F0004640007F
:1007200041EB010111F4801F08BF013CF7D041EA01
:10073000060195F0000F18BF704703F00046520005
:1007400043EB030313F4801F08BF013DF7D043EAD6
:100750000603704794EA0C0F0CEA135518BF95EA8C
:100760000C0F0CD050EA410618BF52EA4306D1D113
:1007700081EA030101F000414FF0000070BD50EA32
:10078000410606BF1046194652EA430619D094EABC
:100790000C0F02D150EA013613D195EA0C0F05D1A6
:1007A00052EA03361CBF104619460AD181EA0301FA
:1007B00001F0004141F0FE4141F470014FF00000B2
:1007C00070BD41F0FE4141F4780170BD70B54FF04D
:1007D000FF0C4CF4E06C1CEA11541DBF1CEA1355CD
:1007E00094EA0C0F95EA0C0F00F0A7F8A4EB0504AF
:1007F00081EA030E52EA03354FEA013100F08880A6
:100800004FEA03334FF0805545EA131343EA12636E
:100810004FEA022245EA111545EA10654FEA002623
:100820000EF000419D4208BF964244F1FD0404F5DC
:10083000407402D25B084FEA3202B61A65EB030538
:100840005B084FEA32024FF480104FF4002CB6EBF5
:10085000020E75EB030E22BFB61A754640EA0C0075
:100860005B084FEA3202B6EB020E75EB030E22BFB5
:10087000B61A754640EA5C005B084FEA3202B6EBF6
:10088000020E75EB030E22BFB61A754640EA9C00B5
:100890005B084FEA3202B6EB020E75EB030E22BF85
:1008A000B61A754640EADC0055EA060E18D04FEA43
:1008B000051545EA16754FEA06164FEAC30343EAE3
:1008C00052734FEAC2025FEA1C1CC0D111F4801FB0
:1008D0000BD141EA00014FF000004FF0004CB6E7A9
:1008E00011F4801F04BF01430020B4F1FD0C88BF48
:1008F000BCF5E06F3FF6AFAEB5EB030C04BFB6EB53
:10090000020C5FEA500C50F1000041EB045170BD45
:100910000EF0004E4EEA113114EB5C04C2BFD4EB72
:100920000C0541EA045170BD41F480114FF0000EF6
:10093000013C90E645EA060E8DE60CEA135594EA72
:100940000C0F08BF95EA0C0F3FF43BAF94EA0C0F75
:100950000AD150EA01347FF434AF95EA0C0F7FF4EA
:1009600025AF104619462CE795EA0C0F06D152EA3E
:1009700003353FF4FDAE1046194622E750EA410622
:1009800018BF52EA43067FF4C5AE50EA41047FF433
:100990000DAF52EA43057FF4EBAE12E74FF0FF3C98
:1009A00006E000BF4FF0010C02E000BF4FF0010C69
:1009B0004DF804CD4FEA410C7FEA6C5C4FEA430CE2
:1009C00018BF7FEA6C5C1BD001B050EA410C0CBF31
:1009D00052EA430C91EA030F02BF90EA020F002093
:1009E000704710F1000F91EA030F58BF994208BFFA
:1009F00090422CBFD8176FEAE37040F001007047B7
:100A00004FEA410C7FEA6C5C02D150EA013C07D10D
:100A10004FEA430C7FEA6C5CD6D152EA033CD3D058
:100A20005DF8040B704700BF8446104662468C4652
:100A30001946634600E000BF01B5FFF7B7FF002885
:100A400048BF10F1000F01BD4DF808EDFFF7F4FFAE
:100A50000CBF012000205DF808FB00BF4DF808ED39
:100A6000FFF7EAFF34BF012000205DF808FB00BF5C
:100A70004DF808EDFFF7E0FF94BF012000205DF87E
:100A800008FB00BF4DF808EDFFF7CEFF94BF012033
:100A900000205DF808FB00BF4DF808EDFFF7C4FF2C
:100AA00034BF012000205DF808FB00BF4A0011D2CE
:100AB00012F5001211D20DD56FF47873B3EB6252B8
:100AC0000ED44FEAC12343F0004343EA505323FAC4
:100AD00002F070474FF00000704750EA013002D139
:100AE0004FF0FF3070474FF0000070474FEA41026F
:100AF000B2F1E04324BFB3F5001CDCF1FE5C0DD97C
:100B000001F0004C4FEAC0024CEA5070B2F1004FC5
:100B100040EB830008BF20F00100704711F0804FC8
:100B200021D113F13872BCBF01F00040704741F48D
:100B300080114FEA5252C2F11802C2F1200C10FA91
:100B40000CF320FA02F018BF40F001004FEAC12375
:100B50004FEAD32303FA0CFC40EA0C0023FA02F319
:100B60004FEA4303CCE77FEA625307D150EA0133EF
:100B70001EBF4FF0FE4040F44000704701F00040BF
:100B800040F0FE4040F40000704700BF53B94AB93E
:100B9000002908BF00281CBF4FF0FF314FF0FF3085
:100BA00000F074B9ADF1080C6DE904CE00F006F860
:100BB000DDF804E0DDE9022304B070472DE9F047D9
:100BC000089D04468E46002B4DD18A42944669D931
:100BD000B2FA82F252B101FA02F3C2F1200120FA14
:100BE00001F10CFA02FC41EA030E94404FEA1C4862
:100BF000210CBEFBF8F61FFA8CF708FB16E341EA5E
:100C0000034306FB07F199420AD91CEB030306F1E3
:100C1000FF3080F01F81994240F21C81023E634404
:100C20005B1AA4B2B3FBF8F008FB103344EA0344A8
:100C300000FB07F7A7420AD91CEB040400F1FF33BD
:100C400080F00A81A74240F207816444023840EAFA
:100C50000640E41B00261DB1D4400023C5E9004333
:100C60003146BDE8F0878B4209D9002D00F0EF80B6
:100C70000026C5E9000130463146BDE8F087B3FAE9
:100C800083F6002E4AD18B4202D3824200F2F980D1
:100C9000841A61EB030301209E46002DE0D0C5E9D4
:100CA000004EDDE702B9FFDEB2FA82F2002A40F020
:100CB0009280A1EB0C014FEA1C471FFA8CFE012623
:100CC000200CB1FBF7F307FB131140EA01410EFBC7
:100CD00003F0884208D91CEB010103F1FF3802D26E
:100CE000884200F2CB804346091AA4B2B1FBF7F068
:100CF00007FB101144EA01440EFB00FEA64508D98B
:100D00001CEB040400F1FF3102D2A64500F2BB80C7
:100D10000846A4EB0E0440EA03409CE7C6F1200716
:100D2000B34022FA07FC4CEA030C20FA07F401FA5C
:100D300006F31C43F9404FEA1C4900FA06F3B1FBE5
:100D4000F9F8200C1FFA8CFE09FB181140EA01414A
:100D500008FB0EF0884202FA06F20BD91CEB0101E7
:100D600008F1FF3A80F08880884240F28580A8F13F
:100D700002086144091AA4B2B1FBF9F009FB101191
:100D800044EA014100FB0EFE8E4508D91CEB01012F
:100D900000F1FF346CD28E456AD90238614440EAD2
:100DA0000840A0FB0294A1EB0E01A142C846A64652
:100DB00056D353D05DB1B3EB080261EB0E0101FADB
:100DC00007F722FA06F3F1401F43C5E90071002638
:100DD0003146BDE8F087C2F12003D8400CFA02FC8E
:100DE00021FA03F3914001434FEA1C471FFA8CFE9E
:100DF000B3FBF7F007FB10360B0C43EA064300FB8E
:100E00000EF69E4204FA02F408D91CEB030300F12B
:100E1000FF382FD29E422DD9023863449B1B89B2E2
:100E2000B3FBF7F607FB163341EA034106FB0EF36B
:100E30008B4208D91CEB010106F1FF3816D28B4218
:100E400014D9023E6144C91A46EA004638E72E46E4
:100E5000284605E70646E3E61846F8E64B45A9D2DC
:100E6000B9EB020864EB0C0E0138A3E74646EAE74B
:100E7000204694E74046D1E7D0467BE7023B6144F9
:100E800032E7304609E76444023842E7704700BF62
:100E900001F0FF01102A2BDB10F0070F08D010F82B
:100EA000013B013A8B422DD010F0070F42B3F6D12F
:100EB000F0B441EA012141EA014122F007047FF048
:100EC00000070023F0E80256083C85EA010586EA9F
:100ED000010685FA47F5A3FA87F586FA47F6A5FADB
:100EE00087F68EB9EED1F0BC01F0FF0102F00702E7
:100EF00032B110F8013B013A83EA010313B1F8D192
:100F00000020704701387047002D06BF3546033872
:100F1000073815F0010F07D1013015F4807F02BFAB
:100F2000013015F4C03F0130F0BC0138704700BFFC
:100F3000844641EA000313F003036DD1403A41D3E4
:100F400051F8043B40F8043B51F8043B40F8043BA3
:100F500051F8043B40F8043B51F8043B40F8043B93
:100F600051F8043B40F8043B51F8043B40F8043B83
:100F700051F8043B40F8043B51F8043B40F8043B73
:100F800051F8043B40F8043B51F8043B40F8043B63
:100F900051F8043B40F8043B51F8043B40F8043B53
:100FA00051F8043B40F8043B51F8043B40F8043B43
:100FB00051F8043B40F8043B51F8043B40F8043B33
:100FC000403ABDD2303211D351F8043B40F8043BD3
:100FD00051F8043B40F8043B51F8043B40F8043B13
:100FE00051F8043B40F8043B103AEDD20C3205D3E3
:100FF00051F8043B40F8043B043AF9D2043208D0DB
:10100000D2071CBF11F8013B00F8013B01D30B884C
:1010100003806046704700BF082A13D38B078DD02A
:1010200010F003038AD0C3F10403D21ADB071CBFFC
:1010300011F8013B00F8013B80D331F8023B20F866
:10104000023B7BE7043AD9D3013A11F8013B00F89F
:10105000013BF9D20B7803704B7843708B78837027
:101060006046704700000000000000000000000023
:101070000000000000000000000000000000000070
:1010800090F800F06DE9024520F007016FF0000CC8
:1010900010F0070491F820F040F049804FF0000470
:1010A0006FF00700D1E9002391F840F000F108004B
:1010B00082FA4CF2A4FA8CF283FA4CF3A2FA8CF383
:1010C0004BBBD1E9022382FA4CF200F10800A4FAEA
:1010D0008CF283FA4CF3A2FA8CF3E3B9D1E904233E
:1010E00082FA4CF200F10800A4FA8CF283FA4CF375
:1010F000A2FA8CF37BB9D1E9062301F1200182FA2F
:101100004CF200F10800A4FA8CF283FA4CF3A2FA34
:101110008CF3002BC6D0002A04BF04301A4612BA42
:10112000B2FA82F2FDE8024500EBD2007047D1E945
:10113000002304F00305C4F100004FEAC50514F0D4
:10114000040F91F840F00CFA05F562EA05021CBFA5
:1011500063EA050362464FF00004A9E74FEA410C39
:101160007FEA6C5C02D150EA013C0AD14FEA430CA1
:101170007FEA6C5C02D152EA033C02D14FF00000DE
:1011800070474FF0010070474FEA410212F500121C
:1011900015D211D56FF47873B3EB625212D94FEABE
:1011A000C12343F0004343EA505311F0004F23FAA8
:1011B00002F018BF404270474FF00000704750EAFD
:1011C000013005D111F0004008BF6FF000407047BA
:1011D0004FF00000704700BF00B585B000230093BA
:1011E0000193029303931648164A02604FF480322B
:1011F0004260836003610122027680F820304FF064
:101200008051C1624FF0C0618162C360C26180F8E9
:101210003020426101F040F860B90123009301934E
:10122000032302936946064801F062F828B905B025
:101230005DF804FB00F094F9EFE700F091F9F6E7B0
:10124000140A00200020014030B589B00023039328
:101250000493059306930793026803F1804303F513
:1012600090339A4201D009B030BD04460025019563
:1012700003F58C335A6C42F480725A645A6C02F44F
:1012800080720192019A02951A6B42F001021A6370
:101290001B6B03F001030293029B022303930323BE
:1012A000049303A9114801F001FD1148114B03609B
:1012B00045608560C5604FF4806303614FF48053DF
:1012C00043614FF4804383614FF48073C3614FF4F3
:1012D00080330362456201F0F1FA18B9044BA3634D
:1012E0009C63C0E700F03CF9F8E700BF0000024053
:1012F0005C0A00201064024000B583B00023009314
:1013000001931148114B036001F03AF990B90C2395
:10131000009302230193002269460B4801F007FA6B
:1013200058B910226946084801F001FA40B903B0E3
:101330005DF804FB00F014F9E9E700F011F9F0E7BB
:1013400000F00EF9F3E700BFBC0A00200074004073
:1013500030B589B000230393049305930693079354
:101360000268354B9A4201D009B030BD04460025D1
:10137000019503F5E2331A6C42F000521A641A6CBC
:1013800002F000520192019A02951A6B42F001029A
:101390001A631B6B03F001030293029B3023039338
:1013A0000323049303A9254801F080FC2448254B1E
:1013B00003604FF06063436040238360C5604FF477
:1013C000806303614FF4006343614FF40053836112
:1013D0004FF48073C3614FF480330362456201F0C0
:1013E0006DFA18BB164BA3609C631748174B03603C
:1013F0004FF060634360402383600023C3604FF479
:10140000806202614FF4006242614FF400528261D7
:101410004FF48072C2614FF480320262436201F085
:101420004DFA30B9084BE3609C639DE700F098F8F3
:10143000D8E700F095F8F5E700740040000002409E
:10144000D00A002088600240300B0020A0600240DB
:1014500010B582B000240094164B1A6B42F40012AF
:101460001A631A6B02F400120092009A01941A6B2C
:1014700042F480021A631B6B03F480030193019B07
:1014800022462146102001F011F8102001F046F804
:1014900022462146112001F009F8112001F03EF802
:1014A00022462146382001F001F8382001F036F8B4
:1014B00002B010BD0038024010B58AB0002205927B
:1014C00006920792089209920092234B196B41F001
:1014D00080011963196B01F080010091009901925C
:1014E000196B41F001011963196B01F001010191C0
:1014F00001990292196B41F010011963196B01F007
:101500001001029102990392196B41F002011963D3
:10151000196B01F00201039103990492196B41F0D8
:10152000080119631B6B03F008030493049B0B4C25
:101530004FF46041204601F0B2FC4FF46043059344
:101540000123069302230793089305A9204601F07F
:10155000ADFB0AB010BD00BF0038024000100240D1
:1015600072B6FEE700B595B03022002108A803F05E
:10157000BFFB002303930493059306930793019302
:10158000204A116C41F080511164126C02F08052BB
:101590000192019A02931C4B1A6842F480421A602D
:1015A0001B6803F480430293029B012308934FF4CA
:1015B0008033099302220E924FF480030F93042389
:1015C0001093A82111911292139308A801F06EFCB8
:1015D00098B90F23039302230493002305934FF438
:1015E000A05306934FF480530793052103A801F0FD
:1015F000C3FE20B915B05DF804FBFFF7B1FFFFF79C
:10160000AFFF00BF00380240007000400000000043
:1016100070B52DED028B86B000F078FDFFF7A2FFCC
:10162000FFF74AFF00F0C8FB00F0B2FC00F01CFC22
:10163000FFF70EFFFFF760FE00F098FA00F06CFC79
:10164000FFF7CAFD00F05CFA00F020FA00F0BAFCE7
:10165000A82003F081FAAE4803F0B4FA02F022FEAB
:101660000124ADF810408DF81440AA4D0021284601
:1016700002F074FB002200234FF47A61284603F045
:1016800045F94FF47A63ADF812309FEDA30A0320B9
:1016900003F018FA42F6E06003F048FAB3EE0E0ADF
:1016A000032003F00FFA42F6E06003F03FFA9B4B91
:1016B0004FF4E1721A80C7215980994803F06AFB00
:1016C000984802F045F802F0C3FF974B5C70102574
:1016D0001D7002F07DFF954A0021084603F0A4F832
:1016E00002F050FF0024009401940294CDF80B40C6
:1016F00000228F4B8F49684603F038FC6A46294622
:10170000204603F091F802F03DFF14E0BDF81040D0
:101710000022002321467F4803F0F8F804EB440040
:1017200003F004FAADF812402146834803F032FB7F
:101730000023ADF8103002F0EFFD0028FBD0232885
:10174000E4D02A282ED0A0F14102D2B2032A00F21E
:10175000BE80412877D0422800F097804328EAD104
:10176000764C00224FF40051204601F098FB0022F5
:101770004FF48041204601F092FB01224FF40041DA
:10178000204601F08CFB4FF6FF7301226C49604844
:1017900002F0A9FC6B4A0321002003F045F802F097
:1017A000F1FEC8E7BDF8105007EE905AB8EEE78A90
:1017B000B0EE480A032003F085F918EE100AFEF790
:1017C00083FE02460B465B49684603F0CFFB6A4640
:1017D0001021002003F028F802F0D4FEBDF812001A
:1017E00000EB400003F0A2F905EB8504C4EBC40450
:1017F000A4F51674A4B2494E34802846FEF752FE72
:101800003DA3D3E90023FEF7B7FE3DA3D3E90023B0
:10181000FEF7FAFCFFF76AF9FEF756FE3AA3D3E9A2
:101820000023FEF7D3FF0022474BFEF7A5FEFFF78C
:101830003DF981B271802246394803F0ABFA0023AA
:10184000ADF8103077E73D4C01224FF400512046AF
:1018500001F025FB00224FF48041204601F01FFBE0
:1018600000224FF40041204601F019FB4FF6FF73B0
:1018700001223649264802F036FC354A0321002071
:1018800002F0D2FF02F07EFE55E72C4C00224FF40E
:101890000051204601F003FB01224FF48041204615
:1018A00001F0FDFA00224FF40041204601F0F7FA62
:1018B0004FF6FF7301222749154802F014FC264A0F
:1018C0000321002002F0B0FF02F05CFE33E7A0F13C
:1018D0003003DBB29DF814202AB1ADF8103000239C
:1018E0008DF8143027E7BDF8102002EB820203EBDD
:1018F0004203ADF810301EE7922449922449A23FDA
:10190000922449922449E23FC904FC1A49921440A6
:10191000480D0020700C002000007042900B002049
:1019200090D80008980B0020D411002098D8000807
:1019300000003E40A0D80008B0D8000800100240C7
:10194000E4D80008E8D800080000A040BCD800088F
:10195000C0D80008D0D80008D4D8000882B0002130
:1019600000910B4B5A6C42F480425A645A6C02F458
:1019700080420092009A01911A6C42F080521A64DF
:101980001B6C03F080530193019B02B0704700BFB2
:1019900000380240FEE7FEE7FEE7FEE7FEE770479D
:1019A0007047704708B500F0CBFB08BD08B502488A
:1019B00001F08EF808BD00BFD00A002008B502482B
:1019C00001F086F808BD00BF300B002008B50348C1
:1019D00001F008FF024801F005FF08BD980B002048
:1019E000E00B002008B5024801F0FCFE08BD00BF76
:1019F000B80C002008B5024801F06AF808BD00BF25
:101A00005C0A00200120704708B503F047F916234F
:101A100003604FF0FF3008BD08B54FF0FF31FFF70E
:101A2000F3FFFEE708B503460B4A126842B10A4AC3
:101A3000106803446A46934206D8074A136008BDFB
:101A4000054A06491160F2E703F028F90C23036008
:101A50004FF0FF30F3E700BF940B0020D0140020BC
:101A60004FF0FF3070474FF400534B600020704739
:101A70000120704700207047034AD2F8883043F4B1
:101A80007003C2F88830704700ED00E000B587B001
:101A90000023029303930493059300930193164844
:101AA000164A026040F28F624260836040F2E73281
:101AB000C26003614361836101F0B6FF90B94FF4E6
:101AC0008053029302A90C4802F0B9F868B90023C8
:101AD000009301936946084802F0C2F940B907B083
:101AE0005DF804FBFFF73CFDE9E7FFF739FDEEE7A2
:101AF000FFF736FDF3E700BF980B00200000014020
:101B000000B587B0002302930393049305930093D9
:101B1000019315484FF080420260A7224260836023
:101B20000922C2600361836101F07EFF98B94FF41E
:101B30008053029302A90C4802F081F870B9202367
:101B40000093002301936946074802F089F940B9E0
:101B500007B05DF804FBFFF703FDE8E7FFF700FDC2
:101B6000EDE7FFF7FDFCF3E7280C002000B587B098
:101B70000023029303930493059300930193154864
:101B8000154A0260A722426083600922C260036195
:101B90004361836101F048FF98B94FF48053029389
:101BA00002A90C4802F04BF870B9202300930023DF
:101BB00001936946074802F053F940B907B05DF850
:101BC00004FBFFF7CDFCE8E7FFF7CAFCEDE7FFF702
:101BD000C7FCF3E7000D00200004014000B587B00A
:101BE00003683B4A934222D0B3F1804F33D0394A45
:101BF00093423FD0384A934249D0384A93425AD010
:101C0000374A934233D100210591364B5A6C42F446
:101C100000325A645B6C03F400330593059B0A465B
:101C2000192000F043FC192000F078FC1FE000218F
:101C300000912C4B5A6C42F001025A645B6C03F029
:101C400001030093009B0A46192000F02FFC192085
:101C500000F064FC0BE000230193224B1A6C42F06D
:101C600001021A641B6C03F001030193019B07B08E
:101C70005DF804FB002302931A4B1A6C42F0020237
:101C80001A641B6C03F002030293029BEFE700212E
:101C90000391144B1A6C42F004021A641B6C03F09B
:101CA00004030393039B0A461E2000F0FFFB1E2043
:101CB00000F034FCDBE7002304930A4B5A6C42F03B
:101CC00002025A645B6C03F002030493049BCEE7A8
:101CD00000000140000400400008004000040140F2
:101CE000004401400038024000B589B0002303934E
:101CF00004930593069307930368284A934208D0F8
:101D0000274A93421BD0274A93422FD009B05DF84F
:101D100004FB00230093244B1A6B42F001021A6368
:101D20001B6B03F001030093009B402303930223EA
:101D30000493079303A91D4800F0B8FFE6E70023CA
:101D40000193194B1A6B42F008021A631B6B03F0E4
:101D500008030193019B4FF48053039302230493E0
:101D6000079303A9124800F0A1FFCFE700230293D5
:101D70000D4B1A6B42F002021A631B6B03F0020355
:101D80000293029B4FF48073039302230493032373
:101D9000079303A9074800F089FFB7E70004004054
:101DA00000080040004401400038024000000240AA
:101DB000000C02400004024000B58FB000230A93DB
:101DC0000B930C930D930893099301930293039340
:101DD00004930593069307932148224A02605322F5
:101DE0004260836040F2E732C2600361836101F0C8
:101DF0001BFE30BB4FF480530A930AA9184801F028
:101E00001EFF08BB164801F03BFE00BB00230893F1
:101E1000099308A9124802F023F8D8B96023019366
:101E200040F2F313029300220392059201A90C4899
:101E300001F08AFE88B90A48FFF756FF0FB05DF837
:101E400004FBFFF78DFBD5E7FFF78AFBDAE7FFF727
:101E500087FBDBE7FFF784FBE0E7FFF781FBEAE7BF
:101E6000700C00200004004000B58FB000230A93DE
:101E70000B930C930D93089309930193029303938F
:101E800004930593069307932148224A0260532244
:101E90004260836040F2E732C2600361836101F017
:101EA000C3FD30BB4FF480530A930AA9184801F0D0
:101EB000C6FE08BB164801F0E3FD00BB00230893F3
:101EC000099308A9124801F0CBFFD8B96023019308
:101ED00040F2F313029300220392059201A90C48E9
:101EE00001F032FE88B90A48FFF7FEFE0FB05DF838
:101EF00004FBFFF735FBD5E7FFF732FBDAE7FFF727
:101F00002FFBDBE7FFF72CFBE0E7FFF729FBEAE716
:101F1000B80C00200008004000B589B000230193F0
:101F20000293039304930593069307931648174A65
:101F30000260A722426083600922C260036183615C
:101F400001F072FDB0B9104801F09AFDA8B9602304
:101F50000193042302930022039205920DEB0301E7
:101F6000094801F0F1FD58B90748FFF7BDFE09B077
:101F70005DF804FBFFF7F4FAE5E7FFF7F1FAE6E7AF
:101F8000FFF7EEFAF0E700BFE00B0020004401404D
:101F900008B50A480A4B03604FF4E133436000235D
:101FA0008360C36003610C2242618361C36102F0FC
:101FB0006BF800B908BDFFF7D3FAFBE7480D002026
:101FC0000010014008B50A480A4B03604FF4E133A2
:101FD000436000238360C36003610C22426183611C
:101FE000C36102F051F800B908BDFFF7B9FAFBE789
:101FF0008C0D00200048004000B58BB000230593F5
:1020000006930793089309930368284A934205D0DF
:10201000274A934226D00BB05DF804FB00210191C2
:10202000244B5A6C42F010025A645A6C02F01002AF
:102030000192019A02911A6B42F001021A631B6B22
:1020400003F001030293029B4FF4C0630593022344
:102050000693032308930723099305A9164800F064
:1020600025FED8E700210391124B1A6C42F480221E
:102070001A641A6C02F480220392039A04911A6B78
:1020800042F002021A631B6B03F002030493049BE9
:102090004FF4406305930223069303230893072319
:1020A000099305A9054800F001FEB4E700100140BE
:1020B0000048004000380240000002400004024096
:1020C00010B504460E4B18784FF47A73B3FBF0F357
:1020D0000C4A1068B0FBF3F000F02EFA68B90F2C30
:1020E00001D901200AE0002221464FF0FF3000F024
:1020F000DDF9054B1C60002000E0012010BD00BF91
:1021000004000020000000200800002008B50B4B50
:102110001A6842F400721A601A6842F480621A6007
:102120001A6842F480721A60032000F0ADF90F20A3
:10213000FFF7C6FFFFF712FC002008BD003C02407D
:10214000034A1168034B1B780B441360704700BFB0
:10215000D00D002004000020014B1868704700BF1C
:10216000D00D00204A4B5A6822F440325A605A6817
:1021700041680A435A600268536823F480735360CD
:1021800002685368016943EA012353600268536897
:1021900023F0407353600268536881680B435360B7
:1021A0000268936823F40063936002689368C168CF
:1021B0000B439360826A374B9A4257D00268936808
:1021C00023F07063936002689368816A0B439360A5
:1021D0000268936823F04053936002689368C16A71
:1021E0000B4393600268936823F0020393600268D4
:1021F0009368017E43EA4103936090F82030002BFE
:102200003FD00268536843F4006353600268536828
:1022100023F46043536001684B68426A013A43EA21
:1022200042334B600268D36A23F47003D3620168BF
:10223000CB6AC269013A43EA0253CB6202689368EF
:1022400023F4007393600268936890F8301043EAB7
:10225000412393600268936823F48063936002686B
:102260009368416943EA81239360704702689368E9
:1022700023F0706393600268936823F04053936087
:10228000B0E70268536823F400635360CAE700BFF5
:10229000002301400100000F38B310B50446036C61
:1022A00043B1236C13F0100F0BD00120002384F8EE
:1022B0003C3010BDFEF7C8FF0023636484F83C3057
:1022C000EFE7236C23F4885323F0020343F0020367
:1022D00023642046FFF746FF00206064236C23F050
:1022E000030343F001032364E0E70120704700008B
:1022F00030B482B00023019390F83C30012B00F001
:10230000BB80012380F83C300B68092B41D904685D
:10231000E2689BB203EB43031E3B4FF0070C0CFA41
:1023200003F322EA0303E3600468E2680B8803EB2B
:1023300043031E3B8D6805FA03F31343E3604B68C8
:10234000062B3DD80468626B03EB8303053B4FF01B
:102350001F0C0CFA03F322EA030363630468626B45
:102360004B6803EB8303053BB1F800C00CFA03F3A1
:10237000134363630268414B9A4251D002683F4B5A
:102380009A4256D0002380F83C30184602B030BC48
:102390007047046822699BB203EB43034FF0070CBC
:1023A0000CFA03F322EA03032361046822690B8811
:1023B00003EB43038D6805FA03F313432361BEE780
:1023C0000C2B16D805682A6B03EB8303233B1F24D1
:1023D00004FA03F322EA03032B6305682A6B4B68B4
:1023E00003EB8303233B0C8804FA03F313432B63AF
:1023F000C0E70568EA6A03EB8303413B1F2404FA44
:1024000003F322EA0303EB620568EA6A4B6803EB15
:102410008303413B0C8804FA03F31343EB62A9E7FF
:102420000B68122BAAD1164A536843F480035360F9
:10243000A4E70B68103B012BA4D8114A536843F45E
:10244000000353600B68102B9CD10E4B1B6802F1EC
:10245000467202F52E3202F28332A2FB03239B0C5A
:1024600003EB83035B00019302E0019B013B0193BB
:10247000019B002BF9D185E7022087E7002001406E
:102480000023014000000020074AD36823F4E063E2
:102490001B041B0C000200F4E060034343F0BF6325
:1024A00043F40033D360704700ED00E000B5194BF2
:1024B000DB68C3F30223C3F1070CBCF1040F28BF90
:1024C0004FF0040C03F1040EBEF1060F18D9033BC4
:1024D0004FF0FF3E0EFA0CFC21EA0C0199400EFA77
:1024E00003F322EA0303194300280BDB0901C9B2F5
:1024F00000F1604000F5614080F800135DF804FBD6
:102500000023E5E700F00F000901C9B2024B19549E
:10251000F4E700BF00ED00E014ED00E0002807DB69
:1025200000F01F02400901239340024A42F8203084
:10253000704700BF00E100E00138B0F1807F0BD2AE
:102540004FF0E0235861054AF02182F82310002063
:10255000986107221A6170470120704700ED00E082
:10256000042806D04FF0E022136923F0040313611E
:1025700070474FF0E022136943F004031361704782
:1025800070B110B50446037933B1022323710020E2
:1025900020610123237110BD4371FEF7D9FEF4E7DA
:1025A0000120704770B504460D461146049A4079E3
:1025B000012866D00120607102202071002D34D1E5
:1025C000A068314EC663A068304E0664A068304EE5
:1025D000C6642668306840F480503060042A1ED0FB
:1025E000082A1FD0C2B12A46002D3CD12668306887
:1025F00040F400503060A06800F0EAF900236371F5
:10260000002839D12268136805F01005012101FA6C
:1026100005F51D43156070BD22680832E4E72268A5
:102620000C32E1E722681032DEE7E068194EC6633B
:10263000E068194E0664E068184EC6642668306883
:1026400040F080503060042A07D0082A08D00AB130
:102650000022C9E722681432C6E722681832C3E7AD
:1026600022681C32C0E72668306840F000503060B5
:10267000E06800F0ADF9C1E7236943F0040323618A
:10268000C9E70220C7E700BFF92600080B270008AA
:10269000172700088B2700089B270008A52700089C
:1026A00010B504460368186801F0100E4FF4805C02
:1026B0000CFA0EFC20EA0C00186020680368012266
:1026C00002FA0EF223EA0203036059B9A06800F08F
:1026D000B4F92268136823F40053136001232371B3
:1026E000002010BDE06800F0A8F92268136823F00C
:1026F00000531360F2E7704710B5846B2046FFF774
:10270000FAFF0123237110BD704708B5806BFFF7F6
:10271000FBFF08BD704710B5846B236943F00403C9
:1027200023612046FFF7F6FF0123237110BD437993
:10273000012B25D010B54FF0010E80F805E00223E3
:1027400003710468236802F0100240F6FE7C0CFA64
:1027500002FC23EA0C0C0B6849680B43934043EAE4
:102760000C03236004682368C02101FA02F223EA03
:102770000202226080F804E000234371184610BD75
:102780000220704770477047704710B5846B204631
:10279000FFF7F8FF0123237110BD08B5806BFFF729
:1027A000F2FF08BD10B5846B236943F00403236175
:1027B0002046FFF7E9FF0123237110BD30B40568FF
:1027C0002C6824F480242C60046863608368402BA8
:1027D00005D0036899600368DA6030BC704703680D
:1027E0009A600368D960F8E710B40368D9B2103969
:1027F0000C4AA2FB014212090B4CA25CC2655F2984
:1028000009D923F47F7323F0030304338365806DB8
:102810005DF8044B704723F47F7323F00303836553
:10282000F5E700BFABAAAAAA10D90008836A82699B
:1028300092B9012B0AD0022B02D00BB100207047B5
:10284000C36A13F0807F28D100207047C36AB3F1B8
:10285000C07F24D000207047B2F5005F09D0022B62
:1028600025D9032B25D1C36A13F0807F23D1002003
:102870007047032B03D8DFE803F01404140A002088
:102880007047C36A13F0807F0DD100207047C36A80
:10289000B3F1C07F09D000207047012070470120AC
:1028A00070470120704701207047012070470120C8
:1028B00070470020704701207047000070B5044643
:1028C000FFF74AFC002C5BD00546022384F8353024
:1028D000002384F834302268136823F00103136066
:1028E00023681A6812F0010F0AD0FFF735FC431B6A
:1028F000052BF5D920236365032084F8350070BDCE
:102900001A68204810406168A2680A43E1680A43D7
:1029100021690A4361690A43A1690A43E1690A43DB
:10292000216A0A430243616A04291ED01A6026689C
:10293000756925F00705636A1D43042B07D1A36A57
:102940001D43E36A1BB12046FFF770FF90B9756124
:102950002046FFF749FFE26D3F239340836000204C
:102960006065012384F83530C9E7E16A206B0143D3
:102970000A43DBE740236365012084F83500BEE7A6
:102980000120BCE73F8010F038B5044690F83400D1
:1029900001281BD0012084F8340094F83500C0B21F
:1029A000012804D0002384F83430022038BD0220EE
:1029B00084F83500002565652046FFF7FFFE226894
:1029C000136843F0010313602846EFE70220EDE7A8
:1029D00038B50446856D90F8340001282BD00120CD
:1029E00084F8340094F83500C0B2012804D00023E4
:1029F00084F83430022038BD022084F835000020ED
:102A000060652046FFF7DAFEE26D3F239340AB603E
:102A10002268136843F016031360236C23B1226805
:102A2000136843F0080313602268136843F001033E
:102A300013600020DFE70220DDE770B50446866DF5
:102A4000FFF78AFB94F83530DBB2022B06D08023E7
:102A50006365002384F83430012070BD0546226888
:102A6000136823F0160313602268536923F0800370
:102A70005361236CE3B12268136823F008031360E9
:102A80002268136823F00103136023681B6813F0A6
:102A9000010F11D0FFF760FB431B052BF5D9202355
:102AA0006365032084F83500002384F83430D4E7CC
:102AB000A36C002BDFD1E3E7E26D3F239340B360CB
:102AC000012384F83530002084F83400C5E7000085
:102AD000F0B583B0044600230193724B1D68724B1E
:102AE000A3FB0535AD0A876D3E68C26D0823934090
:102AF000334210D003681A6812F0040F0BD01A6822
:102B000022F004021A60C26D08239340BB60436D3B
:102B100043F001034365E26D01239340334209D042
:102B20002268526912F0800F04D0BB60636D43F0DD
:102B300002036365E26D04239340334209D02268A7
:102B4000126812F0020F04D0BB60636D43F00403FF
:102B50006365E26D10239340334224D022681268EB
:102B600012F0080F1FD0BB6023681A6812F4802F80
:102B70000DD01B6813F4002F04D1236C9BB12046A9
:102B8000984710E0A36C73B1204698470BE01A6891
:102B900012F4807F03D11A6822F008021A60236CB5
:102BA0000BB120469847E26D20239340334255D025
:102BB0002268126812F0100F50D0BB6094F83530C4
:102BC000DBB2052B0ED023681A6812F4802F33D0A5
:102BD0001B6813F4002F2AD1636C002B3ED02046D3
:102BE00098473BE02268136823F0160313602268BD
:102BF000536923F080035361236CA3B122681368E7
:102C000023F008031360E26D3F239340BB60012370
:102C100084F83530002384F83430236D002B3FD006
:102C2000204698473CE0A36C002BE7D1EBE7E36B31
:102C3000A3B12046984711E01A6812F4807F09D1A9
:102C40001A6822F010021A60012384F8353000233C
:102C500084F83430E36B0BB120469847636DFBB1C9
:102C6000636D13F0010F17D0052384F83530226807
:102C7000136823F001031360019B01330193AB42FE
:102C800004D823681B6813F0010FF5D1012384F8E1
:102C90003530002384F83430E36C0BB1204698477C
:102CA00003B0F0BD00000020B5814E1B00230F2BA8
:102CB00000F2E48070B582B060E085685E000324B5
:102CC000B44025EA0405CC68B4402C4384604568D0
:102CD00025EA02054C68C4F300129A402A43426078
:102CE0005AE0DC08083450F8246003F0070295002D
:102CF0000F22AA4026EA020E0A69AA4042EA0E0200
:102D000040F824205CE0072200E0002202FA0EF2E4
:102D10002A4302345A4D45F824205A4A94686FEAEF
:102D20000C0224EA0C054E6816F4801F01D04CEA10
:102D30000405544CA560E46802EA04054E6816F4E4
:102D4000001F01D04CEA04054E4CE560646802EABD
:102D500004054E6816F4003F01D04CEA0405494CC6
:102D60006560246822404D6815F4803F01D04CEA2C
:102D70000402444C226001330F2B7DD801229A407B
:102D80000C6804EA020C32EA0404F4D14C6804F042
:102D90000304013C012C90D94A6802F00302032A83
:102DA00009D0C4685D000322AA4024EA02048A68AC
:102DB000AA402243C2604A6802F00302022A90D06D
:102DC00004684FEA430E032202FA0EF224EA0204D8
:102DD0004A6802F0030202FA0EF2224302604A68D5
:102DE00012F4403FC7D000220192274A546C44F4A9
:102DF00080445464526C02F480420192019A9C080F
:102E0000A51C1F4A52F8255003F003024FEA820E18
:102E10000F2202FA0EF225EA02051C4A90423FF404
:102E200074AF02F5806290421AD002F5806290423F
:102E300018D002F58062904216D002F5806290426E
:102E400014D002F58062904212D002F58062904266
:102E500010D002F5806290423FF455AF082255E74A
:102E6000012253E7022251E703224FE704224DE7F4
:102E700005224BE7062249E702B070BD704700BF4C
:102E800000380140003C0140003802400000024090
:102E90000369194201D001207047002070470AB130
:102EA000816170470904816170470000002800F0CB
:102EB000E08170B582B00446036813F0010F3BD087
:102EC0009F4B9B6803F00C03042B2CD09C4B9B68FE
:102ED00003F00C03082B21D06368B3F5803F4FD07B
:102EE000B3F5A02F52D0964B1A6822F480321A60A4
:102EF0001A6822F480221A606368002B50D0FFF712
:102F00002BF905468E4B1B6813F4003F14D1FFF7D5
:102F100023F9401B6428F5D90320B1E1884B5B6895
:102F200013F4800FD8D0864B1B6813F4003F03D0F6
:102F30006368002B00F09F81236813F0020F54D0C8
:102F40007F4B9B6813F00C0F3ED07D4B9B6803F0CA
:102F50000C03082B33D0E368002B68D0794B012297
:102F60001A60FFF7F9F80546754B1B6813F0020F5E
:102F700054D1FFF7F1F8401B0228F5D903207FE177
:102F80006F4A136843F480331360B5E76C4B1A68DB
:102F900042F480221A601A6842F480321A60ABE769
:102FA000FFF7DAF80546664B1B6813F4003FC3D001
:102FB000FFF7D2F8401B6428F5D9032060E1604B8D
:102FC0005B6813F4800FC6D15D4B1B6813F0020FD2
:102FD00003D0E368012B40F05081594A136823F075
:102FE000F803216943EAC1031360236813F0080F53
:102FF00042D063696BB3534B0122C3F8802EFFF7B5
:10300000ABF805464E4B5B6F13F0020F34D1FFF760
:10301000A3F8401B0228F5D9032031E1484A136880
:1030200023F0F803216943EAC1031360DDE7454B50
:1030300000221A60FFF790F80546414B1B6813F019
:10304000020FD2D0FFF788F8401B0228F5D90320E1
:1030500016E13C4B0022C3F8802EFFF77DF80546B1
:10306000374B5B6F13F0020F06D0FFF775F8401B6C
:103070000228F5D9032003E1236813F0040F77D069
:103080002F4B1B6C13F0805F33D1002301932C4B2B
:103090001A6C42F080521A641B6C03F08053019347
:1030A000019B0125284B1B6813F4807F23D0A36864
:1030B000012B34D0052B38D0214B1A6F22F001029E
:1030C0001A671A6F22F004021A67A368002B3DD01A
:1030D000FFF742F806461A4B1B6F13F0020F46D15A
:1030E000FFF73AF8801B41F288339842F3D9032066
:1030F000C6E00025D6E7144A136843F480731360D2
:10310000FFF72AF80646104B1B6813F4807FCED1D8
:10311000FFF722F8801B0228F5D90320B0E0084A07
:10312000136F43F001031367CFE7054B1A6F42F0AB
:1031300004021A671A6F42F001021A67C5E700BF5E
:10314000003802400000474200700040FFF704F8DA
:103150000646524B1B6F13F0020F08D0FEF7FCFF20
:10316000801B41F288339842F3D9032088E0EDB9FF
:10317000A369002B00F08380484A926802F00C0299
:10318000082A51D0022B17D0454B00221A66FEF7B1
:10319000E3FF0446414B1B6813F0007F42D0FEF76B
:1031A000DBFF001B0228F5D9032069E03B4A136CC2
:1031B00023F080531364DBE7394B00221A66FEF7D5
:1031C000CBFF0546354B1B6813F0007F06D0FEF79A
:1031D000C3FF401B0228F5D9032051E0E369226AAE
:1031E0001343626A43EA8213A26A5208013A43EA2D
:1031F0000243E26A43EA0263284A5360284B0122F1
:103200001A66FEF7A9FF0446244B1B6813F0007FE3
:1032100006D1FEF7A1FF001B0228F5D903202FE0FD
:1032200000202DE000202BE0012B2BD01B4B5B68F6
:1032300003F48001E269914226D103F03F02216A42
:103240008A4223D1616A47F6C0721A40B2EB811FED
:103250001ED103F44031A26A5208013AB1EB024F89
:1032600018D103F07063E26AB3EB026F14D100204F
:1032700006E001207047012002E0012000E000206C
:1032800002B070BD0120FBE70120F9E70120F7E75C
:103290000120F5E70120F3E70120F1E700380240C3
:1032A0000000474208B5314B9B6803F00C03042B28
:1032B00057D0082B57D12D4B5A6802F03F025B685C
:1032C00013F4800F2AD0294B5968C1F3881C4FEAA8
:1032D0004C11B1EB0C006EEB0E0E4FEA8E1343EA6D
:1032E00090638101091A63EB0E03DB0043EA51731B
:1032F000C90011EB0C0C43F10003590200234FEA03
:103300004C2041EADC51FDF741FC184B5B68C3F3EC
:10331000014301335B00B0FBF3F025E0134B596828
:10332000C1F3881C4FEA4C11B1EB0C006EEB0E0E92
:103330004FEA8E1343EA90638101091A63EB0E038F
:10334000DB0043EA5173C90011EB0C0C43F100039D
:10335000990200234FEA8C2041EA9C51FDF716FCAC
:10336000D3E7034800E0034808BD00BF003802402F
:1033700000127A000024F400002800F09B8070B551
:103380000D4604464F4B1B6803F007038B4208D2DF
:10339000CBB24C4A1370136803F007038B4240F022
:1033A0008B80236813F0020F17D013F0040F04D0A2
:1033B000454A936843F4E0539360236813F0080F81
:1033C00004D0414A936843F4604393603E4A936853
:1033D00023F0F003A1680B439360236813F0010FFF
:1033E00032D06368012B21D09A1E012A25D9364A92
:1033F000126812F0020F61D033498A6822F003028A
:1034000013438B60FEF7A8FE06462F4B9B6803F024
:103410000C036268B3EB820F16D0FEF79DFE801B93
:1034200041F288339842F0D9032042E0264A1268DC
:1034300012F4003FE0D101203BE0234A126812F071
:10344000007FD9D1012034E01E4B1B6803F0070335
:10345000AB4207D9EAB21B4B1A701B6803F0070393
:10346000AB422DD1236813F0040F06D0164A93689F
:1034700023F4E053E1680B439360236813F0080FD3
:1034800007D0114A936823F46043216943EAC103DA
:103490009360FFF707FF0C4B9B68C3F303130B4AC2
:1034A000D35CD8400A4B18600A4B1868FEF708FE38
:1034B000002070BD012070470120FAE70120F8E7E5
:1034C0000120F6E7003C024000380240F8D800082E
:1034D0000000002008000020014B1868704700BF62
:1034E0000000002008B5FFF7F7FF044B9B68C3F30B
:1034F0008223034AD35CD84008BD00BF0038024095
:1035000008D9000808B5FFF7E7FF044B9B68C3F331
:103510004233034AD35CD84008BD00BF00380240A4
:1035200008D9000830B4036A23F001030362036A78
:103530004268846924F073040D682C4323F0020C64
:103540008B6843EA0C03104DA84203D005F5806553
:10355000A84205D123F00803CD682B4323F00403D0
:10356000094DA84203D005F58065A84205D122F493
:1035700040724D692A438D692A43426084614A68DA
:103580004263036230BC70470000014030B4036AFC
:1035900023F480730362036A4268C46924F0730CE5
:1035A0000C6844EA0C0523F400738C6843EA042396
:1035B000114CA04203D004F58064A04206D123F44C
:1035C0000063CC6843EA042323F480630A4CA042DE
:1035D00003D004F58064A04207D122F440524C6924
:1035E00042EA04128C6942EA04124260C5614A68E8
:1035F000C263036230BC70470000014030B4036A0C
:1036000023F480530362036A4468C26922F4E642E9
:103610000D6842EA052223F400538D6843EA05331E
:10362000094DA84203D005F58065A84204D124F4D1
:1036300080444D6944EA85144460C2614A6802646A
:10364000036230BC704700BF0000014010B4036A41
:10365000046A24F001040462846924F0F00C4CEA4A
:10366000021223F00A030B43826103625DF8044BEC
:10367000704710B4046A24F0100404628469036A79
:1036800024F4704C4CEA023223F0A00343EA011305
:10369000826103625DF8044B7047836823F0700316
:1036A0000B4343F0070383607047000090F83D3000
:1036B000DBB2012B32D1022380F83D300368194A76
:1036C000934220D0B3F1804F1DD0A2F57C429342AB
:1036D00019D002F58062934215D002F580629342C0
:1036E00011D002F5784293420DD002F57052934208
:1036F00009D0A2F59432934205D01A6842F0010233
:103700001A60002070479A6802F00702062A07D064
:103710001A6842F001021A600020704701207047C9
:1037200000207047000001400368196A41F211123D
:10373000114208D1196A40F24442114203D11A6879
:1037400022F001021A60012380F83D30002070470A
:1037500090F83D30DBB2012B37D1022380F83D30A9
:103760000268D36843F00103D3600368194A9342A7
:1037700020D0B3F1804F1DD0A2F57C42934219D0E6
:1037800002F58062934215D002F58062934211D017
:1037900002F5784293420DD002F57052934209D05F
:1037A000A2F59432934205D01A6842F001021A60E1
:1037B000002070479A6802F00702062A07D01A68AC
:1037C00042F001021A60002070470120704700207B
:1037D000704700BF00000140704770477047704756
:1037E0007047704710B5044603681A6912F0020F5B
:1037F00011D0DA6812F0020F0DD06FF002021A61D8
:103800000123037703689B6913F0030F70D0FFF760
:10381000E6FF0023237723681A6912F0040F12D001
:10382000DA6812F0040F0ED06FF004021A6102235E
:10383000237723689B6913F4407F5FD02046FFF70E
:10384000CEFF0023237723681A6912F0080F12D0E5
:10385000DA6812F0080F0ED06FF008021A61042324
:1038600023772368DB6913F0030F4ED02046FFF760
:10387000B6FF0023237723681A6912F0100F12D0C5
:10388000DA6812F0100F0ED06FF010021A610823E0
:1038900023772368DB6913F4407F3DD02046FFF790
:1038A0009EFF0023237723681A6912F0010F03D0CB
:1038B000DA6812F0010F36D123681A6912F0800F0E
:1038C00003D0DA6812F0800F34D123681A6912F03D
:1038D000400F03D0DA6812F0400F32D123681A6922
:1038E00012F0200F03D0DA6812F0200F30D110BD93
:1038F000FFF774FF2046FFF773FF8AE72046FFF7C4
:103900006DFF2046FFF76CFF9BE72046FFF766FF41
:103910002046FFF765FFACE72046FFF75FFF204634
:10392000FFF75EFFBDE76FF001021A612046FFF767
:1039300054FFC1E76FF080021A61204600F0D7FA09
:10394000C3E76FF040021A612046FFF74AFFC5E760
:103950006FF020021A61204600F0C8FAC7E70000A5
:103960000368304A904212D0B0F1804F0FD0A2F5D8
:103970007C4290420BD002F58062904207D002F563
:103980008062904203D002F57842904203D123F046
:1039900070034A681343234A90422AD0B0F1804F03
:1039A00027D0A2F57C42904223D002F5806290425B
:1039B0001FD002F5806290421BD002F578429042FF
:1039C00017D002F57052904213D002F580629042F7
:1039D0000FD002F5806290420BD0A2F5983290424F
:1039E00007D002F58062904203D002F580629042D7
:1039F00003D123F44073CA68134323F080034A6958
:103A0000134303608B68C3620B688362054B984263
:103A100003D003F58063984201D10B69036301234E
:103A2000436170470000014040B310B5044690F870
:103A30003D30F3B1022384F83D30214651F8040BA8
:103A4000FFF78EFF012384F8463084F83E3084F877
:103A50003F3084F8403084F8413084F8423084F8B4
:103A6000433084F8443084F8453084F83D300020F9
:103A700010BD80F83C30FEF7B1F8DBE7012070475D
:103A800040B310B5044690F83D30F3B1022384F8FA
:103A90003D30214651F8040BFFF762FF012384F803
:103AA000463084F83E3084F83F3084F8403084F863
:103AB000413084F8423084F8433084F8443084F84C
:103AC000453084F83D30002010BD80F83C30FFF7D1
:103AD00083FEDBE70120704730B4036A23F0100354
:103AE0000362036A4468826922F4E6420D6842EA8E
:103AF000052223F020038D6843EA0513114DA842E7
:103B000003D005F58065A84206D123F08003CD6877
:103B100043EA051323F040030A4DA84203D005F5FC
:103B20008065A84207D124F440644D6944EA8504C5
:103B30008D6944EA8504446082614A688263036255
:103B400030BC70470000014038B590F83C30012B84
:103B500066D004460D46012380F83C300C2A5AD822
:103B6000DFE802F0075959591B5959593059595929
:103B700044000068FFF7D6FC2268936943F008030D
:103B800093612268936923F0040393612268936927
:103B900029690B43936100203EE00068FFF79CFF1A
:103BA0002268936943F4006393612268936923F464
:103BB0008063936122689369296943EA01239361D1
:103BC000002029E00068FFF7E1FC2268D36943F098
:103BD0000803D3612268D36923F00403D361226808
:103BE000D36929690B43D361002015E00068FFF712
:103BF00005FD2268D36943F40063D3612268D36969
:103C000023F48063D3612268D369296943EA0123DD
:103C1000D361002000E00120002384F83C3038BD4F
:103C20000220FCE710B4846824F47F4C42EA0322AB
:103C30000A4342EA0C0282605DF8044B704790F838
:103C40003C30012B78D010B50446012380F83C307D
:103C5000022380F83D300268936823F47F4323F009
:103C6000770393600B68602B4CD029D8402B54D03D
:103C70000CD9502B22D1CA6849680068FFF7E6FCCE
:103C800050212068FFF709FD002005E0202B0DD012
:103C900009D9302B0AD00120012384F83D300023BC
:103CA00084F83C3010BD0BB1102B05D119462068AB
:103CB000FFF7F3FC0020EFE70120EDE70120EBE741
:103CC000B3F5805F34D0B3F5005F0CD1CB684A68A0
:103CD00089680068FFF7A6FF2268936843F4804371
:103CE00093600020D8E7702B24D1CB684A6889689C
:103CF0000068FFF797FF2268936843F077039360AB
:103D00000020C9E7CA6849680068FFF7B2FC602173
:103D10002068FFF7C2FC0020BEE7CA684968006857
:103D2000FFF794FC40212068FFF7B7FC0020B3E7C1
:103D30000020B1E70120AFE70220704701F01F012A
:103D4000012303FA01FC036A23EA0C030362036AFA
:103D500002FA01F10B4303627047000010B50446FC
:103D60000846002942D194F83E30DBB2013B18BF2F
:103D70000123002B6ED1002851D1022384F83E305C
:103D8000012201462068FFF7D9FF2368334A934296
:103D900003D002F58062934203D15A6C42F4004290
:103DA0005A6423682D4A934249D0B3F1804F46D0DC
:103DB000A2F57C42934242D002F5806293423ED00B
:103DC00002F5806293423AD002F57842934236D0AF
:103DD00002F57052934232D0A2F5943293422ED023
:103DE0001A6842F001021A60002032E0042908D06B
:103DF00008290DD094F84130DBB2013B18BF0123F4
:103E0000B7E794F83F30DBB2013B18BF0123B0E7BE
:103E100094F84030DBB2013B18BF0123A9E7042826
:103E200005D0082807D0022384F84130A8E70223F0
:103E300084F83F30A4E7022384F84030A0E79A6872
:103E400002F00702062A07D01A6842F001021A603F
:103E5000002010BD0120FCE70020FAE7000001402F
:103E600090F83C30012B3DD010B4012380F83C3059
:103E7000022380F83D3003685A689C6822F0700C79
:103E80000A6842EA0C025A600368174A93421AD041
:103E9000B3F1804F17D0A2F57C42934213D002F5C4
:103EA000806293420FD002F5806293420BD002F5FC
:103EB0007842934207D002F57052934203D0A2F5A4
:103EC0009432934204D124F080044A6814439C60E5
:103ED000012380F83D30002380F83C3018465DF81F
:103EE000044B704702207047000001407047704744
:103EF00038B504460268136923F44053C1680B4384
:103F0000136183680269134342691343C2691A4308
:103F10000168CB6823F4164323F00C031343CB60F2
:103F20000268536923F4407381690B43536103684A
:103F3000314A934206D002F58062934202D0FFF7E5
:103F4000D1FA01E0FFF7DEFAE369B3F5004F29D0BB
:103F50000021031849411B1841F10001C90041EA41
:103F60005371DB00181863684FEA83024FEA9373BA
:103F700041F10001FCF70AFE204DA5FB003251097A
:103F8000642303FB11031B013233A5FB03235B09ED
:103F900003F0F00202EB011203F00F032168134457
:103FA0008B6038BD0023021843EB0301121841F166
:103FB0000001C90041EA5271D200101841F100011C
:103FC000626892185B41FCF7E1FD0C4DA5FB0032E5
:103FD0005109642303FB1103DB003233A5FB0323E8
:103FE0005B095A0002F4F87202EB011203F00703B6
:103FF000216813448B60D4E7001001401F85EB510A
:104000002DE9F84305460F4616469946DDF820800F
:104010002C68246837EA04030CBF4FF0010C4FF002
:10402000000CB4452DD1B8F1FF3FF1D0B8F1000F2D
:1040300005D0FEF791F8A0EB09004045E8D92A68C1
:1040400002F10C0353E8003F23F4D0730C3242E832
:1040500000310029F3D12A6802F1140353E8003F2C
:1040600023F00103143242E800310029F3D1202368
:1040700085F83D3085F83E30002385F83C3003203C
:1040800000E00020BDE8F88358B310B5044690F86E
:104090003D300BB3242384F83D302268D36823F4E9
:1040A0000053D3602046FFF723FF2268136923F4EF
:1040B000904313612268536923F02A0353612268F5
:1040C000D36843F40053D36000202064202384F895
:1040D0003D3084F83E3010BD80F83C30FDF78CFF59
:1040E000D8E7012070472DE9F04182B01E4690F8D4
:1040F0003D30DBB2202B54D104460D4690460029BA
:1041000053D0002A53D090F83C30012B51D00123DA
:1041100080F83C3000230364212380F83D30FEF713
:104120001BF80746A4F82480A4F82680A368B3F5FA
:10413000805F05D04FF00008002384F83C3012E087
:10414000236913B14FF00008F6E7A8460025F3E70E
:1041500038F8023B2268C3F308035360E28C92B242
:10416000013A92B2E284E38C9BB273B100963B4673
:10417000002280212046FFF743FFE0B9002DE7D061
:1041800015F8012B23685A60E8E700963B460022A9
:1041900040212046FFF734FF78B9202384F83D30D2
:1041A00000E0022002B0BDE8F0810120FAE7012022
:1041B000F8E70220F6E70320F4E70320F2E72DE911
:1041C000F04182B01E4690F83E30DBB2202B5CD12D
:1041D00004460D46904600295BD0002A5BD090F83B
:1041E0003C30012B59D0012380F83C30002303647C
:1041F000222280F83E200363FDF7AEFF0746A4F8B5
:104200002C80A4F82E80A368B3F5805F05D04FF012
:104210000008002384F83C3017E0236913B14FF005
:104220000008F6E7A8460025F3E723685B68C3F3B8
:10423000080328F8023B03E023685B682B70013514
:10424000E28D92B2013A92B2E285E38D9BB2BBB1AC
:1042500000963B46002220212046FFF7D1FEF0B910
:10426000002DE2D0A368B3F5805FE5D013B92369D0
:10427000002BE1D023685B6803F07F032B70DEE73F
:10428000202384F83E30002000E0022002B0BDE888
:10429000F0810120FAE70120F8E70220F6E7032089
:1042A000F4E7000010B586B0002401940294039452
:1042B000049405940EE0144B1B5D019301230293BB
:1042C00003930223049301A9104B53F82400FEF733
:1042D000EDFC0134032CEEDD002410E00C4B33F830
:1042E00014300193002302930123039302230493C8
:1042F00001A9084B53F82400FEF7D8FC0134032C25
:10430000ECDD06B010BD00BF3400002038000020F6
:104310000C0000201400002070B500252E461DE082
:10432000142000F043FC1B4B33F814101A4B53F8C5
:104330002400FEF7ADFD0028F5D0142000F036FC77
:10434000164B03EB85031E5D0122154B595D154B82
:1043500053F82500FEF7A3FDCEB90135032D16DC79
:1043600000220F4B595D0F4B53F82500FEF797FDC8
:104370000024032CE8DC074B33F81410064B53F8E9
:104380002400FEF785FD0028CAD00134F1E730464D
:1043900070BD00BF0C00002014000020240000208D
:1043A000340000203800002008B5022000F0DEFBB9
:1043B00008BD000010B50E4C012280212046FEF7FA
:1043C0006EFD012240212046FEF769FDFFF7ECFF5C
:1043D000002280212046FEF762FDFFF7E5FF002264
:1043E00040212046FEF75BFDFFF7DEFF10BD00BF5A
:1043F0000004024010B50B4C002280212046FEF73D
:104400004EFDFFF7D1FF012240212046FEF747FD78
:10441000FFF7CAFF012280212046FEF740FDFFF78B
:10442000C3FF10BD0004024010B588B00021019107
:10443000154B1A6B42F002021A631A6B02F0020269
:104440000192019A02911A6B42F002021A631B6BED
:1044500003F002030293029B40230393012304937E
:10446000059302230693094C03A92046FEF71EFC80
:10447000802303931123049303A92046FEF716FC1F
:10448000FFF7B8FF08B010BD00380240000402403A
:1044900038B5134C012280212046FEF700FDFFF7BE
:1044A00083FF012240212046FEF7F9FCFFF77CFF45
:1044B000002480210A48FEF7EBFC054630B10134A8
:1044C000E4B2FA2CF5D9FFF795FF0125002240212F
:1044D0000348FEF7E4FCFFF767FF284638BD00BF3E
:1044E0000004024070B50446002517E00022802138
:1044F0001348FEF7D4FCFFF757FF114E012240216D
:104500003046FEF7CCFCFFF74FFF0022402130463B
:10451000FEF7C5FC6400E4B20135EDB2072D08D802
:1045200014F0800FE2D0012280210548FEF7B7FC8D
:10453000E1E7012280210248FEF7B1FC70BD00BF17
:104540000004024038B505460C46FFF733FF7820DB
:10455000FFF7C8FFFFF79CFF5CB1012C0DD0FFF700
:1045600097FF2846FFF7BEFFFFF792FFFFF742FFD6
:1045700038BD0020FFF7B6FFF1E74020FFF7B2FF9C
:10458000EDE7000038B500250DE0104B03EBC40348
:104590000121585DFFF7D6FF0134E4B214F0800F1B
:1045A000F3D00135EDB2072D0FD8A5F15000002151
:1045B000C0B2FFF7C7FF00210846FFF7C3FF002185
:1045C0001020FFF7BFFF0024E8E738BDD40D00201E
:1045D00008B500200BE0094A02EBC3020021115488
:1045E0000133DBB213F0800FF5D00130C0B20728E1
:1045F00001D80023F6E7FFF7C5FF08BDD40D002062
:1046000010F0800F20D13F291ED8CB08C3F107033B
:10461000DBB201F00701C1F107014FF0010C0CFA08
:1046200001F15FFA81FC42B1084A02EBC000C25CB2
:104630004CEA020C00F803C07047044A02EBC000C9
:10464000C25C22EA0101C154704700BFD40D0020B2
:1046500008B5FFF7E9FE0021AE20FFF773FF002148
:10466000D520FFF76FFF00215020FFF76BFF0021DF
:10467000A820FFF767FF00213F20FFF763FF00211D
:10468000D320FFF75FFF00210846FFF75BFF002103
:104690004020FFF757FF00218D20FFF753FF002137
:1046A0001420FFF74FFF00212020FFF74BFF0021D0
:1046B0000220FFF747FF0021A120FFF743FF002161
:1046C000C020FFF73FFF0021DA20FFF73BFF00216A
:1046D0001220FFF737FF00218120FFF733FF002171
:1046E000EF20FFF72FFF0021D920FFF72BFF00213C
:1046F000F120FFF727FF0021DB20FFF723FF002138
:104700003020FFF71FFF0021A420FFF71BFF00212F
:10471000A620FFF717FF0021AF20FFF713FFFFF7D9
:1047200057FF034B0C221A7001225A7008BD00BFBC
:10473000D41100202DE9F04F85B080468946ADF8B0
:104740000C309DF80C700FB9334B1F789DF80DB0ED
:10475000BBF1000F02D1304B93F801B017F0070303
:1047600018BF012303EBD703790811FB03F3DBB276
:104770000193203AD3B202934C464FF0000A34E042
:10478000029B03EB4303254A02EB830313F80A5011
:104790003CE0234B029A03EB021313F80A5035E076
:1047A000BBFA8BF2520921464046FFF729FF6D0004
:1047B000EDB20134E4B2A4EB0903BB420CD00136E4
:1047C000F6B2072E0DD815F0800FE9D05A462146D3
:1047D0004046FFF715FFEAE708F101085FFA88F89D
:1047E0004C460AF1010A5FFA8AFA019B9A450FD2F8
:1047F0000C2FC5D0102FCCD0182F09D1029B03EB62
:10480000C303084A02EB830313F80A500026D8E7D3
:1048100005B0BDE8F08F00BFD411002018D9000802
:104820008CDD00087CE300082DE9F04383B00446EA
:104830000D461746164B1E7893F8018010E0C6F11E
:1048400040039D421BDC8DF804608DF80580019BC0
:1048500017F8012B29462046FFF76CFF4C44E4B2C1
:104860003B78203BDBB25E2B0ED84FEA5609C9F1EC
:1048700080039C42E3DD3544EDB20024DFE7FFF71F
:10488000A7FE00252C46DEE703B0BDE8F08300BF9D
:10489000D41100202DE9F041884615461C46FBF74F
:1048A000F1FD06460F464046FBF7ECFD02460B467F
:1048B00030463946FBF78AFF0022124BFBF7A4FC77
:1048C00041EC100B08F058F951EC100BFCF7EEF826
:1048D000002323800AE0FBF7D5FD00220A4BFBF7FB
:1048E0004BFEFCF7E3F8218801312180B0F5803FD1
:1048F000F1D228B901232B8000232380BDE8F08169
:104900002880FBE70000F03F0000E03F10B582B0D8
:104910000446134313D0104601AB0DF10602FFF716
:10492000B9FFBDF806302268D3622268BDF80410D2
:1049300091625B082268013B536302B010BD0148DD
:10494000EAE700BF00BD010508B50C4B186010B1C7
:10495000102809D008BD0A4B1A68002308320949FB
:104960000948FEF711F8F5E7054B1A6800231432E1
:1049700006490748FEF708F8ECE700BFD811002009
:10498000BC0A0020DC110020D00A00202C130020DB
:10499000300B00200000000070B52DED048B0646A2
:1049A00008EE901A154610EE100AFBF78DFD28A3AD
:1049B000D3E90023FBF7E0FD0022234BFBF706FFC2
:1049C000FCF794F809EE100A2846FBF76BFD024647
:1049D0000B461BA1D1E90001FBF7F8FEFCF786F8B6
:1049E00018EE903AB3EB550F26D909EE900A002441
:1049F00006E0BCEEC00A10EE103A26F8143001347E
:104A0000A54219DDB8EEE88A07EE904AB8EEE70A4B
:104A100020EE290A30EE090A08F0FEF828EE000A16
:104A200038EE000ADFED097AB4EEE70AF1EE10FA8B
:104A3000DFDDB0EE670ADCE7BDEC048B70BD00BFC4
:104A40004AD8124DFB2119400080664000F07F4596
:104A50004AD8124DFB2109402DE9F04182B00646AB
:104A60000D469046134F3846FEF75EFE3B68002425
:104A70005C62C3F82880DD620F4D21462846FDF7B1
:104A80000FFE10212846FDF70BFE009433460B4A1B
:104A900021462846FDF786FD00943346084A10213A
:104AA0002846FDF77FFD3846FEF700FE02B0BDE860
:104AB000F08100BF000D0020BC0A0020DC110020A6
:104AC0002C130020032800D0704770B52DED028B09
:104AD000B0EE408A124EA82422460021304600F053
:104AE00007F9104D22460021284600F001F99FEDFC
:104AF0000E0A22464FF400613046FFF74DFFB0EE3C
:104B0000480A22464FF400612846FFF745FF00207F
:104B1000FFF71AFF1020FFF717FFBDEC028B70BDE7
:104B2000DC1100202C1300200000000000B583B031
:104B3000014601AB0DF106020648FFF7ABFEBDF8DA
:104B40000420BDF80610A820FFF786FF03B05DF82B
:104B500004FB00BF40420F0010B504460420FDF7DF
:104B6000FFFC014B1C6010BD7C14002010B44FF002
:104B7000E02254690C4B1B6800FB03FC9369002185
:104B800004E0E01A02441144614509D21A464FF08C
:104B9000E0239B699A42FAD0F3D9D21A1144F3E781
:104BA0005DF8044B704700BF7C14002038B5054603
:104BB000002404E04FF47A70FFF7D8FF0134A542D7
:104BC000F8D838BD08B5054B1860054B18680023A8
:104BD00002221946806800F0F1F808BD8014002018
:104BE0004800002010B5013801280AD814464FF0BB
:104BF000FF3392B207480068FFF775FA40B92046C4
:104C000010BD00F04BF8092303604FF0FF30F7E7C9
:104C10000520F5E78014002008B548B94FF0FF33B0
:104C2000012208480068FFF7CAFA40B9012008BD10
:104C300000F034F8092303604FF0FF30F7E7052058
:104C4000F5E700BF80140020DFF834D00D480E498E
:104C50000E4A002302E0D458C4500433C4188C42D6
:104C6000F9D30B4A0B4C002301E013600432A2423B
:104C7000FBD3FCF701FF00F017F8FCF7C9FC704705
:104C80000000022000000020F8090020DCF80008E5
:104C9000F8090020CC140020FEE70000014B186842
:104CA000704700BF4800002070B50D4E0D4D761BBB
:104CB000B61006D0002455F8043B01349847A642AC
:104CC000F9D1094E094D761B08F0D6FDB61006D075
:104CD000002455F8043B01349847A642F9D170BD31
:104CE000D0F80008D0F80008D8F80008D0F800087C
:104CF000830730B548D0541E002A3FD0CAB20346BD
:104D000001E0013C3AD303F8012B9D07F9D1032CB4
:104D10002DD9CDB245EA05250F2C45EA054536D9F2
:104D2000A4F1100222F00F0C03F1200EE6444FEA2A
:104D3000121C03F1100242E9045542E902551032F7
:104D40007245F8D10CF1010214F00C0F03EB0212C2
:104D500004F00F0C13D0ACF1040323F0030304336D
:104D6000134442F8045B9342FBD10CF003042CB1D2
:104D7000CAB21C4403F8012B9C42FBD130BD6446EF
:104D80001346002CF4D1F9E703461446BFE71A4650
:104D9000A446E0E70FB400B5074983B004AB086848
:104DA00053F8042B8168019301F06AFE03B05DF8AB
:104DB00004EB04B0704700BF480000202DE9F04329
:104DC000694CD4F8008083B004460E4617461D4651
:104DD000B8F1000F03D0D8F83830002B77D0022F6D
:104DE00005D0012F00F2AC80002DC0F2A980636EC7
:104DF000DA0752D52146404604F090FD216B41B1BF
:104E000004F14003994202D0404604F0B3FE00236F
:104E10002363B4F90CC000231CF0800FA36163600E
:104E200064D12CF44A6C2CF0030C022FA4F80CC0B3
:104E30006AD001AB6A462146404605F041F8A38995
:104E40001843A081002D2FD0002E2ED0D8F8383056
:104E5000002B38D0009B2660AB42B4F90C301CBF4D
:104E600043F40063A381012F04BF43F00103A38136
:104E70009AB213F00803C4E904652CD0D1075DD5BC
:104E80006D42A561656E002315F00105A36027D072
:104E90000025284603B0BDE8F083A3899B05A9D46B
:104EA000A06D04F099FFA5E7009D284605F038F8AD
:104EB0000646002847D0A38943F08003A381D8F891
:104EC0003830002BC6D1404604F05CFDC2E74046B6
:104ED00004F058FD83E7A360656E15F00105D7D196
:104EE000930524D5284603B0BDE8F08321694046E8
:104EF00004F040FEB4F90CC02CF44A6C2CF0030C06
:104F0000022FA4F80CC094D10025002204F1430321
:104F1000A2600122C4E904322360636E4CF0020CEB
:104F2000D807A4F80CC0DDD41CF4007FDAD1A06D42
:104F300004F054FF284603B0BDE8F083A560CBE73A
:104F40004FF0FF35CEE7DDF80090A94504D0484684
:104F500004F0E6FF064620B9B4F90CC04FF0FF3567
:104F6000D3E74D46A7E700BF480000200EB410B5B8
:104F70009DB06FF000411FABCDE9060104910949D6
:104F800053F8042B0290084C0868019302A9059479
:104F900000F00EF8029B00221A701DB0BDE8104010
:104FA00003B07047480000200802FFFF0000000027
:104FB0002DE9F04F2DED0A8BCFB00C4691460AEE4D
:104FC000101A09930AEE900A04F0FEFE0368139388
:104FD0001846FCF755F8A38912901A0603D52369E1
:104FE000002B00F0A0874D469FEDA57B2B78002479
:104FF00025AACDE92344CDE91544CDE917448DED2B
:10500000107B1AEE909A0E94229290461494059476
:10501000002B00F0EC81AB4604E01BF8013F002BB5
:1050200000F01A81252BF8D1BBEB050640F0188162
:105030009BF80030002B00F0DA8100234FF0FF32A4
:105040009BF801708DF86B3006930BF1010B049205
:105050009A462B2420210BF1010BA7F120035A2B98
:1050600000F23C81DFE813F0D5023A013A01D002A8
:105070003A013A013A016A003A013A016502FE0238
:105080003A017002E4023A01DF025B005B005B0060
:105090005B005B005B005B005B005B003A013A0178
:1050A0003A013A013A013A013A01D2013A01360293
:1050B0008500D201D201D2013A013A013A013A0106
:1050C000CB023A013A01C6003A013A013A014002E4
:1050D0003A0175023A013A014F073A013A013A01A1
:1050E0003A013A013A013A013A01D2013A01360253
:1050F0008700D201D201D201BE02870080003A01AE
:10510000B1023A019902C800870280003A014002C8
:105110007D002A073A013A012E073A017D00A7F1E6
:10512000300300221BF8017B02EB820203EB4202F8
:10513000A7F13003092BF5D906928EE7484604F013
:1051400043FE436817931846FBF79AFF18900646EC
:10515000484604F039FE836815932021002E40F064
:10516000C2859BF8007076E79BF800704AF0200A31
:1051700071E74AF0100A1AF0200F099B00F09A819B
:10518000073323F007031A465B6852F8084B09926D
:105190001E46002BC0F26B85049B013301F03A8060
:1051A0002AF08003039354EA060300F0E7840A2CF4
:1051B00076F1000380F0908730340123DDF80CA0F5
:1051C0008DF8374107930DF23715049907989DF82C
:1051D0006B3081424FF00002B8BF01460892039144
:1051E0000C920F920D92002B00F08980039A0132ED
:1051F000039284E04AF0100A1AF0200600F04B8176
:10520000099B073323F007035E6853F8084B0993A3
:105210002AF480630393002300228DF86B20049A04
:10522000551C00F02682039921F0800A54EA0601F9
:1052300040F01D82002A41F02980002B40F0A48418
:10524000039B13F00103079300F0428530238DF890
:1052500037310DF23715B8E7BBEB050600F0C78014
:10526000249B33442493239B0133072BC8E9005626
:10527000239309DC08F10808059B33440593D7E61E
:1052800000000000000000001AEE101A22AA484692
:1052900005F082FD90B90DF19408EDE71AEE101AB1
:1052A00022AA484605F078FD002800F09180089B6E
:1052B00023B108991AEE900A04F05CFC1AEE103A39
:1052C0009B8913F0400F059B18BF4FF0FF330593E8
:1052D00005984FB0BDEC0A8BBDE8F08F002F00F0B1
:1052E000868000238DF8D4708DF86B300122CDE9D3
:1052F0000723039204930C930F930D9335AD1AF08B
:1053000002020A9202D0039A023203921AF0840235
:105310000B9205D1069A0399561A002E00F30D83BD
:10532000249C8BB1239B0DF16B0201330134C8F82F
:105330000020072B4FF0010224942393C8F8042087
:1053400000F3338308F108080A9B83B1239B1BAA4F
:1053500001330234C8F80020072B4FF002022494D6
:105360002393C8F8042000F32D8308F108080B9B51
:10537000802B00F00F82049B079A9E1A002E00F3E8
:1053800050821AF4807F40F0AB81079BC8F804304C
:105390001C44239BC8F800500133072B249423930B
:1053A00000F3BE8208F108081AF0040F05D0069B2E
:1053B000039A9D1A002D00F31283DDE9053203994B
:1053C0008A42ACBF9B185B180593002C7FF466AF34
:1053D00000232393089B1BB10899484604F0CAFB9D
:1053E0000DF194085D462B78002B7FF414AE249BBE
:1053F000002B3FF463AF1AEE104A1AEE101A1AEEA1
:10540000900A22AA05F0C8FCA3895AE7099B073332
:1054100023F00703B3EC027B8DED107BDDE9101266
:10542000099322F000430BEE101A0BEE903A4FF066
:10543000FF32B0EE4B9AF0EE6B9AA54B51EC190B84
:10544000FBF78CFE002840F06784A14B51EC190B50
:105450004FF0FF32FBF70CFB002840F05D84DDE9E4
:10546000100100220023FBF7F9FA002840F0A5877D
:105470009DF86B30974D984A2AF0800A0321472FF8
:10548000C8BF1546002208920391079104920C921E
:105490000F920D92A7E61AF0100340F033841AF031
:1054A000400200F05B87099A52F8044B09921E46AD
:1054B000A4B2ADE653F8044B09931AF0100F40F074
:1054C0000E841AF0400F00F0068444F3C0363346D1
:1054D00024B25EE6099A002352F8041B8DF86B3063
:1054E0008DF8D410099201E7099C54F8045B00265A
:1054F0008DF86B60002D00F0D986049B5A1C00F0DB
:1055000046851A4631462846FBF7C2FC089000281B
:1055100001F07A80089B0496591B079121EAE171FA
:105520009DF86B300994039108960C960F960D9692
:1055300059E6099B53F8042B0692002A80F2C38394
:10554000069A0993524206929BF800704AF0040AA8
:1055500081E54AF010030393039B13F0200600F04B
:105560007383099B073323F007035E6853F8084BE6
:105570000993012350E6099B53F8044B0993302308
:105580004AF0020278278DF86C30544B1493039242
:105590008DF86D70002602233EE61AF0200F40F0D1
:1055A00082841AF0100F40F078861AF0400F40F015
:1055B0004C871AF4007F00F07086099B059953F818
:1055C000042B099311705D460DE79BF800706C2F5A
:1055D00003BF9BF801704AF0200A0BF1010B4AF05F
:1055E000100A38E59BF80070682F03BF9BF8017024
:1055F0004AF4007A0BF1010B4AF0400A2BE59BF8C4
:1056000000704AF0080A26E59BF800704AF0010A8B
:1056100021E59DF86B30002B7FF4A3AD9BF8007063
:105620008DF86B1017E59BF800704AF0800A12E5C0
:105630005A4612F8017B2A2F01F0F381A7F13003BB
:10564000092B934698BF002200F2F4871BF8017BD8
:1056500002EB820203EB4202A7F13003092BF5D9DA
:105660000492FAE49BF800708DF86B40F3E4CDF8F7
:105670000CA0012B3FF49BAD022B4EAD12D1149A1E
:1056800004F00F032409D35C05F8013D44EA0674D5
:10569000360954EA0603F3D14EAB5B1BDDF80CA0D0
:1056A000079392E504F00703E40844EA4674F60819
:1056B000303354EA06012A4605F8013DF2D1039938
:1056C000C80700F14C824EAB5B1B8A4607937CE512
:1056D000FFFFEF7FDCF00008E0F00008ECF00008CE
:1056E000652F40F3D780DDE9100100220023FBF78E
:1056F000ABF9002800F0B481239BBC4AC8F8002015
:10570000013301340122072B24942393C8F8042089
:1057100000F3848508F108081C9B0E9A934280F2DE
:10572000CD82129B139A1C44C8E90023239B249426
:105730000133072B239300F3E98308F108080E9B3C
:105740005D1E002D7FF730AE102D239B41F3478166
:10575000A74F0A97224610261AEE104A05E008F1D4
:105760000808103D102D40F3678501331032072BD8
:10577000C8E90076CDE92332F1DD22AA2146484668
:1057800005F00AFB00287FF492ADDDE923320DF12C
:105790009408E6E7069B039A9E1A002E7FF7EBAD6E
:1057A000102E239B41F34F8091490B9522461AEE10
:1057B000105A0A910C4604E0103E102E08F1080819
:1057C00019DD013310321021072BCDE92332C8F83F
:1057D0000040C8F80410EFDD22AA294648460DF122
:1057E000940805F0D9FA00287FF461AD103E102E20
:1057F000DDE92332E5DC0B9D144601330A9AC8F833
:1058000000203444072BCDE92334C8F8046000F3AA
:105810002F85049B079A9E1A002E08F108087FF72F
:10582000B0AD102E239B40F3C48571480A904246C8
:1058300021461AEE108A044604E0103E102E02F1B2
:10584000080216DD013310311020072BCDE923317A
:1058500014605060F1DD22AA4146484605F09CFAEA
:1058600000287FF424AD103E102EDDE9233125AA57
:10587000E8DC90460C4601330A9AC8F8002034440C
:10588000072BCDE92334C8F8046000F3CF8108F179
:10589000080876E50E9B012B40F37C81239EC8F817
:1058A0000050013601340123072E24942396C8F8B2
:1058B000043000F3E78108F10808129B139A0136BF
:1058C0001C44072EC8E90023CDE9236400F3E881D6
:1058D00008F10808DDE9100100220023FBF7B4F805
:1058E000002840F076810E9B0136013B01351C44B7
:1058F000072EC8F800502396C8F80430249400F30B
:105900005A8108F10808169BC8F8043001361C4477
:10591000072E1EABCDE92364C8F800307FF742ADF7
:105920001AEE101A22AA484605F036FA00287FF42B
:10593000BEAC249C0DF1940836E5102EDDE923322F
:1059400022DD199510241AEE105A04E0103E102E94
:1059500008F1080817DD013326491032072BC8E982
:105960000014CDE92332F1DD22AA294648460DF183
:10597000940805F011FA00287FF499AC103E102E1F
:10598000DDE92332E7DC199DC8F804600133B4185F
:10599000072B184AC8F80020CDE9233400F3E1832F
:1059A0009DF86B3008F10808BBE41AEE101A22AA21
:1059B000484605F0F1F900287FF479AC249C0DF1FC
:1059C0009408C1E41AEE101A22AA484605F0E4F938
:1059D00000287FF46CAC249C0DF19408C7E4102DD2
:1059E000239B26DD1AEE107A10260AE01CF100082F
:1059F00030F1000820F10008103D102D08F10808D2
:105A000017DD0133C24A1034072BC8E90026CDE95F
:105A10002334F1DD22AA394648460DF1940805F0F9
:105A2000BBF900287FF443AC103D102DDDE9233491
:105A3000E7DC0133B64AC8F804502C44072BCDE903
:105A40002334C8F800207FF7B8AC1AEE101A22AA47
:105A5000484605F0A1F900287FF429AC249CACE469
:105A60001C9A002A40F39683DDE90D739F42A8BF7C
:105A70001F46002F0BDD239B01333C44072BC8E955
:105A800000572494239300F35C8508F108080D9EC9
:105A9000002FA8BFF61B002E00F353820D9B1AF4B3
:105AA000806F2B44079340F083821C9B0E9A934295
:105AB00003DB1AF0010F00F0B884129A1399144412
:105AC000C8E90012239A24940132072A239200F392
:105AD000768508F108080E9A0799AE18761AD51A35
:105AE000AE42A8BF2E46002E0DDD239BC8F8001045
:105AF00001333444072BC8F804602494239300F343
:105B00009D8508F10808002EA8BFAD1B002D7FF76A
