:020000040800F2
:1000000000000220A17C0008651C0008671C000895
:10001000691C00086B1C00086D1C00080000000033
:100020000000000000000000000000006F1C00083D
:10003000711C000800000000731C0008751C0008FB
:10004000F17C0008F17C0008F17C0008F17C0008DC
:10005000F17C0008F17C0008F17C0008F17C0008CC
:10006000F17C0008F17C0008F17C0008F17C0008BC
:100070007D1C0008F17C0008F17C0008F17C000880
:100080008D1C00089D1C0008F17C0008F17C000814
:10009000F17C0008F17C0008F17C0008F17C00088C
:1000A000AD1C0008F17C0008F17C0008F17C000820
:1000B000F17C0008F17C0008F17C0008F17C00086C
:1000C000F17C0008F17C0008F17C0008F17C00085C
:1000D000F17C0008F17C0008F17C0008BD1C0008E0
:1000E000F17C0008F17C0008F17C0008F17C00083C
:1000F000F17C0008F17C0008F17C0008F17C00082C
:10010000F17C0008F17C0008F17C0008F17C00081B
:10011000F17C0008F17C0008CD1C0008F17C00088F
:10012000DD1C0008F17C0008F17C0008F17C00086F
:10013000F17C0008F17C0008F17C0008F17C0008EB
:10014000F17C0008F17C0008F17C0008F17C0008DB
:10015000F17C0008F17C0008F17C0008F17C0008CB
:10016000F17C0008F17C0008F17C0008F17C0008BB
:10017000F17C0008F17C0008F17C00080000000020
:08018000F17C0008F17C00088D
:1001C00010B5054C237833B9044B13B10448AFF391
:1001D00000800123237010BDD00900200000000022
:1001E000CC03010808B5034B1BB103490348AFF327
:1001F000008008BD00000000D4090020CC030108E5
:1002000081F0004102E000BF83F0004330B54FEAC7
:1002100041044FEA430594EA050F08BF90EA020F34
:100220001FBF54EA000C55EA020C7FEA645C7FEAC7
:10023000655C00F0E2804FEA5454D4EB5555B8BFEA
:100240006D420CDD2C4480EA020281EA030382EA5B
:10025000000083EA010180EA020281EA0303362DED
:1002600088BF30BD11F0004F4FEA01314FF4801CC0
:100270004CEA113102D0404261EB410113F0004FD2
:100280004FEA03334CEA133302D0524263EB430389
:1002900094EA050F00F0A780A4F10104D5F1200E27
:1002A0000DDB02FA0EFC22FA05F2801841F1000182
:1002B00003FA0EF2801843FA05F359410EE0A5F156
:1002C00020050EF1200E012A03FA0EFC28BF4CF087
:1002D000020C43FA05F3C01851EBE37101F000453D
:1002E00007D54FF0000EDCF1000C7EEB00006EEB4A
:1002F0000101B1F5801F1BD3B1F5001F0CD34908D4
:100300005FEA30004FEA3C0C04F101044FEA44522A
:1003100012F5800F80F09A80BCF1004F08BF5FEAB1
:10032000500C50F1000041EB045141EA050130BD91
:100330005FEA4C0C404141EB0101013C28BFB1F5A3
:10034000801FE9D291F0000F04BF01460020B1FAEE
:1003500081F308BF2033A3F10B03B3F120020CDAC1
:100360000C3208DD02F1140CC2F10C0201FA0CF09F
:1003700021FA02F10CE002F11402D8BFC2F1200C04
:1003800001FA02F120FA0CFCDCBF41EA0C019040BA
:10039000E41AA2BF01EB0451294330BD6FEA040403
:1003A0001F3C1CDA0C340EDC04F11404C4F12002EE
:1003B00020FA04F001FA02F340EA030021FA04F300
:1003C00045EA030130BDC4F10C04C4F1200220FA57
:1003D00002F001FA04F340EA0300294630BD21FA95
:1003E00004F0294630BD94F0000F83F4801306BF5B
:1003F00081F480110134013D4EE77FEA645C18BF4F
:100400007FEA655C29D094EA050F08BF90EA020FE5
:1004100005D054EA000C04BF1946104630BD91EADD
:10042000030F1EBF0021002030BD5FEA545C05D1E0
:100430004000494128BF41F0004130BD14F580041F
:100440003CBF01F5801130BD01F0004545F0FE4193
:1004500041F470014FF0000030BD7FEA645C1ABFC8
:10046000194610467FEA655C1CBF0B46024650EAFF
:10047000013406BF52EA033591EA030F41F400212B
:1004800030BD00BF90F0000F04BF0021704730B5B1
:100490004FF4806404F132044FF000054FF0000186
:1004A00050E700BF90F0000F04BF0021704730B547
:1004B0004FF4806404F1320410F0004548BF40421C
:1004C0004FF000013EE700BF42004FEAE2014FEA71
:1004D00031014FEA02701FBF12F07F4393F07F4F4C
:1004E00081F06051704732F07F4208BF704793F04F
:1004F0007F4F04BF41F40021704730B54FF4607462
:1005000001F0004521F000411CE700BF50EA010264
:1005100008BF704730B54FF000050AE050EA01020D
:1005200008BF704730B511F0004502D5404261EB7D
:1005300041014FF4806404F132045FEA915C3FF4BE
:10054000D8AE4FF003025FEADC0C18BF03325FEA5B
:10055000DC0C18BF033202EBDC02C2F1200300FA0C
:1005600003FC20FA02F001FA03FE40EA0E0021FA31
:1005700002F11444BDE600BF70B54FF0FF0C4CF41F
:10058000E06C1CEA11541DBF1CEA135594EA0C0FD1
:1005900095EA0C0F00F0DEF82C4481EA030621EA0C
:1005A0004C5123EA4C5350EA013518BF52EA033547
:1005B00041F4801143F4801338D0A0FB02CE4FF0F9
:1005C0000005E1FB02E506F00042E0FB03E54FF029
:1005D0000006E1FB03569CF0000F18BF4EF0010E21
:1005E000A4F1FF04B6F5007F64F5407404D25FEA1D
:1005F0004E0E6D4146EB060642EAC62141EA5551D0
:100600004FEAC52040EA5E504FEACE2EB4F1FD0C11
:1006100088BFBCF5E06F1ED8BEF1004F08BF5FEA8F
:10062000500E50F1000041EB045170BD06F0004641
:1006300046EA010140EA020081EA0301B4EB5C04EE
:10064000C2BFD4EB0C0541EA045170BD41F48011E6
:100650004FF0000E013C00F3AB8014F1360FDEBF0B
:10066000002001F0004170BDC4F10004203C35DAE7
:100670000C341BDC04F11404C4F1200500FA05F36A
:1006800020FA04F001FA05F240EA020001F000420B
:1006900021F0004110EBD37021FA04F642EB060181
:1006A0005EEA430E08BF20EAD37070BDC4F10C04AB
:1006B000C4F1200500FA04F320FA05F001FA04F26F
:1006C00040EA020001F0004110EBD37041F100015B
:1006D0005EEA430E08BF20EAD37070BDC4F1200566
:1006E00000FA05F24EEA020E20FA04F301FA05F2CE
:1006F00043EA020321FA04F001F0004121FA04F276
:1007000020EA020000EBD3705EEA430E08BF20EA45
:10071000D37070BD94F0000F0FD101F0004640007F
:1007200041EB010111F4801F08BF013CF7D041EA01
:10073000060195F0000F18BF704703F00046520005
:1007400043EB030313F4801F08BF013DF7D043EAD6
:100750000603704794EA0C0F0CEA135518BF95EA8C
:100760000C0F0CD050EA410618BF52EA4306D1D113
:1007700081EA030101F000414FF0000070BD50EA32
:10078000410606BF1046194652EA430619D094EABC
:100790000C0F02D150EA013613D195EA0C0F05D1A6
:1007A00052EA03361CBF104619460AD181EA0301FA
:1007B00001F0004141F0FE4141F470014FF00000B2
:1007C00070BD41F0FE4141F4780170BD70B54FF04D
:1007D000FF0C4CF4E06C1CEA11541DBF1CEA1355CD
:1007E00094EA0C0F95EA0C0F00F0A7F8A4EB0504AF
:1007F00081EA030E52EA03354FEA013100F08880A6
:100800004FEA03334FF0805545EA131343EA12636E
:100810004FEA022245EA111545EA10654FEA002623
:100820000EF000419D4208BF964244F1FD0404F5DC
:10083000407402D25B084FEA3202B61A65EB030538
:100840005B084FEA32024FF480104FF4002CB6EBF5
:10085000020E75EB030E22BFB61A754640EA0C0075
:100860005B084FEA3202B6EB020E75EB030E22BFB5
:10087000B61A754640EA5C005B084FEA3202B6EBF6
:10088000020E75EB030E22BFB61A754640EA9C00B5
:100890005B084FEA3202B6EB020E75EB030E22BF85
:1008A000B61A754640EADC0055EA060E18D04FEA43
:1008B000051545EA16754FEA06164FEAC30343EAE3
:1008C00052734FEAC2025FEA1C1CC0D111F4801FB0
:1008D0000BD141EA00014FF000004FF0004CB6E7A9
:1008E00011F4801F04BF01430020B4F1FD0C88BF48
:1008F000BCF5E06F3FF6AFAEB5EB030C04BFB6EB53
:10090000020C5FEA500C50F1000041EB045170BD45
:100910000EF0004E4EEA113114EB5C04C2BFD4EB72
:100920000C0541EA045170BD41F480114FF0000EF6
:10093000013C90E645EA060E8DE60CEA135594EA72
:100940000C0F08BF95EA0C0F3FF43BAF94EA0C0F75
:100950000AD150EA01347FF434AF95EA0C0F7FF4EA
:1009600025AF104619462CE795EA0C0F06D152EA3E
:1009700003353FF4FDAE1046194622E750EA410622
:1009800018BF52EA43067FF4C5AE50EA41047FF433
:100990000DAF52EA43057FF4EBAE12E74FF0FF3C98
:1009A00006E000BF4FF0010C02E000BF4FF0010C69
:1009B0004DF804CD4FEA410C7FEA6C5C4FEA430CE2
:1009C00018BF7FEA6C5C1BD001B050EA410C0CBF31
:1009D00052EA430C91EA030F02BF90EA020F002093
:1009E000704710F1000F91EA030F58BF994208BFFA
:1009F00090422CBFD8176FEAE37040F001007047B7
:100A00004FEA410C7FEA6C5C02D150EA013C07D10D
:100A10004FEA430C7FEA6C5CD6D152EA033CD3D058
:100A20005DF8040B704700BF8446104662468C4652
:100A30001946634600E000BF01B5FFF7B7FF002885
:100A400048BF10F1000F01BD4DF808EDFFF7F4FFAE
:100A50000CBF012000205DF808FB00BF4DF808ED39
:100A6000FFF7EAFF34BF012000205DF808FB00BF5C
:100A70004DF808EDFFF7E0FF94BF012000205DF87E
:100A800008FB00BF4DF808EDFFF7CEFF94BF012033
:100A900000205DF808FB00BF4DF808EDFFF7C4FF2C
:100AA00034BF012000205DF808FB00BF4A0011D2CE
:100AB00012F5001211D20DD56FF47873B3EB6252B8
:100AC0000ED44FEAC12343F0004343EA505323FAC4
:100AD00002F070474FF00000704750EA013002D139
:100AE0004FF0FF3070474FF0000070474FEA41026F
:100AF000B2F1E04324BFB3F5001CDCF1FE5C0DD97C
:100B000001F0004C4FEAC0024CEA5070B2F1004FC5
:100B100040EB830008BF20F00100704711F0804FC8
:100B200021D113F13872BCBF01F00040704741F48D
:100B300080114FEA5252C2F11802C2F1200C10FA91
:100B40000CF320FA02F018BF40F001004FEAC12375
:100B50004FEAD32303FA0CFC40EA0C0023FA02F319
:100B60004FEA4303CCE77FEA625307D150EA0133EF
:100B70001EBF4FF0FE4040F44000704701F00040BF
:100B800040F0FE4040F40000704700BF80F000409D
:100B900002E000BF81F0004142001FBF5FEA410355
:100BA00092EA030F7FEA226C7FEA236C6AD04FEA55
:100BB0001262D2EB1363C1BFD2184140484041409A
:100BC000B8BF5B42192B88BF704710F0004F40F44C
:100BD000000020F07F4018BF404211F0004F41F468
:100BE000000121F07F4118BF494292EA030F3FD034
:100BF000A2F1010241FA03FC10EB0C00C3F1200347
:100C000001FA03F100F0004302D5494260EB4000D5
:100C1000B0F5000F13D3B0F1807F06D340084FEA40
:100C2000310102F10102FE2A51D2B1F1004F40EB35
:100C3000C25008BF20F0010040EA0300704749009D
:100C400040EB0000013A28BFB0F5000FEDD2B0FA3A
:100C500080FCACF1080CB2EB0C0200FA0CF0AABF5D
:100C600000EBC25052421843BCBFD04018437047FB
:100C700092F0000F81F4000106BF80F40000013201
:100C8000013BB5E74FEA41037FEA226C18BF7FEAD8
:100C9000236C21D092EA030F04D092F0000F08BF1A
:100CA0000846704790EA010F1CBF0020704712F001
:100CB0007F4F04D1400028BF40F00040704712F140
:100CC00000723CBF00F50000704700F0004343F0A5
:100CD000FE4040F4000070477FEA226216BF0846DB
:100CE0007FEA23630146420206BF5FEA412390EA9E
:100CF000010F40F4800070474FF0000304E000BF94
:100D000010F0004348BF40425FEA000C08BF704744
:100D100043F0964301464FF000001CE050EA010208
:100D200008BF70474FF000030AE000BF50EA01021D
:100D300008BF704711F0004302D5404261EB41010A
:100D40005FEA010C02BF84460146002043F0B6432F
:100D500008BFA3F18053A3F50003BCFA8CF2083A54
:100D6000A3EBC25310DB01FA02FC634400FA02FC5D
:100D7000C2F12002BCF1004F20FA02F243EB020064
:100D800008BF20F00100704702F1200201FA02FCC6
:100D9000C2F1200250EA4C0021FA02F243EB0200B9
:100DA00008BF20EADC70704753B94AB9002908BF70
:100DB00000281CBF4FF0FF314FF0FF3000F074B936
:100DC000ADF1080C6DE904CE00F006F8DDF804E0A2
:100DD000DDE9022304B070472DE9F047089D044681
:100DE0008E46002B4DD18A42944669D9B2FA82F2DE
:100DF00052B101FA02F3C2F1200120FA01F10CFA1A
:100E000002FC41EA030E94404FEA1C48210CBEFB51
:100E1000F8F61FFA8CF708FB16E341EA034306FBDA
:100E200007F199420AD91CEB030306F1FF3080F069
:100E30001F81994240F21C81023E63445B1AA4B2B6
:100E4000B3FBF8F008FB103344EA034400FB07F758
:100E5000A7420AD91CEB040400F1FF3380F00A8199
:100E6000A74240F207816444023840EA0640E41B8E
:100E700000261DB1D4400023C5E900433146BDE83A
:100E8000F0878B4209D9002D00F0EF800026C5E9DC
:100E9000000130463146BDE8F087B3FA83F6002EF4
:100EA0004AD18B4202D3824200F2F980841A61EB6C
:100EB000030301209E46002DE0D0C5E9004EDDE78A
:100EC00002B9FFDEB2FA82F2002A40F09280A1EB72
:100ED0000C014FEA1C471FFA8CFE0126200CB1FBC7
:100EE000F7F307FB131140EA01410EFB03F08842C0
:100EF00008D91CEB010103F1FF3802D2884200F24D
:100F0000CB804346091AA4B2B1FBF7F007FB1011DE
:100F100044EA01440EFB00FEA64508D91CEB04047C
:100F200000F1FF3102D2A64500F2BB800846A4EBD7
:100F30000E0440EA03409CE7C6F12007B34022FAC2
:100F400007FC4CEA030C20FA07F401FA06F31C43F1
:100F5000F9404FEA1C4900FA06F3B1FBF9F8200CFE
:100F60001FFA8CFE09FB181140EA014108FB0EF044
:100F7000884202FA06F20BD91CEB010108F1FF3A94
:100F800080F08880884240F28580A8F102086144A0
:100F9000091AA4B2B1FBF9F009FB101144EA0141AE
:100FA00000FB0EFE8E4508D91CEB010100F1FF3459
:100FB0006CD28E456AD90238614440EA0840A0FBF1
:100FC0000294A1EB0E01A142C846A64656D353D0C7
:100FD0005DB1B3EB080261EB0E0101FA07F722FAEB
:100FE00006F3F1401F43C5E9007100263146BDE814
:100FF000F087C2F12003D8400CFA02FC21FA03F377
:10100000914001434FEA1C471FFA8CFEB3FBF7F0F7
:1010100007FB10360B0C43EA064300FB0EF69E421C
:1010200004FA02F408D91CEB030300F1FF382FD2B5
:101030009E422DD9023863449B1B89B2B3FBF7F65D
:1010400007FB163341EA034106FB0EF38B4208D936
:101050001CEB010106F1FF3816D28B4214D9023E77
:101060006144C91A46EA004638E72E46284605E795
:101070000646E3E61846F8E64B45A9D2B9EB020866
:1010800064EB0C0E0138A3E74646EAE7204694E7F6
:101090004046D1E7D0467BE7023B614432E7304629
:1010A00009E76444023842E7704700BF00000000CF
:1010B0000000000000000000000000000000000030
:1010C00090F800F06DE9024520F007016FF0000C88
:1010D00010F0070491F820F040F049804FF0000430
:1010E0006FF00700D1E9002391F840F000F108000B
:1010F00082FA4CF2A4FA8CF283FA4CF3A2FA8CF343
:101100004BBBD1E9022382FA4CF200F10800A4FAA9
:101110008CF283FA4CF3A2FA8CF3E3B9D1E90423FD
:1011200082FA4CF200F10800A4FA8CF283FA4CF334
:10113000A2FA8CF37BB9D1E9062301F1200182FAEE
:101140004CF200F10800A4FA8CF283FA4CF3A2FAF4
:101150008CF3002BC6D0002A04BF04301A4612BA02
:10116000B2FA82F2FDE8024500EBD2007047D1E905
:10117000002304F00305C4F100004FEAC50514F094
:10118000040F91F840F00CFA05F562EA05021CBF65
:1011900063EA050362464FF00004A9E7000000007F
:1011A00001F0FF01102A2BDB10F0070F08D010F818
:1011B000013B013A8B422DD010F0070F42B3F6D11C
:1011C000F0B441EA012141EA014122F007047FF035
:1011D00000070023F0E80256083C85EA010586EA8C
:1011E000010685FA47F5A3FA87F586FA47F6A5FAC8
:1011F00087F68EB9EED1F0BC01F0FF0102F00702D4
:1012000032B110F8013B013A83EA010313B1F8D17E
:101210000020704701387047002D06BF354603385F
:10122000073815F0010F07D1013015F4807F02BF98
:10123000013015F4C03F0130F0BC0138704700BFE9
:10124000844641EA000313F003036DD1403A41D3D1
:1012500051F8043B40F8043B51F8043B40F8043B90
:1012600051F8043B40F8043B51F8043B40F8043B80
:1012700051F8043B40F8043B51F8043B40F8043B70
:1012800051F8043B40F8043B51F8043B40F8043B60
:1012900051F8043B40F8043B51F8043B40F8043B50
:1012A00051F8043B40F8043B51F8043B40F8043B40
:1012B00051F8043B40F8043B51F8043B40F8043B30
:1012C00051F8043B40F8043B51F8043B40F8043B20
:1012D000403ABDD2303211D351F8043B40F8043BC0
:1012E00051F8043B40F8043B51F8043B40F8043B00
:1012F00051F8043B40F8043B103AEDD20C3205D3D0
:1013000051F8043B40F8043B043AF9D2043208D0C7
:10131000D2071CBF11F8013B00F8013B01D30B8839
:1013200003806046704700BF082A13D38B078DD017
:1013300010F003038AD0C3F10403D21ADB071CBFE9
:1013400011F8013B00F8013B80D331F8023B20F853
:10135000023B7BE7043AD9D3013A11F8013B00F88C
:10136000013BF9D20B7803704B7843708B78837014
:10137000604670474FEA410C7FEA6C5C02D150EA4C
:10138000013C0AD14FEA430C7FEA6C5C02D152EA7D
:10139000033C02D14FF0000070474FF0010070474E
:1013A0004FEA410212F5001215D211D56FF478738D
:1013B000B3EB625212D94FEAC12343F0004343EA30
:1013C000505311F0004F23FA02F018BF404270470B
:1013D0004FF00000704750EA013005D111F0004095
:1013E00008BF6FF0004070474FF00000704700BF2B
:1013F00000B585B000230093019302930393164830
:10140000164A02604FF480324260836003610376C3
:1014100080F820304FF08052C2624FF0C06282628A
:10142000C3600123C36180F83030436100F0E8FFFE
:1014300060B9012300930193002302936946064893
:1014400001F060F928B905B05DF804FB00F03CFA42
:10145000EFE700F039FAF6E7EC0900200020014040
:1014600030B589B000230393049305930693079343
:10147000026803F1804303F590339A4201D009B02A
:1014800030BD04460025019503F58C335A6C42F4B7
:1014900080725A645A6C02F480720192019A029529
:1014A0001A6B42F001021A631B6B03F001030293F3
:1014B000029B022303930323049303A9114801F021
:1014C0004BFE1148114B036045608560C5604FF4C9
:1014D000806303614FF4805343614FF48043836121
:1014E0004FF48073C3614FF480330362456201F0AF
:1014F00029FC18B9044BA3639C63C0E700F0E4F92E
:10150000F8E700BF00000240340A002010640240E7
:1015100000B583B00023009301931148114B036081
:1015200001F038FA90B90C230093022301930022B2
:1015300069460B4801F03EFB58B91022694608483D
:1015400001F038FB40B903B05DF804FB00F0BCF9D2
:10155000E9E700F0B9F9F0E700F0B6F9F3E700BF0A
:10156000940A00200074004030B589B00023039332
:1015700004930593069307930268394B9A4201D06E
:1015800009B030BD04460025019503F5E2331A6C1D
:1015900042F000521A641A6C02F000520192019A51
:1015A00002951A6B42F001021A631B6B03F00103F0
:1015B0000293029B302303930323049303A9294836
:1015C00001F0CAFD2848294B03604FF06063436077
:1015D00040238360C5604FF4806303614FF4006370
:1015E00043614FF4005383614FF48073C3614FF440
:1015F00080330362456201F0A5FB58BB1A4BA36020
:101600009C631B481B4B03604FF0606343604023A7
:1016100083600023C3604FF4806202614FF4006274
:1016200042614FF4005282614FF48072C2614FF404
:1016300080320262436201F085FB70B90C4BE360BB
:101640009C6300221146362001F03AF9362001F061
:101650006FF995E700F038F9D0E700F035F9EDE7DC
:101660000074004000000240A80A00208860024088
:10167000080B0020A060024010B582B00024009446
:101680001A4B1A6B42F400121A631A6B02F400121E
:101690000092009A01941A6B42F480021A631B6B49
:1016A00003F480030193019B224621460C2001F0A4
:1016B00007F90C2001F03CF922462146102001F0E8
:1016C000FFF8102001F034F922462146112001F0E4
:1016D000F7F8112001F02CF922462146382001F0BC
:1016E000EFF8382001F024F902B010BD00380240B4
:1016F000F0B587B0002301930293039304930593FD
:10170000164B1B680BB107B0F0BD144B01221A60D9
:1017100000260096124B9A6B42F001029A639B6B73
:1017200003F001030093009B4FF68073019302279F
:101730000297032504950C24059401A9094801F09A
:101740000BFD4EF2B3730193029703960495059433
:1017500001A9054801F000FDD5E700BF680B002096
:101760000038024000100240000C024010B58EB05C
:1017700000230793089309930A930B930C930D93FB
:1017800000930193029303930493059306931948DE
:101790004FF02042026002F5827242608360C360B3
:1017A0000361102242618361C361036243624FF4AB
:1017B00080518162C3624FF480410163436383635C
:1017C00043640F23079308933C2109910B92112145
:1017D0000C9109240094019308230293049205912B
:1017E0006A4607A902F0F4F808B90EB010BD00F07F
:1017F0006BF8FAE76C0B002008B5FFF779FF08BD1E
:10180000F0B58BB0002405940694079408940994CD
:101810000094294B1A6B42F010021A631A6B02F003
:1018200010020092009A01941A6B42F080021A632F
:101830001A6B02F080020192019A02941A6B42F034
:1018400001021A631A6B02F001020292029A0394D7
:101850001A6B42F002021A631A6B02F00202039240
:10186000039A04941A6B42F008021A631B6B03F08C
:1018700008030493049B114E22460221304601F0D6
:1018800064FD1823059306940125079505A90C48C6
:1018900001F062FC059506940227079705A90948FF
:1018A00001F05AFC059706950794089405A930465F
:1018B00001F052FC0BB0F0BD0038024000040240C1
:1018C000001002400000024072B6FEE700B595B07D
:1018D0003022002108A807F05BFB00230393049348
:1018E0000593069307930193204A116C41F08051B0
:1018F0001164126C02F080520192019A02931C4B07
:101900001A6842F480421A601B6803F48043029311
:10191000029B012308934FF48033099302230E9313
:101920004FF480020F9204221092A8221192129377
:101930000723139308A801F00FFD98B90F23039311
:1019400002230493002305934FF4A05306934FF40E
:1019500080530793052103A801F064FF20B915B057
:101960005DF804FBFFF7B0FFFFF7AEFF0038024061
:10197000007000400000000070B52DED028B90B0AB
:1019800000F078FCFFF7A2FFFFF73AFF00F08CFBB6
:10199000FFF772FEFFF7BCFD00F024FAFFF728FD09
:1019A00000F0E8F900F09AFBFFF7E0FE00F03CFBE6
:1019B00000F050FAA82006F0FBF88D4806F02EF94A
:1019C00004F09AFD8B4D1026AE7008AB00240894ED
:1019D00009940A94ADF82C400FCB04F099FC04F064
:1019E00029FC48F230432B814BF640432B80EC70AE
:1019F0000CAB0C940D940E94ADF83C400FCB04F05E
:101A000087FC40F2FF7003F0DFFB4CF2186003F03C
:101A100003FC00220023CDE9002340F21A420023F8
:101A20002146754805F0CEFEDFED748A9FED748A7D
:101A30003146F0EE680AB0EE480A032005F0DAFB02
:101A40002146F0EE680AB0EE480A022005F0D2FB0B
:101A500040F21A40002105F093FC4FF47A7006F032
:101A6000D1F8684BD3E90023674806F057F8674A76
:101A700005AB07CA83E80700654A1088623801226F
:101A800003924FF4FC62029201930C2100913346C1
:101A9000602280B205F056F953A3D3E90023CDE9C3
:101AA00000235C4A002300215B4805F06DFF002005
:101AB00004F09AFA022835D0042853D0012813D014
:101AC000564B1B78002BE7D0544B00221A7005F0C0
:101AD000FBF9534B1B78002BDED14A4BD3E9002393
:101AE000494806F01BF8D7E7142006F08BF8454A62
:101AF000136852684B498B4272F1000104D241498C
:101B0000DB1852410B604A603F4C204606F02CF82F
:101B10003C4BD3E90023204606F000F8142006F0E1
:101B200071F8CDE7142006F06DF8364A1368526854
:101B3000B3F5C86F72F1000106D332495B0843EA7E
:101B4000C27352080B604A602F4C204606F00CF816
:101B50002C4BD3E90023204605F0E0FF142006F0CB
:101B600051F8ADE7142006F04DF82D4B1B780BB360
:101B70002B4B00221A70254A05AB07CA83E80700E1
:101B8000234A10886238012203924FF4FC620292C9
:101B900001930C2100911023602280B205F0D2F84D
:101BA000184BD3E90023184805F0B8FF142006F0BD
:101BB00029F885E701241A4B1C701B4A05AB07CA9C
:101BC00083E80700124A1088623803944FF4784281
:101BD000029201930C2100911023602280B205F043
:101BE000B1F8E3E7AFF30080007A030A00000000D9
:101BF000440D0020E00D00200C0C002000404E455C
:101C00000000000010000020EC090020F40301088F
:101C1000D00D002040420F009C0C0020688F002057
:101C2000BC0B0020014006000004010882B0002126
:101C300000910B4B5A6C42F480425A645A6C02F485
:101C400080420092009A01911A6C42F080521A640C
:101C50001B6C03F080530193019B02B0704700BFDF
:101C600000380240FEE7FEE7FEE7FEE7FEE77047CA
:101C70007047704708B500F017FB08BD08B502486B
:101C800001F07CF908BD00BFE40C002008B5024853
:101C900001F074F908BD00BFA80A002008B5024889
:101CA00001F06CF908BD00BF080B002008B5024820
:101CB00002F09AF808BD00BF9C0C002008B502484D
:101CC00003F0C8F808BD00BF880D002008B5024821
:101CD00000F038FF08BD00BF940A002008B5024894
:101CE00001F04CF908BD00BF340A00200120704704
:101CF00008B507F023F9162303604FF0FF3008BD45
:101D000008B54FF0FF31FFF7F3FFFEE708B50346D4
:101D10000B4A126842B10A4A106803446A46934269
:101D200006D8074A136008BD054A06491160F2E764
:101D300007F004F90C2303604FF0FF30F3E700BF16
:101D4000C00B0020C08F00204FF0FF3070474FF4D1
:101D500000534B60002070470120704700207047FF
:101D6000034AD2F8883043F47003C2F888307047D1
:101D700000ED00E000B587B00023029303930493C5
:101D800005930093019316484FF0804202600122B0
:101D90004260836040F29912C2600361836102F085
:101DA00045F998B94FF48053029302A90C4802F008
:101DB00014FB70B92023009300230193694608485F
:101DC00002F03EFD40B907B05DF804FBFFF77CFD73
:101DD000E8E7FFF779FDEDE7FFF776FDF3E700BFF2
:101DE000C40B002000B587B0002302930393049333
:101DF0000593009301931548154A0260A72242609B
:101E000083600922C26003614361836102F00EF9BD
:101E100098B94FF48053029302A90C4802F0DDFAFE
:101E200070B920230093002301936946074802F00C
:101E300007FD40B907B05DF804FBFFF745FDE8E793
:101E4000FFF742FDEDE7FFF73FFDF3E7540C0020FD
:101E50000004014000B589B0002304930593069364
:101E6000079300930193029303931B481B4A02605C
:101E7000A722426083604FF6FF72C2600361802335
:101E8000836102F0D3F8D0B94FF48053049304A9CE
:101E9000114802F0A2FAA8B90F4802F01FF9A0B940
:101EA00000220092012301930292082303936946C2
:101EB000094802F023FA58B909B05DF804FBFFF7AE
:101EC00003FDE1E7FFF700FDE6E7FFF7FDFCE7E7CD
:101ED000FFF7FAFCF0E700BF9C0C00200040014037
:101EE00010B58AB0002305930693079308930993CE
:101EF0000368B3F1804F07D0254A934211D0254A99
:101F000093421BD00AB010BD00230193224B1A6CE0
:101F100042F001021A641B6C03F001030193019B60
:101F2000F0E7002302931C4B5A6C42F002025A6401
:101F30005B6C03F002030293029BE3E7002403942B
:101F4000154B5A6C42F480325A645A6C02F4803257
:101F50000392039A04941A6B42F010021A631B6BEB
:101F600003F010030493049B20230593022306939C
:101F700007930323099305A9084801F0EDF82246C9
:101F80002146182000F09CFC182000F0D1FCB9E795
:101F900000040140004001400038024000100240AF
:101FA0000268094B9A4200D0704782B00023019327
:101FB000064B1A6C42F002021A641B6C03F0020317
:101FC0000193019B02B070470004004000380240BA
:101FD00000B587B000230193029303930493059304
:101FE00002680E4B9A4202D007B05DF804FB002352
:101FF00000930B4B1A6B42F001021A631B6B03F048
:1020000001030093009B4023019302230293059355
:1020100001A9044801F0A0F8E6E700BF0004004071
:10202000003802400000024000B58BB00023089346
:1020300009930193029303930493059306930793E3
:102040001748184A0260436083604FF6FF72C2600F
:102050000361836102F016F8C0B900230893099365
:1020600008A90F4802F0ECFB98B960230193002205
:1020700002920392059201A9094802F093F858B917
:102080000748FFF7A5FF0BB05DF804FBFFF71CFC4A
:10209000E3E7FFF719FCE8E7FFF716FCF0E700BFFE
:1020A0000C0C00200004004008B50A480A4B0360ED
:1020B0004FF4E133436000238360C36003610C226B
:1020C00042618361C36102F02DFD00B908BDFFF7D5
:1020D000FBFBFBE7440D00200010014008B50A4857
:1020E0000A4B03604FF4E133436000238360C36015
:1020F00003610C2242618361C36102F013FD00B9E8
:1021000008BDFFF7E1FBFBE7880D00200048004019
:1021100030B58BB00023059306930793089309937A
:1021200003683A4A934205D00446394A934225D07F
:102130000BB030BD00210191364B5A6C42F01002B9
:102140005A645A6C02F010020192019A02911A6BC1
:1021500042F001021A631B6B03F001030293029B1E
:102160004FF4C063059302230693032308930723C8
:10217000099305A9284800F0EFFFD9E7002503954A
:10218000244B1A6C42F480221A641A6C02F48022E6
:102190000392039A04951A6B42F002021A631B6BB6
:1021A00003F002030493049B4FF44063059302235E
:1021B0000693032308930723099305A9174800F002
:1021C000CBFF1748174B03604FF0006343608560F7
:1021D000C5604FF480630361456185614FF480738E
:1021E000C3610562456200F0ADFD58B90C4BA363B5
:1021F0009C6300221146272000F062FB272000F09C
:1022000097FB95E7FFF760FBF0E700BF0010014088
:102210000048004000380240000002400004024034
:10222000E40C00202860024010B504460E4B1878DC
:102230004FF47A73B3FBF0F30C4A1068B0FBF3F081
:1022400000F084FB68B90F2C01D901200AE00022BC
:1022500021464FF0FF3000F033FB054B1C6000209F
:1022600000E0012010BD00BF04000020000000209D
:102270000800002008B50B4B1A6842F400721A607F
:102280001A6842F480621A601A6842F480721A6016
:10229000032000F003FB0F20FFF7C6FFFFF7C6FC8B
:1022A000002008BD003C0240034A1168034B1B7824
:1022B0000B441360704700BFCC0D002004000020C9
:1022C000014B1868704700BFCC0D00204A4B5A687C
:1022D00022F440325A605A6841680A435A600268E0
:1022E000536823F48073536002685368016943EABA
:1022F000012353600268536823F0407353600268FF
:10230000536881680B4353600268936823F4006349
:10231000936002689368C1680B439360826A374B8D
:102320009A4257D00268936823F070639360026802
:102330009368816A0B4393600268936823F040536B
:10234000936002689368C16A0B4393600268936864
:1023500023F00203936002689368017E43EA41031D
:10236000936090F82030002B3FD00268536843F40C
:10237000006353600268536823F46043536001684C
:102380004B68426A013A43EA42334B600268D36ABF
:1023900023F47003D3620168CB6AC269013A43EA4D
:1023A0000253CB620268936823F40073936002685F
:1023B000936890F8301043EA412393600268936871
:1023C00023F48063936002689368416943EA812340
:1023D000936070470268936823F0706393600268AB
:1023E000936823F040539360B0E70268536823F486
:1023F00000635360CAE700BF002301400100000FE3
:1024000038B310B50446036C43B1236C13F0100FBE
:102410000BD00120002384F83C3010BDFFF720F8DA
:102420000023636484F83C30EFE7236C23F4885383
:1024300023F0020343F0020323642046FFF746FF24
:1024400000206064236C23F0030343F00103236442
:10245000E0E701207047000010B582B0134600226B
:10246000019290F83C20012A00F0AE80044601223F
:1024700080F83C200268906810F0010F13D190683A
:1024800040F001009060534A1068534AA2FB0020BC
:10249000800C00EB4000019002E0019801380190AF
:1024A00001980028F9D12268906810F4807F03D049
:1024B000906820F4807090602268906810F0010F9E
:1024C00077D0206C20F4E06020F0010040F48070B0
:1024D0002064526812F4806F05D0226C22F44052BE
:1024E00042F480522264226C12F4805F36D0626C17
:1024F00022F006026264002284F83C20A26B374876
:10250000D063A26B36481064A26B3648D064226850
:102510006FF0220010602068426842F080624260E2
:102520002068826842F48072826020680A4600F166
:102530004C01A06B00F090FC2B4B5B6813F01F0F5D
:1025400027D12368294A934211D002F58072934221
:1025500007D0274A934214D0002033E0002262645F
:10256000C9E702F50072526812F01F0FF1D19A68A4
:1025700012F0405F2AD19A6842F080429A600020AF
:1025800020E002F58072526812F0100FEFD00020A8
:1025900018E02368154A934201D0002012E09A689F
:1025A00012F0405F14D19A6842F080429A60002095
:1025B00008E0236C43F010032364636C43F00103D1
:1025C0006364002002B010BD0220FBE70020F9E7A1
:1025D0000020F7E70000002083DE1B43912600085F
:1025E0006F2600087B2600080023014000200140E0
:1025F0000022014090F83C30012B35D010B5044644
:10260000012380F83C300268936823F00103936053
:1026100003689A6812F0010F21D19A6822F480723F
:102620009A60806B90F83530DBB2022B0ED0002020
:102630002268536823F080635360236C23F488532B
:1026400023F0010343F00103236409E000F039FCA7
:102650000028EDD0236C43F040032364E8E700201A
:10266000002384F83C3010BD02207047704708B545
:10267000806BFFF7FBFF08BD704708B5806B4023F8
:102680000364436C43F004034364FFF7F5FF08BDA4
:1026900008B50346806B026C12F0500F25D1036C15
:1026A00043F40073036403689A6812F0405F19D121
:1026B000027EBAB9DA6A12F4700F03D09A6812F483
:1026C000806F0FD15A6822F020025A60036C23F405
:1026D00080730364036C13F4805F03D1036C43F0D5
:1026E0000103036405F052FA08BD026C12F0100FEA
:1026F00004D1826BD26C18469047F5E7FFF7BCFF18
:10270000F2E7000030B482B00023019390F83C302F
:10271000012B00F0BB80012380F83C300B68092BB3
:1027200041D90468E2689BB203EB43031E3B4FF0C0
:10273000070C0CFA03F322EA0303E3600468E2687F
:102740000B8803EB43031E3B8D6805FA03F3134329
:10275000E3604B68062B3DD80468626B03EB830390
:10276000053B4FF01F0C0CFA03F322EA03036363EB
:102770000468626B4B6803EB8303053BB1F800C050
:102780000CFA03F3134363630268414B9A4251D03E
:1027900002683F4B9A4256D0002380F83C301846DE
:1027A00002B030BC7047046822699BB203EB43035C
:1027B0004FF0070C0CFA03F322EA030323610468C9
:1027C00022690B8803EB43038D6805FA03F3134377
:1027D0002361BEE70C2B16D805682A6B03EB830335
:1027E000233B1F2404FA03F322EA03032B63056847
:1027F0002A6B4B6803EB8303233B0C8804FA03F337
:1028000013432B63C0E70568EA6A03EB8303413B8C
:102810001F2404FA03F322EA0303EB620568EA6A61
:102820004B6803EB8303413B0C8804FA03F3134327
:10283000EB62A9E70B68122BAAD1164A536843F43E
:1028400080035360A4E70B68103B012BA4D8114A06
:10285000536843F4000353600B68102B9CD10E4B5C
:102860001B6802F1467202F52E3202F28332A2FB9D
:1028700003239B0C03EB83035B00019302E0019BAA
:10288000013B0193019B002BF9D185E7022087E7EB
:10289000002001400023014000000020074AD368C7
:1028A00023F4E0631B041B0C000200F4E06003430C
:1028B00043F0BF6343F40033D360704700ED00E0A2
:1028C00000B5194BDB68C3F30223C3F1070CBCF15D
:1028D000040F28BF4FF0040C03F1040EBEF1060FE5
:1028E00018D9033B4FF0FF3E0EFA0CFC21EA0C0115
:1028F00099400EFA03F322EA0303194300280BDB85
:102900000901C9B200F1604000F5614080F8001390
:102910005DF804FB0023E5E700F00F000901C9B2F0
:10292000024B1954F4E700BF00ED00E014ED00E0A5
:10293000002807DB00F01F02400901239340024AF0
:1029400042F82030704700BF00E100E00138B0F1EC
:10295000807F0BD24FF0E0235861054AF02182F8C6
:1029600023100020986107221A61704701207047E8
:1029700000ED00E0042806D04FF0E022136923F0B8
:102980000403136170474FF0E022136943F004031E
:102990001361704770B110B50446037933B1022357
:1029A0002371002020610123237110BD4371FEF7C4
:1029B000DBFDF4E70120704770B504460D46114673
:1029C000049A4079012866D00120607102202071AC
:1029D000002D34D1A068314EC663A068304E066425
:1029E000A068304EC6642668306840F4805030607D
:1029F000042A1ED0082A1FD0C2B12A46002D3CD17D
:102A00002668306840F400503060A06800F024FA76
:102A100000236371002839D12268136805F010057E
:102A2000012101FA05F51D43156070BD22680832C9
:102A3000E4E722680C32E1E722681032DEE7E06862
:102A4000194EC663E068194E0664E068184EC66405
:102A50002668306840F080503060042A07D0082A89
:102A600008D00AB10022C9E722681432C6E72268FA
:102A70001832C3E722681C32C0E72668306840F08D
:102A800000503060E06800F0E7F9C1E7236943F0E7
:102A900004032361C9E70220C7E700BF0D2B00082C
:102AA0001F2B00082B2B0008132C0008232C0008D8
:102AB0002D2C000810B504460368186801F0100EAC
:102AC0004FF4805C0CFA0EFC20EA0C0018602068C1
:102AD0000368012202FA0EF223EA0203036059B9E5
:102AE000A06800F0EEF92268136823F40053136025
:102AF00001232371002010BDE06800F0E2F9226894
:102B0000136823F000531360F2E7704710B5846B2D
:102B10002046FFF7FAFF0123237110BD704708B567
:102B2000806BFFF7FBFF08BD704710B5846B23690E
:102B300043F0040323612046FFF7F6FF01232371CE
:102B400010BD704710B5044603681A6812F4005FA0
:102B500003D05A6B12F4005F09D123681A6812F08F
:102B6000005F03D05A6B12F0005F11D110BD042238
:102B70000271026942F0010202614FF400525A638D
:102B80000268136823F480531360FFF7DAFFE4E769
:102B900004222271226942F0020222614FF00052A7
:102BA0005A632268136823F080531360204600F0B4
:102BB0002FF8DBE74379012B25D010B54FF0010E3C
:102BC00080F805E0022303710468236802F0100214
:102BD00040F6FE7C0CFA02FC23EA0C0C0B684968F8
:102BE0000B43934043EA0C03236004682368C0212D
:102BF00001FA02F223EA0202226080F804E00023D4
:102C00004371184610BD02207047704770477047E7
:102C1000704710B5846B2046FFF7F7FF012323713F
:102C200010BD08B5806BFFF7F1FF08BD10B5846BD0
:102C3000236943F0040323612046FFF7E8FF0123E3
:102C4000237110BD30B405682C6824F480242C60F6
:102C5000046863608368402B05D00368996003684B
:102C6000DA6030BC704703689A600368D960F8E79F
:102C700010B40368D9B210390C4AA2FB0142120900
:102C80000B4CA25CC2655F2909D923F47F7323F042
:102C9000030304338365806D5DF8044B704723F4B0
:102CA0007F7323F003038365F5E700BFABAAAAAAED
:102CB00024040108836A826992B9012B0AD0022B8D
:102CC00002D00BB100207047C36A13F0807F28D177
:102CD00000207047C36AB3F1C07F24D00020704742
:102CE000B2F5005F09D0022B25D9032B25D1C36A89
:102CF00013F0807F23D100207047032B03D8DFE837
:102D000003F01404140A00207047C36A13F0807F94
:102D10000DD100207047C36AB3F1C07F09D00020F5
:102D20007047012070470120704701207047012043
:102D30007047012070470120704700207047012034
:102D40007047000070B50446FFF7BAFA002C5BD05C
:102D50000546022384F83530002384F83430226895
:102D6000136823F00103136023681A6812F0010F3F
:102D70000AD0FFF7A5FA431B052BF5D9202363657D
:102D8000032084F8350070BD1A682048104061683F
:102D9000A2680A43E1680A4321690A4361690A4358
:102DA000A1690A43E1690A43216A0A430243616A4D
:102DB00004291ED01A602668756925F00705636A24
:102DC0001D43042B07D1A36A1D43E36A1BB12046B0
:102DD000FFF770FF90B975612046FFF749FFE26D7C
:102DE0003F239340836000206065012384F83530E1
:102DF000C9E7E16A206B01430A43DBE740236365CF
:102E0000012084F83500BEE70120BCE73F8010F0C8
:102E100038B5044690F8340001281BD0012084F80E
:102E2000340094F83500C0B2012804D0002384F89F
:102E30003430022038BD022084F835000025656555
:102E40002046FFF7FFFE2268136843F0010313607A
:102E50002846EFE70220EDE738B50446856D90F887
:102E6000340001282BD0012084F8340094F8350078
:102E7000C0B2012804D0002384F83430022038BDC9
:102E8000022084F83500002060652046FFF7DAFE56
:102E9000E26D3F239340AB602268136843F0160352
:102EA0001360236C23B12268136843F00803136096
:102EB0002268136843F0010313600020DFE702205B
:102EC000DDE770B50446866DFFF7FAF994F8353002
:102ED000DBB2022B06D080236365002384F83430F4
:102EE000012070BD05462268136823F016031360A5
:102EF0002268536923F080035361236CE3B1226895
:102F0000136823F0080313602268136823F0010399
:102F1000136023681B6813F0010F11D0FFF7D0F97D
:102F2000431B052BF5D920236365032084F8350066
:102F3000002384F83430D4E7A36C002BDFD1E3E71F
:102F4000E26D3F239340B360012384F835300020C5
:102F500084F83400C5E790F83530DBB2022B03D09B
:102F60008023436501207047052380F835300268CF
:102F7000136823F00103136000207047F0B583B09D
:102F8000044600230193724B1D68724BA3FB053569
:102F9000AD0A876D3E68C26D08239340334210D05E
:102FA00003681A6812F0040F0BD01A6822F00402AA
:102FB0001A60C26D08239340BB60436D43F0010368
:102FC0004365E26D01239340334209D02268526980
:102FD00012F0800F04D0BB60636D43F002036365A1
:102FE000E26D04239340334209D02268126812F044
:102FF000020F04D0BB60636D43F004036365E26DB0
:1030000010239340334224D02268126812F0080F34
:103010001FD0BB6023681A6812F4802F0DD01B6884
:1030200013F4002F04D1236C9BB12046984710E085
:10303000A36C73B1204698470BE01A6812F4807FA6
:1030400003D11A6822F008021A60236C0BB12046E3
:103050009847E26D20239340334255D0226812688E
:1030600012F0100F50D0BB6094F83530DBB2052B56
:103070000ED023681A6812F4802F33D01B6813F423
:10308000002F2AD1636C002B3ED0204698473BE0AE
:103090002268136823F0160313602268536923F033
:1030A00080035361236CA3B12268136823F00803E3
:1030B0001360E26D3F239340BB60012384F83530F9
:1030C000002384F83430236D002B3FD020469847EE
:1030D0003CE0A36C002BE7D1EBE7E36BA3B1204608
:1030E000984711E01A6812F4807F09D11A6822F01B
:1030F00010021A60012384F83530002384F834303C
:10310000E36B0BB120469847636DFBB1636D13F021
:10311000010F17D0052384F835302268136823F097
:1031200001031360019B01330193AB4204D8236870
:103130001B6813F0010FF5D1012384F8353000230B
:1031400084F83430E36C0BB12046984703B0F0BDEF
:1031500000000020B5814E1B00230F2B00F2E480FD
:1031600070B582B060E085685E000324B44025EA53
:103170000405CC68B4402C438460456825EA020508
:103180004C68C4F300129A402A4342605AE0DC08BB
:10319000083450F8246003F0070295000F22AA407B
:1031A00026EA020E0A69AA4042EA0E0240F82420EA
:1031B0005CE0072200E0002202FA0EF22A43023409
:1031C0005A4D45F824205A4A94686FEA0C0224EAC2
:1031D0000C054E6816F4801F01D04CEA0405544CCF
:1031E000A560E46802EA04054E6816F4001F01D0E9
:1031F0004CEA04054E4CE560646802EA04054E683A
:1032000016F4003F01D04CEA0405494C656024687F
:1032100022404D6815F4803F01D04CEA0402444C32
:10322000226001330F2B7DD801229A400C6804EAFA
:10323000020C32EA0404F4D14C6804F00304013CAB
:10324000012C90D94A6802F00302032A09D0C4680D
:103250005D000322AA4024EA02048A68AA402243AD
:10326000C2604A6802F00302022A90D004684FEA62
:10327000430E032202FA0EF224EA02044A6802F024
:10328000030202FA0EF2224302604A6812F4403F3F
:10329000C7D000220192274A546C44F480445464FD
:1032A000526C02F480420192019A9C08A51C1F4AAC
:1032B00052F8255003F003024FEA820E0F2202FA61
:1032C0000EF225EA02051C4A90423FF474AF02F563
:1032D000806290421AD002F58062904218D002F5C6
:1032E0008062904216D002F58062904214D002F5BE
:1032F0008062904212D002F58062904210D002F5B6
:10330000806290423FF455AF082255E7012253E70F
:10331000022251E703224FE704224DE705224BE743
:10332000062249E702B070BD704700BF0038014077
:10333000003C01400038024000000240036919428D
:1033400001D001207047002070470AB181617047A9
:103350000904816170470000002800F0E08170B529
:1033600082B00446036813F0010F3BD09F4B9B686B
:1033700003F00C03042B2CD09C4B9B6803F00C0334
:10338000082B21D06368B3F5803F4FD0B3F5A02F51
:1033900052D0964B1A6822F480321A601A6822F4CE
:1033A00080221A606368002B50D0FEF789FF054623
:1033B0008E4B1B6813F4003F14D1FEF781FF401BB6
:1033C0006428F5D90320B1E1884B5B6813F4800FC2
:1033D000D8D0864B1B6813F4003F03D06368002BE2
:1033E00000F09F81236813F0020F54D07F4B9B683D
:1033F00013F00C0F3ED07D4B9B6803F00C03082BA1
:1034000033D0E368002B68D0794B01221A60FEF7B5
:1034100057FF0546754B1B6813F0020F54D1FEF79A
:103420004FFF401B0228F5D903207FE16F4A136844
:1034300043F480331360B5E76C4B1A6842F4802282
:103440001A601A6842F480321A60ABE7FEF738FF60
:103450000546664B1B6813F4003FC3D0FEF730FFF0
:10346000401B6428F5D9032060E1604B5B6813F4CE
:10347000800FC6D15D4B1B6813F0020F03D0E368C9
:10348000012B40F05081594A136823F0F803216959
:1034900043EAC1031360236813F0080F42D0636945
:1034A0006BB3534B0122C3F8802EFEF709FF05468C
:1034B0004E4B5B6F13F0020F34D1FEF701FF401B40
:1034C0000228F5D9032031E1484A136823F0F803B4
:1034D000216943EAC1031360DDE7454B00221A600E
:1034E000FEF7EEFE0546414B1B6813F0020FD2D0EB
:1034F000FEF7E6FE401B0228F5D9032016E13C4BFF
:103500000022C3F8802EFEF7DBFE0546374B5B6FCB
:1035100013F0020F06D0FEF7D3FE401B0228F5D9A8
:10352000032003E1236813F0040F77D02F4B1B6CAB
:1035300013F0805F33D1002301932C4B1A6C42F0BF
:1035400080521A641B6C03F080530193019B012588
:10355000284B1B6813F4807F23D0A368012B34D041
:10356000052B38D0214B1A6F22F001021A671A6F0F
:1035700022F004021A67A368002B3DD0FEF7A0FEDC
:1035800006461A4B1B6F13F0020F46D1FEF798FE4A
:10359000801B41F288339842F3D90320C6E000250E
:1035A000D6E7144A136843F480731360FEF788FE6D
:1035B0000646104B1B6813F4807FCED1FEF780FEC9
:1035C000801B0228F5D90320B0E0084A136F43F0AE
:1035D00001031367CFE7054B1A6F42F004021A6725
:1035E0001A6F42F001021A67C5E700BF00380240B7
:1035F0000000474200700040FEF762FE0646524B54
:103600001B6F13F0020F08D0FEF75AFE801B41F229
:1036100088339842F3D9032088E0EDB9A369002BE1
:1036200000F08380484A926802F00C02082A51D0C8
:10363000022B17D0454B00221A66FEF741FE0446C6
:10364000414B1B6813F0007F42D0FEF739FE001B90
:103650000228F5D9032069E03B4A136C23F080531C
:103660001364DBE7394B00221A66FEF729FE054694
:10367000354B1B6813F0007F06D0FEF721FE401B80
:103680000228F5D9032051E0E369226A1343626AF4
:1036900043EA8213A26A5208013A43EA0243E26A09
:1036A00043EA0263284A5360284B01221A66FEF758
:1036B00007FE0446244B1B6813F0007F06D1FEF77B
:1036C000FFFD001B0228F5D903202FE000202DE08C
:1036D00000202BE0012B2BD01B4B5B6803F48001F7
:1036E000E269914226D103F03F02216A8A4223D146
:1036F000616A47F6C0721A40B2EB811F1ED103F413
:103700004031A26A5208013AB1EB024F18D103F0DE
:103710007063E26AB3EB026F14D1002006E001206F
:103720007047012002E0012000E0002002B070BDDF
:103730000120FBE70120F9E70120F7E70120F5E789
:103740000120F3E70120F1E7003802400000474282
:1037500008B5314B9B6803F00C03042B57D0082BA2
:1037600057D12D4B5A6802F03F025B6813F4800F6B
:103770002AD0294B5968C1F3881C4FEA4C11B1EB90
:103780000C006EEB0E0E4FEA8E1343EA906381013C
:10379000091A63EB0E03DB0043EA5173C90011EB16
:1037A0000C0C43F10003590200234FEA4C2041EA7C
:1037B000DC51FDF7F9FA184B5B68C3F301430133A1
:1037C0005B00B0FBF3F025E0134B5968C1F3881C94
:1037D0004FEA4C11B1EB0C006EEB0E0E4FEA8E135C
:1037E00043EA90638101091A63EB0E03DB0043EAAD
:1037F0005173C90011EB0C0C43F100039902002333
:103800004FEA8C2041EA9C51FDF7CEFAD3E70348FA
:1038100000E0034808BD00BF0038024000127A00F3
:103820000024F400002800F09B8070B50D4604468B
:103830004F4B1B6803F007038B4208D2CBB24C4AB4
:103840001370136803F007038B4240F08B802368EA
:1038500013F0020F17D013F0040F04D0454A9368F9
:1038600043F4E0539360236813F0080F04D0414AF7
:10387000936843F4604393603E4A936823F0F003F7
:10388000A1680B439360236813F0010F32D0636883
:10389000012B21D09A1E012A25D9364A126812F02E
:1038A000020F61D033498A6822F0030213438B6010
:1038B000FEF706FD06462F4B9B6803F00C0362687B
:1038C000B3EB820F16D0FEF7FBFC801B41F288336E
:1038D0009842F0D9032042E0264A126812F4003FD1
:1038E000E0D101203BE0234A126812F0007FD9D1D9
:1038F000012034E01E4B1B6803F00703AB4207D9DD
:10390000EAB21B4B1A701B6803F00703AB422DD1C0
:10391000236813F0040F06D0164A936823F4E0538B
:10392000E1680B439360236813F0080F07D0114A36
:10393000936823F46043216943EAC1039360FFF76E
:1039400007FF0C4B9B68C3F303130B4AD35CD840AF
:103950000A4B18600A4B1868FEF766FC002070BD21
:10396000012070470120FAE70120F8E70120F6E77F
:10397000003C0240003802400C0401080000002016
:1039800008000020014B1868704700BF00000020AD
:1039900008B5FFF7F7FF044B9B68C3F38223034A84
:1039A000D35CD84008BD00BF003802401C040108A9
:1039B00008B5FFF7E7FF044B9B68C3F34233034AA4
:1039C000D35CD84008BD00BF003802401C04010889
:1039D00040B370B50E461546044690F84930E3B141
:1039E000214651F8080B01F075FBA26831462068AA
:1039F00001F0A6FB236BA2682946606801F0C2FBB8
:103A00002268A16852F8213043F0010342F82130C6
:103A1000012384F84930002070BD80F84830FDF75C
:103A2000EBFEDDE70120704730B4036A23F00103A9
:103A30000362036A4268846924F073040D682C43AE
:103A400023F0020C8B6843EA0C03104DA84203D00C
:103A500005F58065A84205D123F00803CD682B4306
:103A600023F00403094DA84203D005F58065A84260
:103A700005D122F440724D692A438D692A43426080
:103A800084614A684263036230BC704700000140B1
:103A900030B4036A23F480730362036A4268C46922
:103AA00024F0730C0C6844EA0C0523F400738C6852
:103AB00043EA0423114CA04203D004F58064A042E1
:103AC00006D123F40063CC6843EA042323F4806323
:103AD0000A4CA04203D004F58064A04207D122F42E
:103AE00040524C6942EA04128C6942EA0412426074
:103AF000C5614A68C263036230BC70470000014080
:103B000030B4036A23F480530362036A4468C269D1
:103B100022F4E6420D6842EA052223F400538D6840
:103B200043EA0533094DA84203D005F58065A84254
:103B300004D124F480444D6944EA85144460C26190
:103B40004A680264036230BC704700BF0000014055
:103B500010B4036A046A24F001040462846924F046
:103B6000F00C4CEA021223F00A030B438261036259
:103B70005DF8044B704730B4046A24F0100404620A
:103B80008469056A24F4407C4CEA022C2CF4704CC5
:103B90001B039BB243EA0C0325F0A005090101F0C9
:103BA000A00129438361016230BC704710B4046AEC
:103BB00024F0100404628469036A24F4704C4CEA13
:103BC000023223F0A00343EA0113826103625DF82D
:103BD000044B704730B4046A24F480740462C469EE
:103BE000056A24F0030C4CEA020C2CF0F00C1B01CB
:103BF000DBB243EA0C0325F42065090201F42061DD
:103C00002943C361016230BC704730B4046A24F4B4
:103C100080540462C469056A24F4407C4CEA022C96
:103C20002CF4704C1B039BB243EA0C0325F4204593
:103C3000090301F420412943C361016230BC70478C
:103C4000836823F070030B4343F0070383607047DE
:103C500090F83D30DBB2012B32D1022380F83D30A9
:103C60000368194A934220D0B3F1804F1DD0A2F5CA
:103C70007C42934219D002F58062934215D002F53E
:103C80008062934211D002F5784293420DD002F542
:103C90007052934209D0A2F59432934205D01A682B
:103CA00042F001021A60002070479A6802F0070291
:103CB000062A07D01A6842F001021A6000207047F5
:103CC0000120704700207047000001400368196A16
:103CD00041F21112114208D1196A40F244421142D4
:103CE00003D11A6822F001021A60012380F83D30E6
:103CF0000020704790F83D30DBB2012B37D1022312
:103D000080F83D300268D36843F00103D360036854
:103D1000194A934220D0B3F1804F1DD0A2F57C42C6
:103D2000934219D002F58062934215D002F5806269
:103D3000934211D002F5784293420DD002F57052B1
:103D4000934209D0A2F59432934205D01A6842F00A
:103D500001021A60002070479A6802F00702062AE2
:103D600007D01A6842F001021A6000207047012053
:103D700070470020704700BF000001400268D36810
:103D800023F00103D3600368196A41F21112114252
:103D900008D1196A40F24442114203D11A6822F054
:103DA00001021A60012380F83D30002070477047FF
:103DB0000C2914D8DFE801F0071313130A131313A7
:103DC0000D13131310000368586B70470368986B4A
:103DD00070470368D86B70470368186C7047002001
:103DE000704770477047704710B5044603681A69FA
:103DF00012F0020F11D0DA6812F0020F0DD06FF03E
:103E000002021A610123037703689B6913F0030F11
:103E100070D003F0F7FC0023237723681A6912F0AF
:103E2000040F12D0DA6812F0040F0ED06FF0040203
:103E30001A610223237723689B6913F4407F5FD0C4
:103E4000204603F0DFFC0023237723681A6912F071
:103E5000080F12D0DA6812F0080F0ED06FF00802C7
:103E60001A61042323772368DB6913F0030F4ED014
:103E7000204603F0C7FC0023237723681A6912F059
:103E8000100F12D0DA6812F0100F0ED06FF010027F
:103E90001A61082323772368DB6913F4407F3DD040
:103EA000204603F0AFFC0023237723681A6912F041
:103EB000010F03D0DA6812F0010F36D123681A69B6
:103EC00012F0800F03D0DA6812F0800F34D123682B
:103ED0001A6912F0400F03D0DA6812F0400F32D1A5
:103EE00023681A6912F0200F03D0DA6812F0200F4D
:103EF00030D110BDFFF775FF2046FFF773FF8AE74B
:103F00002046FFF76EFF2046FFF76CFF9BE7204639
:103F1000FFF767FF2046FFF765FFACE72046FFF796
:103F200060FF2046FFF75EFFBDE76FF001021A61F8
:103F3000204603F057FCC1E76FF080021A6120466B
:103F400000F0C5FCC3E76FF040021A612046FFF79E
:103F50004AFFC5E76FF020021A61204600F0B6FC68
:103F6000C7E700000368304A904212D0B0F1804F9A
:103F70000FD0A2F57C4290420BD002F580629042B5
:103F800007D002F58062904203D002F57842904259
:103F900003D123F070034A681343234A90422AD086
:103FA000B0F1804F27D0A2F57C42904223D002F599
:103FB000806290421FD002F5806290421BD002F5D1
:103FC0007842904217D002F57052904213D002F519
:103FD000806290420FD002F5806290420BD0A2F531
:103FE0009832904207D002F58062904203D002F5E9
:103FF0008062904203D123F44073CA68134323F0D4
:1040000080034A69134303608B68C3620B68836251
:10401000054B984203D003F58063984201D10B69A8
:1040200003630123436170470000014040B310B5B2
:10403000044690F83D30F3B1022384F83D30214628
:1040400051F8040BFFF78EFF012384F8463084F803
:104050003E3084F83F3084F8403084F8413084F8B2
:10406000423084F8433084F8443084F8453084F892
:104070003D30002010BD80F83C30FDF731FFDBE71C
:104080000120704740B310B5044690F83D30F3B1BD
:10409000022384F83D30214651F8040BFFF762FFFC
:1040A000012384F8463084F83E3084F83F3084F8A9
:1040B000403084F8413084F8423084F8433084F84A
:1040C000443084F8453084F83D30002010BD80F83D
:1040D0003C30FDF765FFDBE70120704740B310B5CA
:1040E000044690F83D30F3B1022384F83D30214678
:1040F00051F8040BFFF736FF012384F8463084F8AB
:104100003E3084F83F3084F8403084F8413084F801
:10411000423084F8433084F8443084F8453084F8E1
:104120003D30002010BD80F83C30FFF740FEDBE75B
:104130000120704730B4036A23F010030362036A5E
:104140004468826922F4E6420D6842EA052223F0BF
:1041500020038D6843EA0513114DA84203D005F5ED
:104160008065A84206D123F08003CD6843EA051399
:1041700023F040030A4DA84203D005F58065A8420C
:1041800007D124F440644D6944EA85048D6944EA0A
:104190008504446082614A688263036230BC704770
:1041A0000000014038B590F83C30012B66D0044641
:1041B0000D46012380F83C300C2A5AD8DFE802F083
:1041C000075959591B5959593059595944000068D0
:1041D000FFF72AFC2268936943F008039361226881
:1041E000936923F0040393612268936929690B435F
:1041F000936100203EE00068FFF79CFF226893690E
:1042000043F4006393612268936923F480639361AC
:1042100022689369296943EA01239361002029E018
:104220000068FFF735FC2268D36943F00803D361C7
:104230002268D36923F00403D3612268D369296912
:104240000B43D361002015E00068FFF759FC22689A
:10425000D36943F40063D3612268D36923F4806394
:10426000D3612268D369296943EA0123D36100201D
:1042700000E00120002384F83C3038BD0220FCE738
:1042800070B49446046A24F0010404628469066AE6
:10429000184DA8421CD0B0F1804F19D0164A904258
:1042A00016D002F58062904212D002F580629042F0
:1042B0000ED002F5784290420AD002F57052904238
:1042C00006D0A2F59432904202D044F0010203E0FD
:1042D00024F0030242EA0C0222F0F0021B01DBB2DE
:1042E000134326F00A0201F00A01114383610162BF
:1042F00070BC7047000001400004004038B590F8E1
:104300003C30012B5AD004460D46012380F83C3046
:1043100052B1042A1AD0082A2BD00C2A3BD00120F3
:10432000002384F83C3038BDCB684A6809680068CF
:10433000FFF7A6FF2268936923F00C0393612268BC
:104340009369A9680B4393610020E9E7CB684A6849
:1043500009680068FFF70FFC2268936923F4406343
:10436000936122689369A96843EA0123936100205D
:10437000D6E7CB684A6809680068FFF72BFC22681B
:10438000D36923F00C03D3612268D369A9680B4376
:10439000D3610020C4E7CB684A6809680068FFF76A
:1043A00034FC2268D36923F44063D3612268D36963
:1043B000A96843EA0123D3610020B1E70220B2E7F4
:1043C00010B4846824F47F4C42EA03220A4342EA90
:1043D0000C0282605DF8044B704790F83C30012B72
:1043E00078D010B50446012380F83C30022380F8D1
:1043F0003D300268936823F47F4323F07703936092
:104400000B68602B4CD029D8402B54D00CD9502BA2
:1044100022D1CA6849680068FFF79AFB50212068DA
:10442000FFF70EFC002005E0202B0DD009D9302B22
:104430000AD00120012384F83D30002384F83C3069
:1044400010BD0BB1102B05D119462068FFF7F8FB02
:104450000020EFE70120EDE70120EBE7B3F5805FF7
:1044600034D0B3F5005F0CD1CB684A688968006826
:10447000FFF7A6FF2268936843F48043936000200F
:10448000D8E7702B24D1CB684A6889680068FFF7A9
:1044900097FF2268936843F0770393600020C9E791
:1044A000CA6849680068FFF781FB60212068FFF750
:1044B000C7FB0020BEE7CA6849680068FFF748FBF1
:1044C00040212068FFF7BCFB0020B3E70020B1E7E4
:1044D0000120AFE70220704701F01F01012303FA1A
:1044E00001FC036A23EA0C030362036A02FA01F186
:1044F0000B4303627047000010B5044608460029CC
:1045000042D194F83E30DBB2013B18BF0123002BAF
:104510006ED1002851D1022384F83E300122014699
:104520002068FFF7D9FF2368334A934203D002F58E
:104530008062934203D15A6C42F400425A64236869
:104540002D4A934249D0B3F1804F46D0A2F57C4228
:10455000934242D002F5806293423ED002F58062DF
:1045600093423AD002F57842934236D002F5705227
:10457000934232D0A2F5943293422ED01A6842F080
:1045800001021A60002032E0042908D008290DD069
:1045900094F84130DBB2013B18BF0123B7E794F830
:1045A0003F30DBB2013B18BF0123B0E794F8403045
:1045B000DBB2013B18BF0123A9E7042805D0082876
:1045C00007D0022384F84130A8E7022384F83F3063
:1045D000A4E7022384F84030A0E79A6802F00702BB
:1045E000062A07D01A6842F001021A60002010BDA6
:1045F0000120FCE70020FAE70000014010B5044666
:104600000B4609BB90F83E00C0B26BBB94F8422049
:10461000D2B2012840F0A480012A40F0A2809BBBC6
:10462000022184F83E10002B3ED1022184F8421072
:104630000C2B00F29780DFE803F04795959576956F
:1046400095957C9595958200042905D0082907D079
:1046500090F84100C0B2D8E790F83F00C0B2D4E76C
:1046600090F84000C0B2D0E7042B05D0082B07D04B
:1046700094F84520D2B2CCE794F84320D2B2C8E7F0
:1046800094F84420D2B2C4E7042B05D0082B07D0FD
:10469000022184F84110C6E7022184F83F10C2E7E6
:1046A000022184F84010BEE7042B05D0082B07D068
:1046B000022184F84510BBE7022184F84310B7E7D4
:1046C000022184F84410B3E72168CA6842F002026C
:1046D000CA60012219462068FFF7FEFE2368234ABC
:1046E000934232D0B3F1804F2FD0A2F57C42934257
:1046F0002BD002F58062934227D002F5806293426C
:1047000023D002F5784293421FD002F570529342B3
:104710001BD0A2F59432934217D01A6842F00102DE
:104720001A6000201DE02168CA6842F00402CA60D5
:10473000CFE72168CA6842F00802CA60C9E7216869
:10474000CA6842F01002CA60C3E79A6802F0070222
:10475000062A09D01A6842F001021A60002000E01F
:10476000012010BD1046FCE70020FAE700000140E0
:1047700038B505460C460C2960D8DFE801F0075F24
:104780005F5F2A5F5F5F305F5F5F36000268D368FC
:1047900023F00203D360002221462868FFF79CFE25
:1047A0002B68196A41F21112114208D1196A40F2BC
:1047B0004442114203D11A6822F001021A60D4B9AE
:1047C000012385F83E3034BB012385F842300020B8
:1047D00035E00268D36823F00403D360DBE70268A6
:1047E000D36823F00803D360D5E70268D36823F0C9
:1047F0001003D360CFE7042C05D0082C07D0012389
:1048000085F84130DFE7012385F83F30DBE70123FE
:1048100085F84030D7E7042C06D0082C09D00123B6
:1048200085F8453000200AE0012385F84330002058
:1048300005E0012385F84430002000E0012038BD68
:1048400090F83C30012B3DD010B4012380F83C306F
:10485000022380F83D3003685A689C6822F0700C8F
:104860000A6842EA0C025A600368174A93421AD057
:10487000B3F1804F17D0A2F57C42934213D002F5DA
:10488000806293420FD002F5806293420BD002F512
:104890007842934207D002F57052934203D0A2F5BA
:1048A0009432934204D124F080044A6814439C60FB
:1048B000012380F83D30002380F83C3018465DF835
:1048C000044B70470220704700000140704770475A
:1048D000026802F10C0353E8003F23F490730C329A
:1048E00042E800310029F3D1026802F1140353E8D1
:1048F000003F23F00103143242E800310029F3D1D4
:10490000036B012B05D0202380F83E300023036386
:104910007047026802F10C0353E8003F23F01003D4
:104920000C3242E800310029F3D1ECE790F83D3039
:10493000DBB2212B01D0022070478368B3F5805F82
:1049400017D0036A5A1C02621A7803685A60C38C33
:104950009BB2013B9BB2C3844BB90268D36823F07E
:104960008003D3600268D36843F04003D360002023
:1049700070470369002BE4D1036A1B880268C3F304
:1049800008035360036A02330362E0E738B5044664
:104990000268136923F44053C1680B4313618368B1
:1049A0000269134342691343C2691A430168CB6821
:1049B00023F4164323F00C031343CB6002685369BE
:1049C00023F4407381690B4353610368314A934276
:1049D00006D002F58062934202D0FEF7D9FF01E0D3
:1049E000FEF7E6FFE369B3F5004F29D00021031875
:1049F00049411B1841F10001C90041EA5371DB0034
:104A0000181863684FEA83024FEA937341F100017B
:104A1000FCF7CAF9204DA5FB00325109642303FBC2
:104A200011031B013233A5FB03235B0903F0F002E2
:104A300002EB011203F00F03216813448B6038BDB1
:104A40000023021843EB0301121841F10001C900D1
:104A500041EA5271D200101841F1000162689218C7
:104A60005B41FCF7A1F90C4DA5FB00325109642311
:104A700003FB1103DB003233A5FB03235B095A0060
:104A800002F4F87202EB011203F0070321681344E9
:104A90008B60D4E7001001401F85EB512DE9F843EE
:104AA00005460F4616469946DDF820802C68246896
:104AB00037EA04030CBF4FF0010C4FF0000CB44573
:104AC0002DD1B8F1FF3FF1D0B8F1000F05D0FDF7BF
:104AD000F7FBA0EB09004045E8D92A6802F10C0376
:104AE00053E8003F23F4D0730C3242E80031002930
:104AF000F3D12A6802F1140353E8003F23F00103C5
:104B0000143242E800310029F3D1202385F83D30EA
:104B100085F83E30002385F83C30032000E000207B
:104B2000BDE8F88358B310B5044690F83D300BB398
:104B3000242384F83D302268D36823F40053D360E3
:104B40002046FFF723FF2268136923F49043136183
:104B50002268536923F02A0353612268D36843F41F
:104B60000053D36000202064202384F83D3084F873
:104B70003E3010BD80F83C30FDF7CAFAD8E701207E
:104B800070472DE9F04182B01E4690F83D30DBB20F
:104B9000202B54D104460D469046002953D0002ABC
:104BA00053D090F83C30012B51D0012380F83C3099
:104BB00000230364212380F83D30FDF781FB074685
:104BC000A4F82480A4F82680A368B3F5805F05D0FC
:104BD0004FF00008002384F83C3012E0236913B141
:104BE0004FF00008F6E7A8460025F3E738F8023B47
:104BF0002268C3F308035360E28C92B2013A92B286
:104C0000E284E38C9BB273B100963B460022802184
:104C10002046FFF743FFE0B9002DE7D015F8012B40
:104C200023685A60E8E700963B4600224021204670
:104C3000FFF734FF78B9202384F83D3000E00220EC
:104C400002B0BDE8F0810120FAE70120F8E7022078
:104C5000F6E70320F4E70320F2E72DE9F04182B004
:104C60001E4690F83E30DBB2202B5CD104460D4648
:104C7000904600295BD0002A5BD090F83C30012B95
:104C800059D0012380F83C3000230364222280F8AD
:104C90003E200363FDF714FB0746A4F82C80A4F81C
:104CA0002E80A368B3F5805F05D04FF00008002385
:104CB00084F83C3017E0236913B14FF00008F6E7A1
:104CC000A8460025F3E723685B68C3F3080328F8C8
:104CD000023B03E023685B682B700135E28D92B2E2
:104CE000013A92B2E285E38D9BB2BBB100963B469E
:104CF000002220212046FFF7D1FEF0B9002DE2D09E
:104D0000A368B3F5805FE5D013B92369002BE1D028
:104D100023685B6803F07F032B70DEE7202384F8B1
:104D20003E30002000E0022002B0BDE8F08101200A
:104D3000FAE70120F8E70220F6E70320F4E77047DE
:104D400008B50168CA6822F04002CA60202280F8D3
:104D50003D20FFF7F4FF002008BD7047704708B5FD
:104D6000806B0023C385C384FFF7F8FF08BD70473D
:104D700090F83E30DBB2222B67D18368B3F5805FB9
:104D80004DD0826AB3F5805F04D0002B54D1036903
:104D9000002B51D103685B681370836A013383620F
:104DA000C38D9BB2013B9BB2C385002B4FD100B595
:104DB00083B00268D36823F02003D3600268D3680D
:104DC00023F48073D3600268536923F001035361B5
:104DD000202380F83E30036B012B33D10023036383
:104DE000026802F10C0353E8003F23F010030C3279
:104DF00042E800310029F3D103681A6812F0100F5D
:104E000006D0002201921A6801925B680193019B0F
:104E1000818DFFF7ACFF002003B05DF804FB026951
:104E2000002AAED1826A03685B68C3F3080313806B
:104E3000836A02338362B3E703685B6803F07F032E
:104E40001370AAE7FFF789FFE5E70220704700200B
:104E50007047000030B583B0044602681368D0681C
:104E6000516913F00F0505D113F0200F02D010F097
:104E7000200F19D12DB111F0010119D110F4907F3B
:104E800016D1216B01297DD013F0800F03D010F0D3
:104E9000800F40F0158113F0400F03D010F0400F49
:104EA00040F0128103B030BD2046FFF761FFF9E703
:104EB00013F0010F06D010F4807F03D0226C42F073
:104EC0000102226413F0040F04D019B1226C42F0E5
:104ED0000202226413F0020F04D019B1226C42F0D6
:104EE0000402226413F0080F07D010F0200F00D145
:104EF00019B1226C42F008022264226C002AD1D03F
:104F000013F0200F02D010F0200F29D123685B6925
:104F100003F04003226C12F0080F00D163B3204667
:104F2000FFF7D6FC23685B6913F0400F20D022689E
:104F300002F1140353E8003F23F04003143242E827
:104F400000310029F3D1A36B73B1614A1A65A06BDC
:104F5000FEF701F80028A5D0A06B036D9847A1E7E4
:104F60002046FFF705FFD1E72046FFF7F7FE99E758
:104F70002046FFF7F3FE95E72046FFF7EFFE0023FC
:104F800023648FE713F0100F3FF47EAF10F0100F83
:104F90003FF47AAF002301931368019353680193A0
:104FA000019B536913F0400F50D0A26B13685B68EC
:104FB0009BB2002B3FF476AFA18D99427FF672AF82
:104FC000E385D369B3F5807F37D0226802F10C0303
:104FD00053E8003F23F480730C3242E8003100298B
:104FE000F3D1226802F1140353E8003F23F00103D8
:104FF000143242E800310029F3D1226802F114038F
:1050000053E8003F23F04003143242E80031002906
:10501000F3D1202384F83E3000232363226802F179
:105020000C0353E8003F23F010030C3242E8003138
:105030000029F3D1A06BFDF744FFA18DE38D9BB256
:10504000C91A89B22046FFF792FE2BE7A18DE38DA6
:105050009BB2C91A89B2E38D9BB2002B3FF422AFF9
:1050600000293FF41FAF226802F10C0353E8003F10
:1050700023F490730C3242E800300028F3D1226808
:1050800002F1140353E8003F23F00103143242E815
:1050900000300028F3D1202384F83E30002323631E
:1050A000226802F10C0353E8003F23F010030C3296
:1050B00042E800300028F3D12046FFF758FEF1E621
:1050C0002046FFF733FCEDE62046FFF739FEE9E620
:1050D0005F4D000810B40A6850F8223023F0010335
:1050E00040F822308B68082B25D000244A682243E0
:1050F0001343CA6813430A6913434A691343CA69CD
:1051000013430A6A13434A6A13438A6A1343CA6AF7
:1051100013430A6B13438A691343CA6B1343096829
:1051200050F82140054A22401A4340F8212000202F
:105130005DF8044B70474024D8E700BF8000F0FFC3
:1051400010B5013250F8223003F0404C0B684C6827
:1051500043EA04138C6843EA0423CC6843EA04431B
:105160000C6904F1FF3E43EA0E534C69A4F1020EB0
:1051700043EA0E6389690B434CEA030340F822308B
:10518000002010BDB3F5804F05D06FF0704340F89C
:1051900022300020704730B450F82230094C1C40B7
:1051A0000B684D6843EA05138D6843EA05238D6952
:1051B0002B43C96843EA0143234340F822300020CF
:1051C00030BC70470000F0CF00B583B0104B1A8898
:1051D0005B8807EE903AF8EEE77A9FED0E7A67EE7D
:1051E000877AB2EE047A77EE877AB7EE007A77EEB6
:1051F000877AFCEEE77A683A009017EE903A9BB215
:1052000092B20921084601F074FD03B05DF804FB79
:10521000D00D0020CDCCCC3E00B583B00E4B1A880B
:105220005B8807EE903AF8EEE77A9FED0C7A67EE2E
:10523000877AB2EE047A77EE877AFCEEE77A693AFB
:10524000009017EE903A9BB292B20A21084601F004
:1052500083F803B05DF804FBD00D0020CDCCCC3E2C
:1052600070B582B00546324B5B8807EE903AF8EE97
:10527000E77A9FED307A67EE877AB4EE007A67EED0
:10528000877AFCEEE77A17EE903A9EB20A240AE09B
:10529000274B1A88733A2B4692B221460A2001F016
:1052A000B9FC3444A4B207EE904AB8EEE77A204B3A
:1052B0005B8807EE903AF8EEE77ADFED1E6A67EE5C
:1052C000A67AF2EE046A77EEA67AB4EEE77AF1EE09
:1052D00010FADDD4164B1B88733B174A82FB03126E
:1052E000DE17C6EBA206B6B20A241AE0104B5B88A2
:1052F00007EE903AF8EEE77A9FED0E7A67EE877A3E
:10530000B2EE047A77EE877AFCEEE77A009517EE34
:10531000903A9BB222460A21204601F097FC344481
:10532000A4B2034B1A88693A9442DFDB02B070BD25
:10533000D00D0020CDCCCC3E676666662DE9F04FDF
:105340002DED088B9FB083468A468DED040BD94E18
:10535000738807EE903AF8EEE77A9FEDD7AA67EEEA
:105360008A7AF2EE049A77EEA97AB7EE009A77EE8F
:10537000897AB2EE0E8A37EE887ADFEDD08A37EE80
:10538000287A37EE497AF3EE0BAA77EEAA7A77EE0F
:10539000A87ADFEDCB6A77EEA67AFCEEE77ABCEE70
:1053A000C77A4AF25163009317EE903A9BB2D52226
:1053B00017EE101A89B2792000F0CEFF738807EE3D
:1053C000903AF8EEE77A67EE8A7A77EEA97A77EE86
:1053D000897A77EE887A77EEA87AFCEEE77A00246D
:1053E00003944BF64049CDF80890B64B01930C2539
:1053F00000952B463C2217EE901A89B27A2001F0D4
:10540000A1FC738807EE903AF8EEE77A67EE8A7AA5
:1054100077EEA97A77EE897A77EEAA7A77EEA87A8C
:10542000FCEEE77A0394CDF80890A74B0193009522
:105430002B462A2217EE901A89B27A2001F082FCBC
:10544000738807EE903AF8EEE77A67EE8A7A77EE9D
:10545000A97A77EE897A77EEAA7A77EEA87A06AB00
:10546000069407940894ADF824404FF60748ADF829
:1054700018808DF81A50FCEEE77A6F460FCB07C7FD
:105480003B8008235A4617EE901A89B2A42001F0F7
:105490008DFA738807EE903AF8EEE77A67EE8A7A2B
:1054A00077EEA97A77EE897A77EEAA7A77EEA87AFC
:1054B000B2EE088A77EE887AFCEEE77A0394CDF8AC
:1054C0000890824B019300952B462A2217EE901AE2
:1054D00089B27A2001F036FC738807EE903AF8EE34
:1054E000E77A67EE8A7A77EEA97A77EE897A77EEAD
:1054F000AA7A77EEA87A77EE887A0AAB0A940B94A8
:105500000C94ADF83440ADF828808DF82A50FCEEAC
:10551000E77AEC460FCBACE807003B800823524605
:1055200017EE901A89B2A42001F040FA738807EEB2
:10553000903AF8EEE77A67EE8A7A77EEA97A77EE14
:10554000897A77EEAA7A77EEA87AB3EE08BA77EE80
:105550008B7AFCEEE77A0394CDF808905C4B0193CC
:1055600000952B462A2217EE901A89B27A2001F074
:10557000E9FB738808EE103AB8EEC88A28EE0A8A6A
:1055800038EE298A38EE098A38EE2A8A38EE288AD7
:1055900038EE0B8A00224F4BDDE904AB50465946EA
:1055A000FAF7EAFF0DF138090E940F941094ADF854
:1055B0004440ADF838808DF83A50FBF777FA8646CC
:1055C000BCEEC88AEC4699E80F00ACE807003B80C7
:1055D0000223724618EE101A89B2B02001F06CFA5C
:1055E000738807EE903AF8EEE77A67EE8A7A77EEFC
:1055F000A97A77EE897A77EEAA7A77EEA87A77EEAB
:105600008B7A129413941494ADF85440ADF84880FA
:105610008DF84A50FCEEE77AE94613AB93E80700B1
:10562000A9E80300A9F80020129B2E2217EE901A79
:1056300089B2BC2001F0C4F8738808EE103AB8EEC5
:10564000C88A28EE0A8A38EE298A38EE098A38EEA6
:105650002A8A38EE288A38EE0B8A00221E4B5046E2
:105660005946FAF789FFFBF721FA824616AB1694E2
:1056700017941894ADF86440ADF858808DF85A50DE
:10568000164AA2FB002C4FEA5C1CBCEEC88AEE4610
:105690000FCBAEE807003B800223642202FB1CA272
:1056A00018EE101A89B2C22001F006FA738807EECC
:1056B000903A15E0D00D0020CDCCCC3E0000404209
:1056C000000010422C0401083804010840040108BD
:1056D000480401080000594000408F401F85EB51ED
:1056E000F8EEE77A67EE8A7A77EEA97A77EE897A2A
:1056F00077EEAA7A77EEA87A77EE8B7A1A941B94D3
:105700001C94ADF87440ADF868808DF86A50FCEEDA
:10571000E77A6B461EAA12E9070003C3A9F8002026
:105720001A9B252217EE901A89B2CE2001F048F874
:105730001FB0BDEC088BBDE8F08F00BF2DE9F0472E
:105740002DED0A8BACB0F0EE408AB0EE608AF0EE40
:1057500041BAB0EE61BAF0EE42AAB0EE62AA0646D5
:10576000D64D2888A0F119025B384AF2516700979C
:105770004B2392B2292180B200F0EEFD28885A38DE
:10578000CF4A2A2180B201F0ADF8B5F800E004ABB1
:105790000024049405940694ADF81C404FF6074885
:1057A000ADF81080AEF15A0EEC460FCBACE8070016
:1057B000ACF800300823FCEEE87A17EE902A3A2184
:1057C0001FFA8EF001F0F2F82888A0F119025B3878
:1057D00000976F2392B24D2180B200F0BDFD288862
:1057E0005A38B84A4E2180B201F07CF8B5F800E092
:1057F00008AB089409940A94ADF82C40ADF82080C9
:10580000AEF15A0EEC460FCBACE80700ACF8003016
:105810000323FCEEC87A17EE902A5E211FFA8EF061
:1058200001F0C4F8B5F800C00C940D940E94ADF8D6
:105830003C40ADF83080ACF1420C6B460DAA07CA73
:1058400003C31A800C9B2E225E211FFA8CF000F0FD
:10585000B7FFB5F800A0DFED9C0A28EE208AFCEE29
:10586000C87A17EE90CA10AB109411941294ADF848
:105870004C40ADF84080954AA2FB0C294FEA5919DB
:10588000AAF13A0AEE460FCBAEE80700AEF80030B8
:105890000223642202FB19C25E211FFA8AF001F082
:1058A0000BF9B5F800C0149415941694ADF85C404B
:1058B000ADF85080ACF12A0C6B4615AA07CA03C399
:1058C0001A80149B25225E211FFA8CF000F078FFCD
:1058D0006B8807EE903AF8EEE77ADFED7D9A67EE97
:1058E000A97AB2EE049A77EE897AB7EE008A77EE5B
:1058F000887AF2EE0E8A77EEA87A37EEC87ADFED74
:10590000756A77EEA67A77EE887AFCEEE77ABCEED7
:10591000C77A009717EE903A9BB25B2217EE101AE7
:1059200089B2092000F018FD6B8807EE903AF8EE76
:10593000E77A67EEA97A77EE897A77EE887A77EE5A
:10594000A87AFCEEE77A644A17EE903A99B20A20F8
:1059500000F0C8FF6B880CEE103AB8EECCCA2CEE03
:1059600029CA3CEE09CA3CEE08CA3CEE28CAB0EE91
:105970006B0A01F05DFA864618AB189419941A94D4
:10598000ADF86C40ADF86080BCEECCCAEC460FCBF5
:10599000ACE80700ACF80030042372461CEE101A85
:1059A00089B22A2001F002F86B8807EE903AF8EEEF
:1059B000E77A67EEA97A77EE897A77EE887A77EEDA
:1059C000A87ADFF82091FCEEE77A4A4617EE903A83
:1059D00099B24A2000F086FF6B8807EE903AF8EE05
:1059E000E77A67EEA97A77EE897A77EE887A77EEAA
:1059F000A87AF3EE00BA77EEAB7AFCEEE77A374A94
:105A000017EE903A99B20A2000F06CFF6B880CEE0A
:105A1000103AB8EECCCA2CEE29CA3CEE09CA3CEECC
:105A200008CA3CEE28CA3CEE2BCAB0EE4B0A01F085
:105A3000FFF986461CAB1C941D941E94ADF87C4067
:105A4000ADF87080BCEECCCAEC460FCBACE80700DA
:105A5000ACF80030042372461CEE101A89B22A20DA
:105A600000F0A4FF6B8807EE903AF8EEE77A67EE55
:105A7000A97A77EE897A77EE887A77EEA87A77EE48
:105A8000AB7AFCEEE77A4A4617EE903A99B24A2092
:105A900000F028FF6B8807EE903AF8EEE77A67EEA1
:105AA000A97A77EE897A77EE887A77EEA87A9FEDF1
:105AB0000CCA77EE8C7AFCEEE77A15E0D00D002068
:105AC00050040108580401080000C8421F85EB512A
:105AD000CDCCCC3E00008042600401086C0401087B
:105AE0000000004268040108D44A17EE903A99B2C7
:105AF0000A2000F0F7FE6B880BEE103AB8EECBBA36
:105B00002BEE29BA3BEE09BA3BEE08BA3BEE28BAB7
