:020000040800F2
:1000000000000220991F0008490900084B09000858
:100010004D0900084F0900085109000800000000C0
:10002000000000000000000000000000530900086C
:100030005509000800000000570900085909000888
:10004000E91F0008E91F0008E91F0008E91F000870
:10005000E91F0008E91F0008E91F0008E91F000860
:10006000E91F0008E91F0008E91F0008E91F000850
:10007000E91F0008E91F0008E91F0008E91F000840
:10008000E91F0008E91F0008E91F0008E91F000830
:10009000E91F0008E91F0008E91F0008E91F000820
:1000A000E91F0008E91F0008E91F0008E91F000810
:1000B000E91F0008E91F0008E91F0008E91F000800
:1000C000E91F0008E91F0008E91F0008E91F0008F0
:1000D000E91F0008E91F0008E91F0008E91F0008E0
:1000E000E91F0008E91F0008E91F0008E91F0008D0
:1000F000E91F0008E91F0008E91F0008E91F0008C0
:10010000E91F0008E91F0008E91F0008E91F0008AF
:10011000E91F0008E91F0008E91F0008E91F00089F
:10012000E91F0008E91F0008E91F0008E91F00088F
:10013000E91F0008E91F0008E91F0008E91F00087F
:10014000E91F0008E91F0008E91F0008E91F00086F
:10015000E91F0008E91F0008E91F0008E91F00085F
:10016000E91F0008E91F0008E91F0008E91F00084F
:10017000E91F0008E91F0008E91F0008000000004F
:08018000E91F0008E91F000857
:1001C00010B5054C237833B9044B13B10448AFF391
:1001D00000800123237010BD4C08002000000000A7
:1001E000903B000808B5034B1BB103490348AFF32C
:1001F000008008BD0000000050080020903B00086F
:1002000053B94AB9002908BF00281CBF4FF0FF317D
:100210004FF0FF3000F074B9ADF1080C6DE904CE79
:1002200000F006F8DDF804E0DDE9022304B07047D1
:100230002DE9F047089E0D4604468846002B4DD117
:100240008A42944668D9B2FA82F252B101FA02F3B4
:10025000C2F1200120FA01F10CFA02FC41EA030884
:1002600094404FEA1C45210CB8FBF5FE1FFA8CF7B1
:1002700005FB1E8341EA03430EFB07F199420BD9AC
:100280001CEB03030EF1FF3080F01E81994240F217
:100290001B81AEF1020E63445B1AA4B2B3FBF5F00E
:1002A00005FB103344EA034400FB07F7A7420AD9D1
:1002B0001CEB040400F1FF3380F00881A74240F2F8
:1002C000058164440238E41B40EA0E4000211EB15F
:1002D000D4400023C6E90043BDE8F0878B4208D92B
:1002E000002E00F0EE800021C6E900050846BDE8BA
:1002F000F087B3FA83F100294AD1AB4202D382429C
:1003000000F2F980841A65EB030301209846002E61
:10031000E2D0C6E90048DFE702B9FFDEB2FA82F2B6
:10032000002A40F09180A1EB0C054FEA1C471FFA10
:100330008CFE0121B5FBF7F307FB1350250C45EAB2
:1003400000450EFB03F0A84208D91CEB050503F19C
:10035000FF3802D2A84200F2CB8043462D1AA4B245
:10036000B5FBF7F007FB105544EA05440EFB00FE11
:10037000A64508D91CEB040400F1FF3502D2A645BE
:1003800000F2BB802846A4EB0E0440EA03409EE73F
:10039000C1F120078B4022FA07FC4CEA030C20FA3B
:1003A00007F405FA01F31C43FD404FEA1C4900FA2B
:1003B00001F3B5FBF9F8200C1FFA8CFE09FB185568
:1003C00040EA054508FB0EF0A84202FA01F20BD9FB
:1003D0001CEB050508F1FF3A80F08880A84240F246
:1003E0008580A8F1020865442D1AA4B2B5FBF9F086
:1003F00009FB105544EA054500FB0EFEAE4508D941
:100400001CEB050500F1FF346CD2AE456AD9023809
:10041000654440EA0840A0FB0294A5EB0E05A54206
:10042000C846A64656D353D05EB1B3EB080265EB7F
:100430000E0505FA07F722FA01F3CD401F43C6E97E
:1004400000750021BDE8F087C2F1200320FA03F116
:100450000CFA02FC25FA03F395400D434FEA1C47C2
:100460001FFA8CFEB3FBF7F107FB11302B0C43EAAC
:10047000004301FB0EF0984204FA02F408D91CEB89
:10048000030301F1FF382FD298422DD9023963447A
:100490001B1AADB2B3FBF7F007FB103345EA034577
:1004A00000FB0EF3AB4208D91CEB050500F1FF3849
:1004B00016D2AB4214D902386544ED1A40EA014124
:1004C00038E73146304607E78646E5E61846FAE65D
:1004D0004B45A9D2B9EB020864EB0C0E0138A3E737
:1004E0004046EAE7204694E74146D1E7D0467BE71D
:1004F000023B654432E7084609E76444023842E7B4
:10050000704700BF00000000000000000000000075
:1005100000000000000000000000000000000000DB
:1005200000000000000000000000000000000000CB
:1005300000000000000000000000000000000000BB
:1005400090F800F06DE9024520F007016FF0000C13
:1005500010F0070491F820F040F049804FF00004BB
:100560006FF00700D1E9002391F840F000F1080096
:1005700082FA4CF2A4FA8CF283FA4CF3A2FA8CF3CE
:100580004BBBD1E9022382FA4CF200F10800A4FA35
:100590008CF283FA4CF3A2FA8CF3E3B9D1E9042389
:1005A00082FA4CF200F10800A4FA8CF283FA4CF3C0
:1005B000A2FA8CF37BB9D1E9062301F1200182FA7A
:1005C0004CF200F10800A4FA8CF283FA4CF3A2FA80
:1005D0008CF3002BC6D0002A04BF04301A4612BA8E
:1005E000B2FA82F2FDE8024500EBD2007047D1E991
:1005F000002304F00305C4F100004FEAC50514F020
:10060000040F91F840F00CFA05F562EA05021CBFF0
:1006100063EA050362464FF00004A9E7000000000A
:1006200001F0FF01102A2BDB10F0070F08D010F8A3
:10063000013B013A8B422DD010F0070F42B3F6D1A7
:10064000F0B441EA012141EA014122F007047FF0C0
:1006500000070023F0E80256083C85EA010586EA17
:10066000010685FA47F5A3FA87F586FA47F6A5FA53
:1006700087F68EB9EED1F0BC01F0FF0102F007025F
:1006800032B110F8013B013A83EA010313B1F8D10A
:100690000020704701387047002D06BF35460338EB
:1006A000073815F0010F07D1013015F4807F02BF24
:1006B000013015F4C03F0130F0BC0138704700BF75
:1006C000844641EA000313F003036DD1403A41D35D
:1006D00051F8043B40F8043B51F8043B40F8043B1C
:1006E00051F8043B40F8043B51F8043B40F8043B0C
:1006F00051F8043B40F8043B51F8043B40F8043BFC
:1007000051F8043B40F8043B51F8043B40F8043BEB
:1007100051F8043B40F8043B51F8043B40F8043BDB
:1007200051F8043B40F8043B51F8043B40F8043BCB
:1007300051F8043B40F8043B51F8043B40F8043BBB
:1007400051F8043B40F8043B51F8043B40F8043BAB
:10075000403ABDD2303211D351F8043B40F8043B4B
:1007600051F8043B40F8043B51F8043B40F8043B8B
:1007700051F8043B40F8043B103AEDD20C3205D35B
:1007800051F8043B40F8043B043AF9D2043208D053
:10079000D2071CBF11F8013B00F8013B01D30B88C5
:1007A00003806046704700BF082A13D38B078DD0A3
:1007B00010F003038AD0C3F10403D21ADB071CBF75
:1007C00011F8013B00F8013B80D331F8023B20F8DF
:1007D000023B7BE7043AD9D3013A11F8013B00F818
:1007E000013BF9D20B7803704B7843708B788370A0
:1007F0006046704782B0002100910B4B1A6B42F0AB
:1008000080021A631A6B02F080020092009A019132
:100810001A6B42F001021A631B6B03F00103019390
:10082000019B02B0704700BF0038024072B6FEE77D
:1008300000B595B03022002108A801F001FC00238A
:10084000039304930593069307930193214A116C34
:1008500041F080511164126C02F080520192019AB1
:1008600002931D4B1A6842F480421A601B6803F41D
:1008700080430293029B012308934FF48033099332
:1008800002230E934FF480020F92192210924FF41C
:10089000A872119212930423139308A800F01CFB72
:1008A00098B90F23039302230493002305934FF475
:1008B000A05306934FF480530793052103A800F03B
:1008C00059FD20B915B05DF804FBFFF7AFFFFFF746
:1008D000ADFF00BF003802400070004008B500F0D6
:1008E0007FF9FFF7A5FFFFF785FF00F0A9F800F0FB
:1008F000FDF8054801F00EFB044801F041FC4FF4FF
:100900007A7001F0FBFAF7E7B4080020A83B000872
:1009100082B0002100910B4B5A6C42F480425A6421
:100920005A6C02F480420092009A01911A6C42F0D3
:1009300080521A641B6C03F080530193019B02B038
:10094000704700BF00380240FEE7FEE7FEE7FEE723
:10095000FEE770477047704708B500F05BF908BDC7
:1009600008B503460B4A126842B10A4A10680344AC
:100970006A46934206D8074A136008BD054A0649ED
:100980001160F2E701F032FB0C2303604FF0FF30FF
:10099000F3E700BF68080020500900204FF0FF3047
:1009A00070474FF400534B600020704701207047A0
:1009B00000207047704700000268094B9A4200D03F
:1009C000704782B000230193064B1A6C42F002027A
:1009D0001A641B6C03F002030193019B02B0704781
:1009E000000400400038024000B587B000230193A6
:1009F000029303930493059302680E4B9A4202D02C
:100A000007B05DF804FB002300930B4B1A6B42F018
:100A100001021A631B6B03F001030093009B402348
:100A2000019302230293059301A9044800F062F99F
:100A3000E6E700BF0004004000380240000002402A
:100A400000B58FB000230A930B930C930D9308937A
:100A500009930193029303930493059306930793D9
:100A60002048214A0260D122426083606322C26032
:100A70000361836100F07AFE28BB4FF480530A9330
:100A80000AA9184800F07CFF00BB164800F09AFE47
:100A9000F8B900230893099308A9124800F0F0FF61
:100AA000D0B960230193312302930022039205926F
:100AB00001A90C4800F0EAFE88B90A48FFF794FF44
:100AC0000FB05DF804FBFFF7B1FED6E7FFF7AEFE0F
:100AD000DBE7FFF7ABFEDCE7FFF7A8FEE1E7FFF798
:100AE000A5FEEAE76C0800200004004008B50A48AB
:100AF0000A4B03604FF4E133436000238360C3601B
:100B000003610C2242618361C36101F0CBF800B93B
:100B100008BDFFF78BFEFBE7B40800200010014082
:100B200000B589B0002303930493059306930793BC
:100B3000026803F1804303F588339A4202D009B07A
:100B40005DF804FB0021019103F594335A6C42F0E7
:100B500010025A645A6C02F010020192019A02913A
:100B60001A6B42F001021A631B6B03F0010302933C
:100B7000029B4FF4C0630393022304930323069361
:100B80000723079303A9024800F0B4F8D7E700BF92
:100B90000000024010B504460E4B18784FF47A73EB
:100BA000B3FBF0F30C4A1068B0FBF3F000F08EF8E2
:100BB00068B90F2C01D901200AE0002221464FF02C
:100BC000FF3000F04BF8054B1C60002000E00120D6
:100BD00010BD00BF0400002000000020080000201D
:100BE00008B50B4B1A6842F400721A601A6842F496
:100BF00080621A601A6842F480721A60032000F062
:100C00001BF80F20FFF7C6FFFFF782FE002008BD8C
:100C1000003C0240034A1168034B1B780B441360ED
:100C2000704700BFF808002004000020014B18683E
:100C3000704700BFF8080020074AD36823F4E06338
:100C40001B041B0C000200F4E060034343F0BF638D
:100C500043F40033D360704700ED00E000B5194B5A
:100C6000DB68C3F30223C3F1070CBCF1040F28BFF8
:100C70004FF0040C03F1040EBEF1060F18D9033B2C
:100C80004FF0FF3E0EFA0CFC21EA0C0199400EFADF
:100C900003F322EA0303194300280BDB0901C9B25D
:100CA00000F1604000F5614080F800135DF804FB3E
:100CB0000023E5E700F00F000901C9B2024B195407
:100CC000F4E700BF00ED00E014ED00E00138B0F102
:100CD000807F0BD24FF0E0235861054AF02182F863
:100CE00023100020986107221A6170470120704785
:100CF00000ED00E000230F2B00F2E48070B582B01D
:100D000060E085685E000324B44025EA0405CC68F1
:100D1000B4402C438460456825EA02054C68C4F35E
:100D200000129A402A4342605AE0DC08083450F826
:100D3000246003F0070295000F22AA4026EA020E63
:100D40000A69AA4042EA0E0240F824205CE0072229
:100D500000E0002202FA0EF22A4302345A4D45F80E
:100D600024205A4A94686FEA0C0224EA0C054E6863
:100D700016F4801F01D04CEA0405544CA560E468C9
:100D800002EA04054E6816F4001F01D04CEA04057F
:100D90004E4CE560646802EA04054E6816F4003FB4
:100DA00001D04CEA0405494C6560246822404D6836
:100DB00015F4803F01D04CEA0402444C2260013318
:100DC0000F2B7DD801229A400C6804EA020C32EA0B
:100DD0000404F4D14C6804F00304013C012C90D9C4
:100DE0004A6802F00302032A09D0C4685D000322A6
:100DF000AA4024EA02048A68AA402243C2604A68E0
:100E000002F00302022A90D004684FEA430E032244
:100E100002FA0EF224EA02044A6802F0030202FA1D
:100E20000EF2224302604A6812F4403FC7D000220B
:100E30000192274A546C44F480445464526C02F486
:100E400080420192019A9C08A51C1F4A52F8255025
:100E500003F003024FEA820E0F2202FA0EF225EA95
:100E600002051C4A90423FF474AF02F58062904242
:100E70001AD002F58062904218D002F5806290424A
:100E800016D002F58062904214D002F58062904242
:100E900012D002F58062904210D002F5806290423A
:100EA0003FF455AF082255E7012253E7022251E7EC
:100EB00003224FE704224DE705224BE7062249E7CC
:100EC00002B070BD704700BF00380140003C0140D7
:100ED0000038024000000240002800F0E08170B5B8
:100EE00082B00446036813F0010F3BD09F4B9B6810
:100EF00003F00C03042B2CD09C4B9B6803F00C03D9
:100F0000082B21D06368B3F5803F4FD0B3F5A02FF5
:100F100052D0964B1A6822F480321A601A6822F472
:100F200080221A606368002B50D0FFF77FFE0546D1
:100F30008E4B1B6813F4003F14D1FFF777FE401B64
:100F40006428F5D90320B1E1884B5B6813F4800F66
:100F5000D8D0864B1B6813F4003F03D06368002B86
:100F600000F09F81236813F0020F54D07F4B9B68E1
:100F700013F00C0F3ED07D4B9B6803F00C03082B45
:100F800033D0E368002B68D0794B01221A60FFF759
:100F90004DFE0546754B1B6813F0020F54D1FFF749
:100FA00045FE401B0228F5D903207FE16F4A1368F4
:100FB00043F480331360B5E76C4B1A6842F4802227
:100FC0001A601A6842F480321A60ABE7FFF72EFE0F
:100FD0000546664B1B6813F4003FC3D0FFF726FE9F
:100FE000401B6428F5D9032060E1604B5B6813F473
:100FF000800FC6D15D4B1B6813F0020F03D0E3686E
:10100000012B40F05081594A136823F0F8032169FD
:1010100043EAC1031360236813F0080F42D06369E9
:101020006BB3534B0122C3F8802EFFF7FFFD05463B
:101030004E4B5B6F13F0020F34D1FFF7F7FD401BEF
:101040000228F5D9032031E1484A136823F0F80358
:10105000216943EAC1031360DDE7454B00221A60B2
:10106000FFF7E4FD0546414B1B6813F0020FD2D099
:10107000FFF7DCFD401B0228F5D9032016E13C4BAD
:101080000022C3F8802EFFF7D1FD0546374B5B6F7A
:1010900013F0020F06D0FFF7C9FD401B0228F5D957
:1010A000032003E1236813F0040F77D02F4B1B6C50
:1010B00013F0805F33D1002301932C4B1A6C42F064
:1010C00080521A641B6C03F080530193019B01252D
:1010D000284B1B6813F4807F23D0A368012B34D0E6
:1010E000052B38D0214B1A6F22F001021A671A6FB4
:1010F00022F004021A67A368002B3DD0FFF796FD8B
:1011000006461A4B1B6F13F0020F46D1FFF78EFDF8
:10111000801B41F288339842F3D90320C6E00025B2
:10112000D6E7144A136843F480731360FFF77EFD1B
:101130000646104B1B6813F4807FCED1FFF776FD77
:10114000801B0228F5D90320B0E0084A136F43F052
:1011500001031367CFE7054B1A6F42F004021A67C9
:101160001A6F42F001021A67C5E700BF003802405B
:101170000000474200700040FFF758FD0646524B02
:101180001B6F13F0020F08D0FFF750FD801B41F2D8
:1011900088339842F3D9032088E0EDB9A369002B86
:1011A00000F08380484A926802F00C02082A51D06D
:1011B000022B17D0454B00221A66FFF737FD044675
:1011C000414B1B6813F0007F42D0FFF72FFD001B3F
:1011D0000228F5D9032069E03B4A136C23F08053C1
:1011E0001364DBE7394B00221A66FFF71FFD054643
:1011F000354B1B6813F0007F06D0FFF717FD401B2F
:101200000228F5D9032051E0E369226A1343626A98
:1012100043EA8213A26A5208013A43EA0243E26AAD
:1012200043EA0263284A5360284B01221A66FFF7FB
:10123000FDFC0446244B1B6813F0007F06D1FFF72A
:10124000F5FC001B0228F5D903202FE000202DE03B
:1012500000202BE0012B2BD01B4B5B6803F480019B
:10126000E269914226D103F03F02216A8A4223D1EA
:10127000616A47F6C0721A40B2EB811F1ED103F4B7
:101280004031A26A5208013AB1EB024F18D103F083
:101290007063E26AB3EB026F14D1002006E0012014
:1012A0007047012002E0012000E0002002B070BD84
:1012B0000120FBE70120F9E70120F7E70120F5E72E
:1012C0000120F3E70120F1E7003802400000474227
:1012D00008B5254B9B6803F00C03042B3FD0082B6B
:1012E0003FD1214B5A6802F03F025B6813F4800F34
:1012F00012D01D4B5968C1F388111C480023A1FB73
:101300000001FEF77DFF184B5B68C3F30143013317
:101310005B00B0FBF3F025E0134B5968C1F3881C68
:101320004FEA4C11B1EB0C006EEB0E0E4FEA8E1330
:1013300043EA90638101091A63EB0E03DB0043EA81
:101340005173C90011EB0C0C43F100039902002307
:101350004FEA8C2041EA9C51FEF752FFD3E7034845
:1013600000E0034808BD00BF0038024040787D011E
:101370000024F400002800F09B8070B50D46044660
:101380004F4B1B6803F007038B4208D2CBB24C4A89
:101390001370136803F007038B4240F08B802368BF
:1013A00013F0020F17D013F0040F04D0454A9368CE
:1013B00043F4E0539360236813F0080F04D0414ACC
:1013C000936843F4604393603E4A936823F0F003CC
:1013D000A1680B439360236813F0010F32D0636858
:1013E000012B21D09A1E012A25D9364A126812F003
:1013F000020F61D033498A6822F0030213438B60E5
:10140000FFF714FC06462F4B9B6803F00C03626841
:10141000B3EB820F16D0FFF709FC801B41F2883333
:101420009842F0D9032042E0264A126812F4003FA5
:10143000E0D101203BE0234A126812F0007FD9D1AD
:10144000012034E01E4B1B6803F00703AB4207D9B1
:10145000EAB21B4B1A701B6803F00703AB422DD195
:10146000236813F0040F06D0164A936823F4E05360
:10147000E1680B439360236813F0080F07D0114A0B
:10148000936823F46043216943EAC1039360FFF743
:101490001FFF0C4B9B68C3F303130B4AD35CD8406C
:1014A0000A4B18600A4B1868FFF774FB002070BDE8
:1014B000012070470120FAE70120F8E70120F6E754
:1014C000003C024000380240B03B00080000002011
:1014D00008000020014B1868704700BF0000002082
:1014E00008B5FFF7F7FF044B9B68C3F38223034A59
:1014F000D35CD84008BD00BF00380240C03B0008A4
:1015000008B5FFF7E7FF044B9B68C3F34233034A78
:10151000D35CD84008BD00BF00380240C03B000883
:1015200030B4036A23F001030362036A42688469EA
:1015300024F073040D682C4323F0020C8B6843EAFB
:101540000C03104DA84203D005F58065A84205D1D3
:1015500023F00803CD682B4323F00403094DA84270
:1015600003D005F58065A84205D122F440724D698B
:101570002A438D692A43426084614A684263036258
:1015800030BC70470000014030B4036A23F480731C
:101590000362036A4268C46924F0730C0C6844EA6D
:1015A0000C0523F400738C6843EA0423114CA04219
:1015B00003D004F58064A04206D123F40063CC6814
:1015C00043EA042323F480630A4CA04203D004F5C9
:1015D0008064A04207D122F440524C6942EA0412CE
:1015E0008C6942EA04124260C5614A68C2630362C0
:1015F00030BC70470000014030B4036A23F48053CC
:101600000362036A4468C26922F4E6420D6842EA52
:10161000052223F400538D6843EA0533094DA8429F
:1016200003D005F58065A84204D124F480444D69B7
:1016300044EA85144460C2614A680264036230BCB3
:10164000704700BF0000014010B4036A046A24F030
:1016500001040462846924F0F00C4CEA021223F0C5
:101660000A030B438261036210BC704710B4046A22
:1016700024F0100404628469036A24F4704C4CEA78
:10168000023223F0A00343EA01138261036210BC1B
:101690007047836823F070030B4343F007038360B4
:1016A000704770470368304A904212D0B0F1804FC3
:1016B0000FD0A2F57C4290420BD002F5806290429E
:1016C00007D002F58062904203D002F57842904242
:1016D00003D123F070034A681343234A90422AD06F
:1016E000B0F1804F27D0A2F57C42904223D002F582
:1016F000806290421FD002F5806290421BD002F5BA
:101700007842904217D002F57052904213D002F501
:10171000806290420FD002F5806290420BD0A2F519
:101720009832904207D002F58062904203D002F5D1
:101730008062904203D123F44073CA68134323F0BC
:1017400080034A69134303608B68C3620B6883623A
:10175000054B984203D003F58063984201D10B6991
:1017600003630123436170470000014040B310B59B
:10177000044690F83D30F3B1022384F83D30214611
:1017800051F8040BFFF78EFF012384F8463084F8EC
:101790003E3084F83F3084F8403084F8413084F89B
:1017A000423084F8433084F8443084F8453084F87B
:1017B0003D30002010BD80F83C30FFF7FDF8DBE73E
:1017C0000120704740B310B5044690F83D30F3B1A6
:1017D000022384F83D30214651F8040BFFF762FFE5
:1017E000012384F8463084F83E3084F83F3084F892
:1017F000403084F8413084F8423084F8433084F833
:10180000443084F8453084F83D30002010BD80F825
:101810003C30FFF746FFDBE70120704730B4036A36
:1018200023F010030362036A4468826922F4E642EB
:101830000D6842EA052223F020038D6843EA051370
:10184000114DA84203D005F58065A84206D123F0CA
:101850008003CD6843EA051323F040030A4DA842F4
:1018600003D005F58065A84207D124F440644D6992
:1018700044EA85048D6944EA8504446082614A68CB
:101880008263036230BC70470000014038B590F8B5
:101890003C30012B66D004460D46012380F83C30D5
:1018A0000C2A5AD8DFE802F0075959591B595959DF
:1018B0003059595944000068FFF732FE2268936995
:1018C00043F0080393612268936923F00403936152
:1018D0002268936929690B43936100203EE0006808
:1018E000FFF79CFF2268936943F4006393612268C9
:1018F000936923F48063936122689369296943EAB9
:1019000001239361002029E00068FFF73DFE226873
:10191000D36943F00803D3612268D36923F0040339
:10192000D3612268D36929690B43D361002015E094
:101930000068FFF761FE2268D36943F40063D36156
:101940002268D36923F48063D3612268D36929694B
:1019500043EA0123D361002000E00120002384F842
:101960003C3038BD0220FCE710B4846824F47F4C7E
:1019700042EA03220A4342EA0C02826010BC70472A
:1019800090F83C30012B78D010B50446012380F844
:101990003C30022380F83D300268936823F47F4393
:1019A00023F0770393600B68602B4CD029D8402B31
:1019B00054D00CD9502B22D1CA6849680068FFF76F
:1019C00043FE50212068FFF764FE002005E0202B35
:1019D0000DD009D9302B0AD00120012384F83D30E5
:1019E000002384F83C3010BD0BB1102B05D11946F3
:1019F0002068FFF74EFE0020EFE70120EDE7012011
:101A0000EBE7B3F5805F34D0B3F5005F0CD1CB6862
:101A10004A6889680068FFF7A7FF2268936843F463
:101A2000804393600020D8E7702B24D1CB684A68AC
:101A300089680068FFF798FF2268936843F077038E
:101A400093600020C9E7CA6849680068FFF70EFE86
:101A500060212068FFF71DFE0020BEE7CA684968C4
:101A60000068FFF7F1FD40212068FFF712FE00201B
:101A7000B3E70020B1E70120AFE702207047000084
:101A800090F83C30012B3CD010B4012380F83C305E
:101A9000022380F83D3003685A689C6822F0700C7D
:101AA0000A6842EA0C025A600368174A93421AD045
:101AB000B3F1804F17D0A2F57C42934213D002F5C8
:101AC000806293420FD002F5806293420BD002F500
:101AD0007842934207D002F57052934203D0A2F5A8
:101AE0009432934204D124F080044A6814439C60E9
:101AF000012380F83D30002380F83C30184610BCAC
:101B000070470220704700BF0000014038B504460E
:101B10000268136923F44053C1680B43136183685F
:101B20000269134342691343C2691A430168CB68CF
:101B300023F4164323F00C031343CB60026853696C
:101B400023F4407381690B4353610368314A934224
:101B500006D002F58062934202D0FFF7C1FC01E09B
:101B6000FFF7CEFCE369B3F5004F29D0002103183D
:101B700049411B1841F10001C90041EA5371DB00E2
:101B8000181863684FEA83024FEA937341F100012A
:101B9000FEF736FB204DA5FB00325109642303FB01
:101BA00011031B013233A5FB03235B0903F0F00291
:101BB00002EB011203F00F03216813448B6038BD60
:101BC0000023021843EB0301121841F10001C90080
:101BD00041EA5271D200101841F100016268921876
:101BE0005B41FEF70DFB0C4DA5FB00325109642350
:101BF00003FB1103DB003233A5FB03235B095A000F
:101C000002F4F87202EB011203F007032168134497
:101C10008B60D4E7001001401F85EB512DE9F8439C
:101C200005460F4616469946DDF820802C68246844
:101C300037EA04030CBF4FF0010C4FF0000CB44521
:101C40002DD1B8F1FF3FF1D0B8F1000F05D0FEF76C
:101C5000EDFFA0EB09004045E8D92A6802F10C032A
:101C600053E8003F23F4D0730C3242E800310029DE
:101C7000F3D12A6802F1140353E8003F23F0010373
:101C8000143242E800310029F3D1202385F83D3099
:101C900085F83E30002385F83C30032000E000202A
:101CA000BDE8F88358B310B5044690F83D300BB347
:101CB000242384F83D302268D36823F40053D36092
:101CC0002046FFF723FF2268136923F49043136132
:101CD0002268536923F02A0353612268D36843F4CE
:101CE0000053D36000202064202384F83D3084F822
:101CF0003E3010BD80F83C30FEF712FFD8E70120DF
:101D000070472DE9F04182B01E4690F83D30DBB2BD
:101D1000202B54D104460D469046002953D0002A6A
:101D200053D090F83C30012B51D0012380F83C3047
:101D300000230364212380F83D30FEF777FF074638
:101D4000A4F82480A4F82680A368B3F5805F05D0AA
:101D50004FF00008002384F83C3012E0236913B1EF
:101D60004FF00008F6E7A8460025F3E738F8023BF5
:101D70002268C3F308035360E28C92B2013A92B234
:101D8000E284E38C9BB273B100963B460022802133
:101D90002046FFF743FFE0B9002DE7D015F8012BEF
:101DA00023685A60E8E700963B460022402120461F
:101DB000FFF734FF78B9202384F83D3000E002209B
:101DC00002B0BDE8F0810120FAE70120F8E7022027
:101DD000F6E70320F4E70320F2E72DE9F04182B0B3
:101DE0001E4690F83E30DBB2202B5CD104460D46F7
:101DF000904600295BD0002A5BD090F83C30012B44
:101E000059D0012380F83C3000230364222280F85B
:101E10003E200363FEF70AFF0746A4F82C80A4F8CF
:101E20002E80A368B3F5805F05D04FF00008002333
:101E300084F83C3017E0236913B14FF00008F6E74F
:101E4000A8460025F3E723685B68C3F3080328F876
:101E5000023B03E023685B682B700135E28D92B290
:101E6000013A92B2E285E38D9BB2BBB100963B464C
:101E7000002220212046FFF7D1FEF0B9002DE2D04C
:101E8000A368B3F5805FE5D013B92369002BE1D0D7
:101E900023685B6803F07F032B70DEE7202384F860
:101EA0003E30002000E0022002B0BDE8F0810120B9
:101EB000FAE70120F8E70220F6E70320F4E7000044
:101EC00010B44FF0E02254690B4B1B6800FB03FC7D
:101ED0009369002104E0E01A02441144614509D2EB
:101EE0001A464FF0E0239B699A42FAD0F3D9D21AEE
:101EF0001144F3E710BC7047FC08002038B50546D4
:101F0000002404E04FF47A70FFF7DAFF0134A542B1
:101F1000F8D838BD08B5054B1860054B1868002384
:101F200002221946806800F033F908BD000900203C
:101F30000C00002010B5013801280AD814464FF0D3
:101F4000FF3392B207480068FFF7DBFE40B9204636
:101F500010BD00F04BF8092303604FF0FF30F7E7A6
:101F60000520F5E70009002008B548B94FF0FF3318
:101F7000012208480068FFF730FF40B9012008BD82
:101F800000F034F8092303604FF0FF30F7E7052035
:101F9000F5E700BF00090020DFF834D00D480E49F6
:101FA0000E4A002302E0D458C4500433C4188C42B3
:101FB000F9D30B4A0B4C002301E013600432A24218
:101FC000FBD3FEF7F7FC00F017F8FEF787FC70472D
:101FD00000000220000000204C080020E43B000824
:101FE0004C0800204C090020FEE70000014B186857
:101FF000704700BF0C00002070B50D4E0D4D761BD4
:10200000B61006D0002455F8043B01349847A64288
:10201000F9D1094E094D761B01F0BAFDB61006D074
:10202000002455F8043B01349847A642F9D170BD0D
:10203000D83B0008D83B0008E03B0008D83B00082C
:10204000830730B548D0541E002A3FD0CAB2034699
:1020500001E0013C3AD303F8012B9D07F9D1032C91
:102060002DD9CDB245EA05250F2C45EA054536D9CF
:10207000A4F1100222F00F0C03F1200EE6444FEA07
:10208000121C03F1100242E9045542E902551032D4
:102090007245F8D10CF1010214F00C0F03EB02129F
:1020A00004F00F0C13D0ACF1040323F0030304334A
:1020B000134442F8045B9342FBD10CF003042CB1AF
:1020C000CAB21C4403F8012B9C42FBD130BD6446CC
:1020D0001346002CF4D1F9E703461446BFE71A462D
:1020E000A446E0E770B5054688B008460C46FEF702
:1020F00027FA224EAA6B059001214318CDE906610B
:1021000004A8022104940393AC680190029122B3C5
:10211000636E13F0010FB4F90C309AB201D1980537
:1021200025D5910406D4626E43F4005322F4005284
:10213000A3816266284601AA214600F0D3FB636EA4
:10214000002814BF4FF0FF350A25DA0702D4A3890F
:102150009B0506D5284608B070BD284600F0C4F996
:10216000D6E7A06D00F05CFD284608B070BDA06DFC
:1021700000F054FDB4F90C309AB2D2E7CC3B000821
:10218000024B01461868FFF7ADBF00BF0C000020EE
:102190002DE9F043694CD4F8008083B004460E4624
:1021A00017461D46B8F1000F03D0D8F83830002B81
:1021B00077D0022F05D0012F00F2AC80002DC0F2A5
:1021C000A980636EDA0752D52146404600F058F9DF
:1021D000216B41B104F14003994202D0404600F026
:1021E0007BFA00232363B4F90CC000231CF0800F9A
:1021F000A361636064D12CF44A6C2CF0030C022FB1
:10220000A4F80CC06AD001AB6A462146404600F0F3
:1022100079FDA3891843A081002D2FD0002E2ED048
:10222000D8F83830002B38D0009B2660AB42B4F988
:102230000C301CBF43F40063A381012F04BF43F0A3
:102240000103A3819AB213F00803C4E904652CD0FA
:10225000D1075DD56D42A561656E002315F00105BE
:10226000A36027D00025284603B0BDE8F083A389EA
:102270009B05A9D4A06D00F0D1FCA5E7009D2846E0
:1022800000F070FD0646002847D0A38943F0800384
:10229000A381D8F83830002BC6D1404600F024F98D
:1022A000C2E7404600F020F983E7A360656E15F0B1
:1022B0000105D7D1930524D5284603B0BDE8F083A6
:1022C0002169404600F008FAB4F90CC02CF44A6CBD
:1022D0002CF0030C022FA4F80CC094D1002500228E
:1022E00004F14303A2600122C4E904322360636E57
:1022F0004CF0020CD807A4F80CC0DDD41CF4007F0D
:10230000DAD1A06D00F08CFC284603B0BDE8F08364
:10231000A560CBE74FF0FF35CEE7DDF80090A9458B
:1023200004D0484600F01EFD064620B9B4F90CC0A2
:102330004FF0FF35D3E74D46A7E700BF0C00002064
:10234000024B13B1024800F005B8704700000000CE
:102350000D260008002301461A46184601F006BB68
:10236000B1F90C20F8B50C461107074642D4636852
:1023700042F40062002BA28159DDA56A002D54D0E1
:1023800000233E683B6093B212F4805253D1E1695E
:1023900001233846A847421C63D0A389A56A5B077E
:1023A00005D56368C01A236B0BB1E36BC01AE169F2
:1023B000024600233846A847411C3ED13B68002B0B
:1023C0003BD01D2B01D0162B52D1A389226922604C
:1023D00023F4006300216160A381216B3E6021B37F
:1023E00004F14003994202D0384600F075F900200C
:1023F0002063F8BD2669C6B193B2256826609A07A6
:102400000CBF63690023AD1BA3600CE0D4F824C0AB
:10241000E1692B4632463846E047B0F1000CA5EBA7
:102420000C05664416DD002DF0DC0020F8BDE36BE2
:10243000002BA2DCF9E7206DB1E7B4F90C3022697A
:10244000226023F40063A3810022DB046260C4D510
:102450002065C2E7A38943F040034FF0FF30A3811A
:10246000F8BD3B68002B98D01D2B06D0162B04D04E
:10247000A38943F04003A381F8BD3E60D5E700BFC8
:1024800038B50C46054608B1836BA3B1B4F90C000E
:10249000B8B1636EDB0701D4810515D52846214606
:1024A000FFF75EFF636EDA07054602D4A3899B053A
:1024B0000ED5284638BD00F017F8B4F90C000028F6
:1024C000E7D10546284638BDA06D00F0A7FBE5E73B
:1024D000A06D00F0A5FB284638BD00BF014900F003
:1024E00075BB00BF1D3A00082DE9F0478246394808
:1024F00000F094FBDAF83840002C66D1DAF804508A
:10250000354ACAF83C200323CAE9B843DFF8CC9027
:10251000DFF8CC80334F344E04230AF53B72CAF8FF
:10252000E8222146C5E90243C5E90044C5E904445F
:102530006C660822AC6105F15C00FFF781FDC5E91E
:102540000759C5E90987EE6205F1580000F062FB02
:10255000DAF80850254BEB602146C5E90044C5E98F
:1025600004446C66AC60AC61082205F15C00FFF7C6
:1025700067FDC5E90759C5E90987EE6205F158000D
:1025800000F048FBDAF80C50194BEB602146C5E926
:102590000044C5E904446C66AC60AC61082205F1F6
:1025A0005C00FFF74DFD05F15800C5E90759C5E985
:1025B0000A76C5F8248000F02DFB0123CAF83830D4
:1025C0000448BDE8F04700F02BBBBDE8F0470148E8
:1025D00000F026BB10090020DD240008E1370008C8
:1025E0000538000845380008653800080900010072
:1025F00012000200014800F011BB00BF0C090020CE
:10260000014800F00DBB00BF0C09002038B5084B95
:10261000084D5B1B9C1007D0043B1D44013C55F842
:1026200004399847002CF9D1BDE8384001F0B6BA1A
:10263000E43B0008E03B0008F8B5244F0C46064692
:1026400000F0C4FEBA685568C4F57E630F3325F008
:1026500003052B4423F47F6323F00F03A3F5805479
:10266000B4F5805F07DB0021304601F0A7F8BB68B6
:102670002B44984204D0304600F0AEFE0020F8BD56
:102680006142304601F09AF801300DD0104ABB6823
:102690002D1B45F001055D60136830461B1B136060
:1026A00000F09AFE0120F8BD0021304601F086F8C6
:1026B000BA68831A0F2BDEDD43F001035360054B2C
:1026C00003491B68C01A0860D5E700BF3C0400201E
:1026D0001409002044080020002961D0F8B50C46F8
:1026E000064600F073FE54F8042C7B4FA4F1080555
:1026F00022F0010105EB010CB868DCF804306045FC
:1027000023F0030300F08B80D207CCF8043032D4DE
:1027100054F8082CAD1A1144AA6807F10800824247
:102720006AD00CEB0304D4F804E0EC68D4601EF02B
:10273000010FA26000F0978041F001036B60CCF8BC
:102740000010B1F5007F35D27A68CB084809012125
:10275000013381401143796007EBC30257F833100E
:10276000083AC5E9021247F83350CD603046BDE85B
:10277000F84000F031BE0CEB03025268D00710D4D1
:10278000194407F10800DCF80830834273D0DCF804
:102790000C20DA60936041F001036B606950D0E770
:1027A000704741F00103B1F5007F44F8043CCCF8D8
:1027B0000010C9D3B1F5206F4FEA512348D28B09DD
:1027C00003F1390003F13802C300F818FB58083848
:1027D000984259D05A6822F003028A4202D99B6873
:1027E0009842F7D1D868C5E902308560DD6030468F
:1027F000BDE8F84000F0F0BD0CEB03025268D207D0
:1028000063D40B44DCE90212CA60916043F0010218
:102810006A603046EB50BDE8F84000F0DDBD0B4487
:10282000D10707D454F8082CAD1A1344D5E9021285
:10283000CA60916043F001026A60284ABD60126874
:102840009A4293D8264B30461968FFF7F5FE8DE77C
:10285000142B0AD9542B1FD80B0B03F16F0003F173
:102860006E02C300B1E719448DE703F15C0003F188
:102870005B02C300A9E741F00103C7E90455C5E9BC
:1028800002006B60695071E779689210012404FAC4
:1028900002F20A437A60A6E7B3F5AA7F06D8CB0B0B
:1028A00003F1780003F17702C3008EE740F254523F
:1028B000934206D88B0C03F17D0003F17C02C30028
:1028C00083E74FF47E737E227FE741F001036B6064
:1028D000CCF800104AE700BF3C0400204808002064
:1028E000440900209368002B00F081802DE9F04F0F
:1028F000B1F90C300C461907804683B0174698B2E0
:1029000023D523690BB310F002033D682BD04FF0A1
:10291000000ADFF8B4B256465E453346524628BF39
:102920005B464046002E4FD0E169D4F824C0E04712
:10293000002852DDBB681B1A8244361ABB60002B8C
:10294000EAD1002003B0BDE8F08F2146404600F0F8
:10295000A3FF002840F03481B4F90C303D6898B2F0
:1029600010F00203D3D110F0010942D14E463EB31C
:102970008205D4F808B040F18180B3455A4600F290
:10298000B18010F4906F40F0BE80206801924946FB
:1029900000F0A0FCA3682168019AA3EB0B030A4492
:1029A000B246A36022600026B868A0EB0A00D144BA
:1029B000B8600028C5D0B4F90C0080B2002ED7D181
:1029C000D5E900960835D2E7D5E900A60835A3E792
:1029D00021464046FFF754FD80B3B4F90C3043F074
:1029E00040034FF0FF30A38103B0BDE8F08F00201B
:1029F00070471E46AA46994618461D4656B388B3E8
:102A00004A46D4E904132068B24228BF32468842BD
:102A100005D9A16803EB010B5A4500F3A780934247
:102A200064DCE169D4F824C02A464046E047B0F1AE
:102A3000000BD2DDB9EB0B09CAD00120BB68A3EBB8
:102A40000B035D44A6EB0B06BB60002B3FF479AF94
:102A5000002ED4D10AF1080353E902569A460833EE
:102A6000002EF9D032460A212846FDF7D9FD00286C
:102A700000F09D800130A0EB0509C1E720682369C3
:102A8000984217D86369B34214D86FF00042B2423B
:102A900028BF3246E16992FBF3F2D4F824C002FB6E
:102AA00003F340464A46E047B0F1000A95DDA6EB45
:102AB0000A0679E7B345DA4628BFB2465246494688
:102AC00000F008FCA3682268A3EB0A035244A36049
:102AD0002260002BEBD121464046FFF7D1FC0028B5
:102AE000E5D07AE72068B34632464FE7294601929F
:102AF00000F0F0FB019AA3689B1AA36023681344BB
:102B00002360934696E723682169A3EB010B636971
:102B100003EB430A0AEBDA7A0BF101034FEA6A0A84
:102B200033445345524684BF9A46524643052CD5FA
:102B30001146404600F01EF900283BD05A46216954
:102B40000190FDF7BDFDA289019B22F4906242F045
:102B50008002A28103EB0B002361AAEB0B03C4F8F4
:102B600014A0A3602060B34632460FE729465A46B8
:102B700000F0B0FB23685B44236021464046FFF72A
:102B80007FFC00283FF456AF27E7404600F02AFCC0
:102B900003460028DED121694046FFF79DFDB4F9C8
:102BA0000C300C2223F08003C8F8002017E7721CB9
:102BB000914626E70C22B4F90C30C8F800200EE745
:102BC0004FF0FF30BEE600BF00FCFF7F2DE9F84369
:102BD0000746884600F538764FF00009D6E90154DB
:102BE000013D11D4A389012B05F1FF3508D9B4F9B2
:102BF0000E300133214603D03846C04749EA000968
:102C00006B1C04F16804EDD13668002EE6D148460D
:102C1000BDE8F883704700BF704700BF704700BF32
:102C2000704700BF2DE9F0418B890C46990796B09B
:102C300008D504F143030122C4E90432236016B02D
:102C4000BDE8F081B4F90E100029064627DB6A467C
:102C500000F04AFF002821DB019D05F47045A5F531
:102C60000055B5FA85F54FF480686D094FF400679B
:102C70004146304600F07EF8B4F90C30F0B1204AFD
:102C8000F26343F08003C4F81480A38120602061C4
:102C900035BB3B43A38116B0BDE8F081A38913F097
:102CA000800519D04FF040084146304600F062F8E8
:102CB0000025B4F90C302F460028E0D19A05BED487
:102CC00023F0030304F1430243F002030121C4E9AA
:102CD0000421A3812260B2E74FF480682F46C7E742
:102CE000B4F90E10304600F015FF10B9B4F90C30ED
:102CF000CFE7A38923F0030343F001031BB2C8E726
:102D0000DD24000870B50C46B1F90E10002996B00C
:102D100015461E4614DB6A4600F0E6FE00280FDB6F
:102D2000019A02F47042A2F50052B2FA82F24FF414
:102D3000806352094FF4006032602B6016B070BDA2
:102D4000B4F90C10002311F08000336004D040224D
:102D500018462A6016B070BD4FF480632B6016B021
:102D600070BD00BF024B0146186800F003B800BFF9
:102D70000C0000202DE9F04F01F10B06162E83B058
:102D8000044624D8102900F2BA8000F01FFB102658
:102D900018220220B54F3A44A2F1080153688B4231
:102DA00000F0BA805A68D96822F003021A449D687C
:102DB000E9608D60516841F001012046516003F1E6
:102DC000080500F009FB284603B0BDE8F08F36F097
:102DD000070600F19480B14200F2918000F0F6FA0B
:102DE000B6F5FC7FC0F09A81730A00F08F80042B47
:102DF00000F26F81B30903F1390003F1380CC3000D
:102E00009A4F3B44A3F108055B689D4206D10CE054
:102E1000002980F22781DB689D4206D05A6822F0A3
:102E20000302911B0F29F3DD60463D69DFF840C2C4
:102E300065457CD06A6822F00302931B0F2B00F3D8
:102E40007B81002BC7E904CC80F26C81B2F5007F56
:102E500080F01A81D308796801334FEA521E0122AB
:102E600002FA0EF20A4357F833E0C5F808E007EB20
:102E7000C3010839E9607A6047F83350CEF80C5046
:102E8000831001219940914257D8114206D120F078
:102E900003004900114200F10400FAD007EBC00919
:102EA0004D468646D5F80C80454508D11DE1002BDE
:102EB00080F22481D8F80C80454500F01681D8F8BE
:102EC000042022F00302931B0F2BF0DD2046D8E9EB
:102ED000025408EB060146F00106C8F80460EC60F5
:102EE000A56043F00104C7E90411C1E902CC4C60BC
:102EF00048F8023000F070FA08F1080502E00C23EF
:102F000023600025284603B0BDE8F08F4FF400731E
:102F100040204FF03F0C73E7D3689A4208BF02305D
:102F20007FF440AF3D69DFF848C1654582D17A68DA
:102F30008310012199409142A7D9BD686B6823F0A5
:102F400003094E4503D8A9EB06030F2B7ADCDFF803
:102F500024B1494BDBF800201B680132334405EBF8
:102F6000090A00F0338103F580530F3323F47F689F
:102F700028F00F084146204600F020FC411C024684
:102F800000F0F380824500F2EE803C4B196841442A
:102F90001960084600F04E81DBF800100193013102
:102FA0001BBFA2EB0A0A5044CBF80020186012F0B5
:102FB000070B00F01781CBF108010A44CBF58051D3
:102FC00090440831A1EB0801C1F30B0A5146204699
:102FD000009200F0F3FB421CDDE9002300F04F817A
:102FE000801A00EB0A081968BA6048F001005144E1
:102FF000BD425060196000F02981B9F10F0F40F215
:1030000027816868A9F10C0C2CF0070C00F0010076
:1030100040EA0C0068604FF0050E05EB0C00BCF1B7
:103020000F0FC0E901EE00F2328150681546144BD3
:103030001A688A4238BF1960124B1A688A4238BF30
:10304000196094E0AA1943F0010346F001066E608E
:103050002046BA60536000F0BFF90835284603B037
:10306000BDE8F08FD9681A44A1E600BF3C040020F7
:1030700044040020440800204409002014090020D2
:103080003C09002040090020B2F5206F4FEA52238E
:1030900063D3142B00F2B78003F15C01C9005B33EA
:1030A00007EB010E7958AEF1080E8E4500F09180C5
:1030B0004B6823F00303934202D989688E45F7D108
:1030C000D1F80CE07A68C5E9021ECEF80850CD6050
:1030D000D6E6142B59D9542B00F29D80330B03F103
:1030E0006F0003F16E0CC3008AE60EF1010E1EF0B4
:1030F000030F05F108057FF4D5AE51E04244454683
:103100005368D8F80C1043F00103536055F8083F9A
:103110002046D9608B6000F05FF9F3E6F00806F115
:10312000080237E62A442046536843F001035360FF
:10313000083500F051F9E5E6A919204646F00106E8
:1031400043F001046E60C7E90411C1E902CC4C6090
:10315000AB5000F041F90835D4E6930903F1390189
:10316000C90038339CE7BD425FD0BD68686820F075
:1031700003084645A8EB060302D80F2B3FF762AFC2
:10318000204600F029F90025BCE603F15C0003F1BC
:103190005B0CC30034E659F808394B4540F0968083
:1031A00010F0030F00F1FF30F5D17B6823EA010333
:1031B0007B60490099423FF6C0AE19B9BDE64900AF
:1031C0000EF1040E1942FAD0704667E603F11008BA
:1031D000D0E69A104FF001087B6808FA02F21A4311
:1031E0007A6070E702EB08014942C1F30B0A5146CD
:1031F0002046009200F0E2FA431CDDE900237FF450
:10320000EFAEDA46EFE6542B25D8130B03F16F012E
:10321000C9006E3344E7B3F5AA7F25D8F30B03F159
:10322000780003F1770CC300EAE5294B18684044A5
:103230001860B1E6CAF30B0CBCF1000F7FF4ACAE22
:10324000BD68C84448F001006860F0E61546EEE647
:103250000123536094E7B3F5AA7F23D8D30B03F17E
:103260007801C90077331BE740F25452934223D8C8
:10327000B30C03F17D0003F17C0CC300C0E5ABF19E
:10328000080BD844A8EB02084FF0000AABE605F1A2
:10329000080120460093FFF71FFABD68009B68688D
:1032A0001968C4E640F254518B420BD8930C03F1D9
:1032B0007D01C9007C33F3E64FF47E737F204FF02D
:1032C0007E0C9DE54FF47E717E23E9E67B6870E716
:1032D0001409002088420DD98B1883420AD900EBCB
:1032E000020CBAB1624613F801CD02F801CD994241
:1032F000F9D170470F2A0ED8034602F1FF3C4AB1BC
:103300000CF1010C013B8C4411F8012B03F8012F47
:103310006145F9D1704740EA01039B0750D1A2F102
:10332000100370B501F1200C23F00F0501F1100E10
:1033300000F11004AC441B095EF8105C44F8105C0A
:103340005EF80C5C44F80C5C5EF8085C44F8085CC1
:103350005EF8045C44F8045C0EF1100EE64504F1DE
:103360001004E9D1013312F00C0F01EB031102F04C
:103370000F0400EB031327D0043C24F003064FEAAC
:10338000940C1E441C1F8E465EF8045B44F8045FD8
:10339000B442F9D10CF1010402F0030203EB8403FF
:1033A00001EB840102F1FF3C4AB10CF1010C013B3D
:1033B0008C4411F8012B03F8012F6145F9D170BD40
:1033C00002F1FF3C03469BE72246EBE70148FFF78B
:1033D00025BC00BF080900200148FFF721BC00BF41
:1033E000080900202DE9F84F1746002900F09880C1
:1033F00007F10B0580460C46FFF7E8FF162D5DD858
:1034000010252A46AF425ED854F8041C21F003066A
:103410009642A4F1080962DABC4BD3F808C009EB64
:103420000600844500F09780D0F804C02CF001031A
:1034300003445B68DB0768D42CF0030C06EB0C0339
:10344000934247DACB0710D454F8083CA9EB030A9F
:10345000DAF8043023F003018C44B444944580F23C
:1034600011817318934280F2E88039464046FFF795
:1034700081FC0746E0B154F8043C23F001034B44BF
:10348000A0F10802934200F0D280321F242A00F2F9
:10349000F580132A00F2AC800346224611681960B9
:1034A0005168596092689A6021464046FFF714F9C6
:1034B0004046FFF791FF3846BDE8F88F25F0070535
:1034C000002D2A469EDA0C23C8F800300027384623
:1034D000BDE8F88F1E46D0E90223D3609A60731BC3
:1034E0000F2B22D8D9F8043003F0010333434E44A4
:1034F000C9F80430736843F00103736040462746FF
:10350000FFF76AFF3846BDE8F88FC907ADD454F815
:10351000083CA9EB030ADAF8041021F00301A0E744
:10352000BDE8F84F1146FFF725BCD9F8041001F0AB
:1035300001012943C9F8041009EB05014E4443F089
:1035400001034B60736843F0010308317360404628
:10355000FFF7C2F8D2E7DCF8040020F0030B06EB1B
:103560000B0C05F1100084454DDAC9073FF57DAF1E
:1035700054F8081CA9EB010ADAF8041021F0030141
:103580008B44B34458453FF76CAF5746DAF80C10FC
:1035900057F8080F321F242AC160886000F2DB80D0
:1035A000132A40F2D6802168CAF808106168CAF868
:1035B0000C101B2A00F2DF8008340AF11002216887
:1035C000116061685160A16891600AEB0501ABEB85
:1035D000050242F0010299604A60DAF8043003F013
:1035E00001031D434046CAF80450FFF7F5FE6EE79D
:1035F00023680360636843601B2A68D804F10802EB
:1036000000F108034AE709EB05029A60ACEB0503F9
:1036100043F00103536054F8043C03F001031D43DD
:10362000404644F8045CFFF7D7FE27464FE750F8C2
:10363000043C23F003031E4451E75746DAF80C100C
:1036400057F8080F321F242AC16088604CD8132A0B
:1036500048D92168CAF808106168CAF80C101B2AFA
:1036600056D808340AF110021E46236813606368B6
:103670005360A3689360D1463C4630E72146FFF78C
:1036800029FE11E7D0E902135746CB60996057F83D
:10369000081FDAF80C30CB60321F242A99602DD82D
:1036A000132A29D92368CAF808306368CAF80C308D
:1036B0001B2A42D808340AF1100322681A60626893
:1036C0005A60A2689A606646D1463C4607E7A368FE
:1036D0008360E368C360242A26D004F1100200F15D
:1036E0001003DBE63A46BFE7214638461E46D14680
:1036F000FFF7F0FD3C46F2E63B46DEE72146384662
:103700006646D146FFF7E6FD3C46E8E63C0400206D
:10371000A168CAF81010E168CAF81410242A20D051
:1037200010340AF118029FE723690361616941615E
:1037300004F1180200F11803B0E6A368CAF81030CB
:10374000E368CAF81430242A21D010340AF118038F
:10375000B3E73A4633E721463846FFF7BBFD164B41
:1037600033E72269CAF818206269CAF81C201834A5
:103770000AF1200278E7A168CAF81010E168CAF8D7
:103780001410242A0DD010340AF1180217E7236907
:10379000CAF818306369CAF81C3018340AF12003DB
:1037A0008BE72269CAF818206269CAF81C2018340D
:1037B0000AF1200203E700BF3C04002038B5074DA2
:1037C0000022044608462A60FDF7CAF8431C00D0D0
:1037D00038BD2B68002BFBD0236038BD4809002082
:1037E00010B50C46B1F90E1000F0BCF9002803DB4F
:1037F000236D0344236510BDA38923F48053A38163
:1038000010BD00BF2DE9F0410C46B1F90C101F4668
:10381000CB05054616460BD421F48051A1813B46C9
:10382000B4F90E1032462846BDE8F04100F01EB84B
:10383000B4F90E100223002200F07EF9B4F90C1046
:10384000EAE700BF10B50C46B1F90E1000F074F9AC
:10385000A389421C0EBF23F4805343F48053206598
:10386000A38110BDB1F90E1000F0C6B838B50C46F2
:10387000084D8446114620461A4600232B606446B4
:10388000FEF758FB431C00D038BD2B68002BFBD043
:10389000236038BD4809002038B5334B1B68054606
:1038A0000C460BB19A6B12B3B4F90C3018079AB2EC
:1038B00025D5216900292DD012F0010007D0002064
:1038C000A06060694042A06139B1002038BD950711
:1038D00058BF6069A0600029F7D1120658BF08469A
:1038E000F4D543F04003A3814FF0FF3038BD1846B4
:1038F000FEF7FAFDB4F90C3018079AB2D9D4D10604
:103900002AD5520714D4216943F00803A3819AB23F
:103910000029D1D102F42070B0F5007FCCD021462F
:103920002846FFF77FF9B4F90C3021699AB2C3E752
:10393000216B51B104F14002914204D02846FEF7B8
:10394000CBFEB4F90C300022226321690022C4E9C5
:10395000001223F02403D7E7092243F040032A6032
:103960004FF0FF30A38138BD0C0000202DE9F04757
:10397000DFF87CA00646DAF8000098460F4691462C
:10398000FFF74CF91B4B1B68D3F8484124B365681B
:103990001F2D26DC5EB96B1C0235DAF8000063606F
:1039A00044F82570FFF73CF90020BDE8F08704EBF0
:1039B00085010123C1F88890D4F88821AB401A43CF
:1039C000022EC4F88821C1F80881E4D1D4F88C21F2
:1039D0001343C4F88C31DEE703F5A674C3F84841FD
:1039E000D5E7DAF80000FFF71BF94FF0FF30DCE70E
:1039F00038040020C83B000838B5074D00220446B3
:103A000008462A60FCF7CAFF431C00D038BD2B686B
:103A1000002BFBD0236038BD4809002070B5002979
:103A20004BD006460C4610B1836B002B48D0636E1A
:103A3000D80734D5B4F90C30002B3ED0214630469F
:103A4000FEF78EFCE36A054633B1E16930469847DC
:103A50000028B8BF4FF0FF35A3891A063BD4216B6D
:103A600041B104F14003994202D03046FEF734FEE2
:103A700000232363616C21B13046FEF72DFE002345
:103A80006364FEF7B7FD636E0022DB07A28127D5D2
:103A9000A06DFFF7C1F8FEF7B3FD284670BDA389FE
:103AA0009905CBD4A06DFFF7B9F8B4F90C30002B11
:103AB000C4D1656E15F0010508D00025284670BDFB
:103AC000FEF712FD636ED807B4D4E8E7A06DFFF7E8
:103AD000A7F8284670BD21693046FEF7FDFDBEE718
:103AE000A06DFFF79DF8D3E770B50C46084D03466F
:103AF0000026204611461C462E60FCF752FF431C50
:103B000000D070BD2B68002BFBD0236070BD00BFC0
:103B10004809002038B5074D0022044608462A60AF
:103B2000FCF744FF431C00D038BD2B68002BFBD0B2
:103B3000236038BD4809002038B50C46084D84463E
:103B4000114620461A4600232B606446FCF730FFDE
:103B5000431C00D038BD2B68002BFBD0236038BD40
:103B60004809002038B50C46084D844611462046C9
:103B70001A4600232B606446FEF7F6F9431C00D07A
:103B800038BD2B68002BFBD0236038BD48090020CE
:103B9000F8B500BFF8BC08BC9E467047F8B500BF3A
:083BA000F8BC08BC9E4670470A
:103BA80068656C6C6F0000000000000000000000F9
:103BB80001020304060708090000000001020304CB
:083BC800100000200A000000BB
:083BD00060C6FF7F0100000048
:083BD80041230008E50100088B
:043BE000C101000817
:103BE4000024F40001000000100000001000002078
:103BF40000000000FC02002064030020CC0300202D
:103C040000000000000000000000000000000000B0
:103C140000000000000000000000000000000000A0
:103C24000000000000000000000000000000000090
:103C34000000000000000000000000000000000080
:103C44000000000000000000000000000000000070
:103C54000000000000000000000000000000000060
:103C64000000000000000000000000000000000050
:103C74000000000000000000000000000000000040
:103C84000000000000000000000000000000000030
:103C9400000000000000000001000000000000001F
:103CA4000E33CDAB34126DE6ECDE05000B000000E4
:103CB4000000000000000000000000000000000000
:103CC40000000000000000000000000000000000F0
:103CD40000000000000000000000000000000000E0
:103CE40000000000000000000000000000000000D0
:10401400000000000000000004090020000000006F
:10402400000000003C0400203C0400204404002064
:10403400440400204C0400204C04002054040020BC
:10404400540400205C0400205C040020640400206C
:10405400640400206C0400206C040020740400201C
:10406400740400207C0400207C04002084040020CC
:10407400840400208C0400208C040020940400207C
:10408400940400209C0400209C040020A40400202C
:10409400A4040020AC040020AC040020B4040020DC
:1040A400B4040020BC040020BC040020C40400208C
:1040B400C4040020CC040020CC040020D40400203C
:1040C400D4040020DC040020DC040020E4040020EC
:1040D400E4040020EC040020EC040020F40400209C
:1040E400F4040020FC040020FC040020040500204B
:1040F400040500200C0500200C05002014050020F8
:10410400140500201C0500201C05002024050020A7
:10411400240500202C0500202C0500203405002057
:10412400340500203C0500203C0500204405002007
:10413400440500204C0500204C05002054050020B7
:10414400540500205C0500205C0500206405002067
:10415400640500206C0500206C0500207405002017
:10416400740500207C0500207C05002084050020C7
:10417400840500208C0500208C0500209405002077
:10418400940500209C0500209C050020A405002027
:10419400A4050020AC050020AC050020B4050020D7
:1041A400B4050020BC050020BC050020C405002087
:1041B400C4050020CC050020CC050020D405002037
:1041C400D4050020DC050020DC050020E4050020E7
:1041D400E4050020EC050020EC050020F405002097
:1041E400F4050020FC050020FC0500200406002046
:1041F400040600200C0600200C06002014060020F3
:10420400140600201C0600201C06002024060020A2
:10421400240600202C0600202C0600203406002052
:10422400340600203C0600203C0600204406002002
:10423400440600204C0600204C06002054060020B2
:10424400540600205C0600205C0600206406002062
:10425400640600206C0600206C0600207406002012
:10426400740600207C0600207C06002084060020C2
:10427400840600208C0600208C0600209406002072
:10428400940600209C0600209C060020A406002022
:10429400A4060020AC060020AC060020B4060020D2
:1042A400B4060020BC060020BC060020C406002082
:1042B400C4060020CC060020CC060020D406002032
:1042C400D4060020DC060020DC060020E4060020E2
:1042D400E4060020EC060020EC060020F406002092
:1042E400F4060020FC060020FC0600200407002041
:1042F400040700200C0700200C07002014070020EE
:10430400140700201C0700201C070020240700209D
:10431400240700202C0700202C070020340700204D
:10432400340700203C0700203C07002044070020FD
:10433400440700204C0700204C07002054070020AD
:10434400540700205C0700205C070020640700205D
:10435400640700206C0700206C070020740700200D
:10436400740700207C0700207C07002084070020BD
:10437400840700208C0700208C070020940700206D
:10438400940700209C0700209C070020A40700201D
:10439400A4070020AC070020AC070020B4070020CD
:1043A400B4070020BC070020BC070020C40700207D
:1043B400C4070020CC070020CC070020D40700202D
:1043C400D4070020DC070020DC070020E4070020DD
:1043D400E4070020EC070020EC070020F40700208D
:1043E400F4070020FC070020FC070020040800203C
:1043F400040800200C0800200C08002014080020E9
:10440400140800201C0800201C0800202408002098
:10441400240800202C0800202C0800203408002048
:0C44240034080020FFFFFFFF0000020032
:0400000508001F9937
:00000001FF
